{
  "_format": "hh-sol-artifact-1",
  "contractName": "Goals",
  "sourceName": "contracts/Goals.sol",
  "abi": [
    {
      "inputs": [
        {
          "internalType": "address",
          "name": "_goalsTokenAddr",
          "type": "address"
        }
      ],
      "stateMutability": "nonpayable",
      "type": "constructor"
    },
    {
      "inputs": [
        {
          "internalType": "uint256",
          "name": "_goalId",
          "type": "uint256"
        },
        {
          "internalType": "address",
          "name": "_participant",
          "type": "address"
        },
        {
          "internalType": "uint256",
          "name": "_number",
          "type": "uint256"
        },
        {
          "internalType": "uint256[]",
          "name": "_uriIndex",
          "type": "uint256[]"
        }
      ],
      "name": "autenticateFrequency",
      "outputs": [],
      "stateMutability": "nonpayable",
      "type": "function"
    },
    {
      "inputs": [
        {
          "internalType": "uint256",
          "name": "",
          "type": "uint256"
        },
        {
          "internalType": "address",
          "name": "",
          "type": "address"
        }
      ],
      "name": "bets",
      "outputs": [
        {
          "internalType": "uint256",
          "name": "",
          "type": "uint256"
        }
      ],
      "stateMutability": "view",
      "type": "function"
    },
    {
      "inputs": [
        {
          "internalType": "uint256",
          "name": "_goalId",
          "type": "uint256"
        }
      ],
      "name": "completeGoal",
      "outputs": [],
      "stateMutability": "nonpayable",
      "type": "function"
    },
    {
      "inputs": [
        {
          "internalType": "string",
          "name": "_name",
          "type": "string"
        },
        {
          "internalType": "string",
          "name": "_description",
          "type": "string"
        },
        {
          "internalType": "string",
          "name": "_category",
          "type": "string"
        },
        {
          "internalType": "string",
          "name": "_frequency",
          "type": "string"
        },
        {
          "internalType": "uint256",
          "name": "_target",
          "type": "uint256"
        },
        {
          "internalType": "uint256",
          "name": "_minimumBet",
          "type": "uint256"
        },
        {
          "internalType": "uint256",
          "name": "_startDate",
          "type": "uint256"
        },
        {
          "internalType": "uint256",
          "name": "_endDate",
          "type": "uint256"
        },
        {
          "internalType": "bool",
          "name": "_isPublic",
          "type": "bool"
        },
        {
          "internalType": "uint256",
          "name": "_preFund",
          "type": "uint256"
        },
        {
          "internalType": "uint256",
          "name": "_maxParticipants",
          "type": "uint256"
        },
        {
          "internalType": "string[]",
          "name": "_URI",
          "type": "string[]"
        },
        {
          "internalType": "string",
          "name": "_typeTragetFreq",
          "type": "string"
        },
        {
          "internalType": "uint256",
          "name": "_quantity",
          "type": "uint256"
        },
        {
          "internalType": "uint256",
          "name": "_numFreq",
          "type": "uint256"
        }
      ],
      "name": "createGoal",
      "outputs": [],
      "stateMutability": "nonpayable",
      "type": "function"
    },
    {
      "inputs": [
        {
          "internalType": "uint256",
          "name": "_goalId",
          "type": "uint256"
        },
        {
          "internalType": "uint256",
          "name": "_bet",
          "type": "uint256"
        }
      ],
      "name": "enterGoal",
      "outputs": [],
      "stateMutability": "nonpayable",
      "type": "function"
    },
    {
      "inputs": [
        {
          "internalType": "uint256",
          "name": "_goalId",
          "type": "uint256"
        },
        {
          "internalType": "address",
          "name": "_participant",
          "type": "address"
        }
      ],
      "name": "getAutenticatedUri",
      "outputs": [
        {
          "internalType": "uint256[]",
          "name": "",
          "type": "uint256[]"
        }
      ],
      "stateMutability": "view",
      "type": "function"
    },
    {
      "inputs": [],
      "name": "getGoal",
      "outputs": [
        {
          "components": [
            {
              "internalType": "uint256",
              "name": "id",
              "type": "uint256"
            },
            {
              "internalType": "string",
              "name": "name",
              "type": "string"
            },
            {
              "internalType": "string",
              "name": "description",
              "type": "string"
            },
            {
              "internalType": "string",
              "name": "category",
              "type": "string"
            },
            {
              "internalType": "string",
              "name": "frequency",
              "type": "string"
            },
            {
              "internalType": "uint256",
              "name": "targetFreq",
              "type": "uint256"
            },
            {
              "internalType": "uint256",
              "name": "minimumBet",
              "type": "uint256"
            },
            {
              "internalType": "uint256",
              "name": "startDate",
              "type": "uint256"
            },
            {
              "internalType": "uint256",
              "name": "endDate",
              "type": "uint256"
            },
            {
              "internalType": "bool",
              "name": "isStarted",
              "type": "bool"
            },
            {
              "internalType": "bool",
              "name": "isCompleted",
              "type": "bool"
            },
            {
              "internalType": "bool",
              "name": "isPublic",
              "type": "bool"
            },
            {
              "internalType": "address",
              "name": "creator",
              "type": "address"
            },
            {
              "internalType": "uint256",
              "name": "totalBet",
              "type": "uint256"
            },
            {
              "internalType": "uint256",
              "name": "preFund",
              "type": "uint256"
            },
            {
              "internalType": "uint256",
              "name": "totalParticipants",
              "type": "uint256"
            },
            {
              "internalType": "uint256",
              "name": "maxParticipants",
              "type": "uint256"
            },
            {
              "internalType": "string[]",
              "name": "URI",
              "type": "string[]"
            },
            {
              "internalType": "string",
              "name": "typeTragetFreq",
              "type": "string"
            },
            {
              "internalType": "uint256",
              "name": "quantity",
              "type": "uint256"
            },
            {
              "internalType": "uint256",
              "name": "numFreq",
              "type": "uint256"
            }
          ],
          "internalType": "struct Goals.Goal[]",
          "name": "",
          "type": "tuple[]"
        }
      ],
      "stateMutability": "view",
      "type": "function"
    },
    {
      "inputs": [
        {
          "internalType": "uint256",
          "name": "_goalId",
          "type": "uint256"
        }
      ],
      "name": "getMyBets",
      "outputs": [
        {
          "internalType": "uint256",
          "name": "",
          "type": "uint256"
        }
      ],
      "stateMutability": "view",
      "type": "function"
    },
    {
      "inputs": [],
      "name": "getMyEnteredGoals",
      "outputs": [
        {
          "internalType": "uint256[]",
          "name": "",
          "type": "uint256[]"
        }
      ],
      "stateMutability": "view",
      "type": "function"
    },
    {
      "inputs": [],
      "name": "getMyGoals",
      "outputs": [
        {
          "internalType": "uint256[]",
          "name": "",
          "type": "uint256[]"
        }
      ],
      "stateMutability": "view",
      "type": "function"
    },
    {
      "inputs": [
        {
          "internalType": "uint256",
          "name": "_goalId",
          "type": "uint256"
        }
      ],
      "name": "getMyProgress",
      "outputs": [
        {
          "internalType": "uint256",
          "name": "",
          "type": "uint256"
        }
      ],
      "stateMutability": "view",
      "type": "function"
    },
    {
      "inputs": [
        {
          "internalType": "uint256",
          "name": "_goalId",
          "type": "uint256"
        }
      ],
      "name": "getParticipants",
      "outputs": [
        {
          "internalType": "address[]",
          "name": "",
          "type": "address[]"
        }
      ],
      "stateMutability": "view",
      "type": "function"
    },
    {
      "inputs": [
        {
          "internalType": "uint256",
          "name": "_goalId",
          "type": "uint256"
        },
        {
          "internalType": "address",
          "name": "_participant",
          "type": "address"
        }
      ],
      "name": "getParticipantsUri",
      "outputs": [
        {
          "internalType": "string[]",
          "name": "",
          "type": "string[]"
        }
      ],
      "stateMutability": "view",
      "type": "function"
    },
    {
      "inputs": [
        {
          "internalType": "uint256",
          "name": "",
          "type": "uint256"
        }
      ],
      "name": "goals",
      "outputs": [
        {
          "internalType": "uint256",
          "name": "id",
          "type": "uint256"
        },
        {
          "internalType": "string",
          "name": "name",
          "type": "string"
        },
        {
          "internalType": "string",
          "name": "description",
          "type": "string"
        },
        {
          "internalType": "string",
          "name": "category",
          "type": "string"
        },
        {
          "internalType": "string",
          "name": "frequency",
          "type": "string"
        },
        {
          "internalType": "uint256",
          "name": "targetFreq",
          "type": "uint256"
        },
        {
          "internalType": "uint256",
          "name": "minimumBet",
          "type": "uint256"
        },
        {
          "internalType": "uint256",
          "name": "startDate",
          "type": "uint256"
        },
        {
          "internalType": "uint256",
          "name": "endDate",
          "type": "uint256"
        },
        {
          "internalType": "bool",
          "name": "isStarted",
          "type": "bool"
        },
        {
          "internalType": "bool",
          "name": "isCompleted",
          "type": "bool"
        },
        {
          "internalType": "bool",
          "name": "isPublic",
          "type": "bool"
        },
        {
          "internalType": "address",
          "name": "creator",
          "type": "address"
        },
        {
          "internalType": "uint256",
          "name": "totalBet",
          "type": "uint256"
        },
        {
          "internalType": "uint256",
          "name": "preFund",
          "type": "uint256"
        },
        {
          "internalType": "uint256",
          "name": "totalParticipants",
          "type": "uint256"
        },
        {
          "internalType": "uint256",
          "name": "maxParticipants",
          "type": "uint256"
        },
        {
          "internalType": "string",
          "name": "typeTragetFreq",
          "type": "string"
        },
        {
          "internalType": "uint256",
          "name": "quantity",
          "type": "uint256"
        },
        {
          "internalType": "uint256",
          "name": "numFreq",
          "type": "uint256"
        }
      ],
      "stateMutability": "view",
      "type": "function"
    },
    {
      "inputs": [
        {
          "internalType": "uint256",
          "name": "",
          "type": "uint256"
        },
        {
          "internalType": "address",
          "name": "",
          "type": "address"
        }
      ],
      "name": "isParticipant",
      "outputs": [
        {
          "internalType": "bool",
          "name": "",
          "type": "bool"
        }
      ],
      "stateMutability": "view",
      "type": "function"
    },
    {
      "inputs": [
        {
          "internalType": "address",
          "name": "",
          "type": "address"
        },
        {
          "internalType": "uint256",
          "name": "",
          "type": "uint256"
        }
      ],
      "name": "myEnteredGoals",
      "outputs": [
        {
          "internalType": "uint256",
          "name": "",
          "type": "uint256"
        }
      ],
      "stateMutability": "view",
      "type": "function"
    },
    {
      "inputs": [
        {
          "internalType": "address",
          "name": "",
          "type": "address"
        },
        {
          "internalType": "uint256",
          "name": "",
          "type": "uint256"
        }
      ],
      "name": "myGoals",
      "outputs": [
        {
          "internalType": "uint256",
          "name": "",
          "type": "uint256"
        }
      ],
      "stateMutability": "view",
      "type": "function"
    },
    {
      "inputs": [],
      "name": "owner",
      "outputs": [
        {
          "internalType": "address",
          "name": "",
          "type": "address"
        }
      ],
      "stateMutability": "view",
      "type": "function"
    },
    {
      "inputs": [
        {
          "internalType": "uint256",
          "name": "",
          "type": "uint256"
        },
        {
          "internalType": "uint256",
          "name": "",
          "type": "uint256"
        }
      ],
      "name": "participants",
      "outputs": [
        {
          "internalType": "address",
          "name": "",
          "type": "address"
        }
      ],
      "stateMutability": "view",
      "type": "function"
    },
    {
      "inputs": [
        {
          "internalType": "uint256",
          "name": "",
          "type": "uint256"
        },
        {
          "internalType": "address",
          "name": "",
          "type": "address"
        }
      ],
      "name": "participantsAutenticatedFreq",
      "outputs": [
        {
          "internalType": "uint256",
          "name": "",
          "type": "uint256"
        }
      ],
      "stateMutability": "view",
      "type": "function"
    },
    {
      "inputs": [
        {
          "internalType": "uint256",
          "name": "",
          "type": "uint256"
        },
        {
          "internalType": "address",
          "name": "",
          "type": "address"
        }
      ],
      "name": "participantsFreq",
      "outputs": [
        {
          "internalType": "uint256",
          "name": "",
          "type": "uint256"
        }
      ],
      "stateMutability": "view",
      "type": "function"
    },
    {
      "inputs": [
        {
          "internalType": "uint256",
          "name": "",
          "type": "uint256"
        },
        {
          "internalType": "address",
          "name": "",
          "type": "address"
        },
        {
          "internalType": "uint256",
          "name": "",
          "type": "uint256"
        }
      ],
      "name": "participantsURI",
      "outputs": [
        {
          "internalType": "string",
          "name": "",
          "type": "string"
        }
      ],
      "stateMutability": "view",
      "type": "function"
    },
    {
      "inputs": [
        {
          "internalType": "uint256",
          "name": "_goalId",
          "type": "uint256"
        }
      ],
      "name": "startGoal",
      "outputs": [],
      "stateMutability": "nonpayable",
      "type": "function"
    },
    {
      "inputs": [],
      "name": "token",
      "outputs": [
        {
          "internalType": "contract GoalsToken",
          "name": "",
          "type": "address"
        }
      ],
      "stateMutability": "view",
      "type": "function"
    },
    {
      "inputs": [
        {
          "internalType": "uint256",
          "name": "_goalId",
          "type": "uint256"
        },
        {
          "internalType": "string",
          "name": "_imgaeURI",
          "type": "string"
        }
      ],
      "name": "updateFrequency",
      "outputs": [],
      "stateMutability": "nonpayable",
      "type": "function"
    },
    {
      "inputs": [
        {
          "internalType": "uint256",
          "name": "",
          "type": "uint256"
        },
        {
          "internalType": "address",
          "name": "",
          "type": "address"
        },
        {
          "internalType": "uint256",
          "name": "",
          "type": "uint256"
        }
      ],
      "name": "validatedURI",
      "outputs": [
        {
          "internalType": "uint256",
          "name": "",
          "type": "uint256"
        }
      ],
      "stateMutability": "view",
      "type": "function"
    }
  ],
  "bytecode": "0x60803461007c57601f6127ad38819003918201601f19168301916001600160401b038311848410176100815780849260209460405283398101031261007c57516001600160a01b0381169081900361007c5760018060a01b0319908160015416176001553390600054161760005560405161271590816100988239f35b600080fd5b634e487b7160e01b600052604160045260246000fdfe610100604052600436101561001357600080fd5b60003560e01c80630409162014611ce257806309c935c0146119d057806327130b8d1461192457806347368cf11461189957806347c0f954146118515780634fe64436146117f357806357859a281461164657806357a0225d146116015780635911fc341461159557806361449ca2146113c357806371e9abab14611379578063758d9b891461132c57806376e20e53146112ce57806381fb1fb41461128457806386d6b40f1461121d5780638da5cb5b146111f45780638e03adf314610de85780638e9e380e14610d90578063b501f4c8146106b0578063b97a7d2414610389578063c1e3bd3e146102d1578063d7a755ea14610259578063e594642c14610211578063f644b3bb146101c9578063f78d7454146101695763fc0c546a1461013b57600080fd5b34610164576000366003190112610164576001546040516001600160a01b039091168152602090f35b600080fd5b3461016457604036600319011261016457610182611f9b565b600435600052600760205260406000209060018060a01b03166000526020526101c56101b1604060002061268a565b604051918291602083526020830190612275565b0390f35b34610164576040366003190112610164576101e2611f9b565b600435600052600460205260406000209060018060a01b03166000526020526020604060002054604051908152f35b346101645760403660031901126101645761022a611f9b565b600435600052600860205260406000209060018060a01b03166000526020526020604060002054604051908152f35b3461016457600036600319011261016457336000526020600b6020526040600020906040519081602084549182815201936000526020600020916000905b8282106102ba576101c5856102ae81890382611fe3565b60405191829182612031565b835486529485019460019384019390910190610297565b34610164576020806003193601126101645760043560005260038152604060002060405190818382549182815201908192600052846000209060005b8682821061036c57868661032382880383611fe3565b604051928392818401908285525180915260408401929160005b82811061034c57505050500390f35b83516001600160a01b03168552869550938101939281019260010161033d565b83546001600160a01b03168552909301926001928301920161030d565b3461016457600036600319011261016457600280546103a781612004565b916103b56040519384611fe3565b818352602091828401809260026000527f405787fa12a823e0f2b7631cc41b3ba8828b3321ca811111fa75cd3aa3bb5ace906000925b84841061057657604080518881528951818a01819052600092600582901b83018101918a918c9085015b8287106104225785850386f35b909192938280600192603f1989820301855287519061055061053c61049a6104876104746104626102a0885188528989015190808b8a0152880190612235565b60408801518782036040890152612235565b6060808801519087830390880152612235565b6080808701519086830390870152612235565b60a0808601519085015260c0808601519085015260e085015160e08501526101008086015190850152610120808601511515908501526101408086015115159085015261016080860151151590850152610180888060a01b038187015116908501526101a080860151908501526101c080860151908501526101e080860151908501526102008086015190850152610220808601519085830390860152612275565b610240808501519084830390850152612235565b916102608082015190830152610280809101519101529601920196019592919092610415565b60128760019260409a999a5161058b81611fc7565b8654815261059a858801612190565b838201526105a9868801612190565b60408201526105ba60038801612190565b60608201526105cb60048801612190565b6080820152600587015460a0820152600687015460c0820152600787015460e08201526008808801546101008301526009880154809160ff92839182821615156101208701521c16151561014084015260109181831c161515610160840152868060a01b039060181c16610180830152600a8801546101a0830152600b8801546101c0830152600c8801546101e0830152600d880154610200830152610673600e890161268a565b610220830152610685600f8901612190565b61024083015287015461026082015260118701546102808201528152019301930192919695966103eb565b34610164576101e0366003190112610164576004356001600160401b038111610164576106e190369060040161206d565b6024356001600160401b0381116101645761070090369060040161206d565b6044356001600160401b0381116101645761071f90369060040161206d565b6064356001600160401b0381116101645761073e90369060040161206d565b610104358015158103610164576001600160401b03610164351161016457366023610164350112156101645761077a6101643560040135612004565b916107886040519384611fe3565b6101643560040135835260208301366024610164356004013560051b610164350101116101645760246101643501905b6024610164356004013560051b6101643501018210610d5e575050610184356001600160401b038111610164576107f390369060040161206d565b9360e43560c4351015610d0e5760843515610cc9576101443515610c7457835115610c37576001546040516370a0823160e01b815233600482015290602090829060249082906001600160a01b03165afa8015610b3557600090610c03575b6108629150610124351115612441565b33600052600a60205261087c6040600020600254906123ff565b600254956040519761088d89611fc7565b878952602089015260408801526060870152608086015260843560a086015260a43560c086015260c43560e086015260e43561010086015260006101208601526000610140860152151561016085015233610180850152610124356101a0850152610124356101c085015260006101e0850152610144356102008501526102208401526102408301526101a4356102608301526101c435610280830152600160401b811015610bd757806001610946920160025561211b565b919091610bed5780518255610962602082015160018401612558565b610973604082015160028401612558565b610984606082015160038401612558565b610995608082015160048401612558565b60a0810151600583015560c0810151600683015560e081015160078301556101008101516008830155600982016101208201511515815490610140840151151560081b61ff0061016086015115159362ff00006301000000600160b81b0361018089015160181b169560101b169360ff62010000600160b81b03199116169068ffffffffffffffffff60b81b1617911617171790556101a0810151600a8301556101c0810151600b8301556101e0810151600c830155610200810151600d830155610220810151805190600160401b8211610bd757600e84015482600e860155808310610b5e575b50602001600e840160005260206000206000915b838310610b415785601161028087610ab1610240820151600f8601612558565b610260810151601085015501519101556001546040516323b872dd60e01b815233600482015230602482015261012435604482015290602090829060649082906000906001600160a01b03165af18015610b3557610b0b57005b610b2c9060203d602011610b2e575b610b248183611fe3565b8101906124ce565b005b503d610b1a565b6040513d6000823e3d90fd5b6001602082610b5283945186612558565b01920192019190610a91565b600e85016000526020600020908382015b8183018110610b7f575050610a7d565b80610b8c60019254612156565b80610b99575b5001610b6f565b601f908181118414610bb2575050600081555b88610b92565b610bce60009284845260208420920160051c8201858301612541565b81835555610bac565b634e487b7160e01b600052604160045260246000fd5b634e487b7160e01b600052600060045260246000fd5b506020813d602011610c2f575b81610c1d60209383611fe3565b81010312610164576108629051610852565b3d9150610c10565b60405162461bcd60e51b8152602060048201526015602482015274555249206d757374206e6f7420626520656d70747960581b6044820152606490fd5b60405162461bcd60e51b815260206004820152602760248201527f4d6178207061727469636970616e7473206d75737420626520677265617465726044820152660207468616e20360cc1b6064820152608490fd5b60405162461bcd60e51b815260206004820152601d60248201527f546172676574206d7573742062652067726561746572207468616e20300000006044820152606490fd5b60405162461bcd60e51b815260206004820152602260248201527f53746172742064617465206d757374206265206265666f726520656e64206461604482015261746560f01b6064820152608490fd5b81356001600160401b03811161016457602091610d8583926024369161016435010161206d565b8152019101906107b8565b3461016457604036600319011261016457610da9611fb1565b6001600160a01b03166000908152600b602052604090208054602435919082101561016457602091610dda916120ed565b90546040519160031b1c8152f35b3461016457602036600319011261016457610e22610e0760043561211b565b50600901543360189190911c6001600160a01b0316146122d2565b6009610e2f60043561211b565b500154610e4460ff60089260081c161561232a565b6009610e5160043561211b565b5001805461ff0019166101001790556005610e6d60043561211b565b50015460558102908082046055149015171561104c57906005610e9160043561211b565b50015491600c610ea260043561211b565b500154916000916000906000926000915b868310610fe957505050610ee89291610ede610ee392600a610ed660043561211b565b50015461267d565b61267d565b61265d565b9160005b828110610ef557005b83906004356000526006602052604060002060039081602052610f1c8360406000206120ed565b60018060a01b03915490841b1c166000526020528360406000205414610f48575b506001915001610eec565b610faf9260209160018060a01b036001541690600435600052808452610f728560406000206120ed565b905460405163a9059cbb60e01b81526001600160a01b039290931b1c16600482015260248101929092529093849190829060009082906044820190565b03925af1918215610b3557600192610fca575b859250610f3d565b610fe29060203d602011610b2e57610b248183611fe3565b5085610fc2565b909194600435600052826020526040600020600360205261100e8760406000206120ed565b60018060a01b0391549060031b1c1660005260205260406000205488811460001461106257506001810180911161104c57600190955b019190610eb3565b634e487b7160e01b600052601160045260246000fd5b909581606484041115806111eb575b1561116057611128915060043560005260046020526040600020600360205261109e8260406000206120ed565b60018060a01b0391549060031b1c1660005260205260206110c56040600020548097612434565b9560018060a01b0360015416600435600052600383526110e98460406000206120ed565b905460405163a9059cbb60e01b815260039290921b1c6001600160a01b0316600482015260248101929092529093849190829060009082906044820190565b03925af1918215610b3557600192611141575b50611044565b6111599060203d602011610b2e57610b248183611fe3565b508961113b565b6004356000526004602052604060002060036020526111838260406000206120ed565b60018060a01b0391549060031b1c1660005260205260406000205482810292818404149015171561104c5760206111c76111c08b6111289561265d565b8098612434565b9660018060a01b0360015416600435600052600383526110e98460406000206120ed565b50888210611071565b34610164576000366003190112610164576000546040516001600160a01b039091168152602090f35b346101645761122b366120c3565b91600052600760205260406000209060018060a01b0316600052602052604060002090815481101561016457611260916120ed565b610bed576112706101c591612190565b604051918291602083526020830190612235565b34610164576112923661201b565b90600052600360205260406000208054821015610164576020916112b5916120ed565b905460405160039290921b1c6001600160a01b03168152f35b3461016457602080600319360112610164576004358060005260058252604060002033600052825261130c600160ff604060002054161515146124e6565b600052600481526040600020336000528152604060002054604051908152f35b3461016457604036600319011261016457611345611f9b565b600435600052600560205260406000209060018060a01b0316600052602052602060ff604060002054166040519015158152f35b3461016457604036600319011261016457611392611fb1565b6001600160a01b03166000908152600a602052604090208054602435919082101561016457602091610dda916120ed565b3461016457602036600319011261016457600435600254811015610164576113ea9061211b565b508054906113fa60018201612190565b60a05261140960028201612190565b60e05261141860038201612190565b61142460048301612190565b90600583015491600684015460078501546008860154600987015490600a88015492600b89015494600c8a015496600d8b015498600f8c0161146590612190565b9b6010810154608052601101549c60405160c0526102809060c051528060c0516020015260c0510160a0519061149a91612235565b60c051810360c0516040015260e051906114b391612235565b60c051810360c051606001526114c891612235565b60c051810360c051608001526114dd91612235565b9860c05160a0015260c05160c0015260c05160e0015260c051610100015260ff8116151560c05161012001528060081c60ff16151560c05161014001528060101c60ff16151560c0516101600152600160a01b600190039060181c1660c051610180015260c0516101a0015260c0516101c0015260c0516101e0015260c051610200015260c051810360c051610220015261157791612235565b9060805160c051610240015260c051610260015260c051900360c051f35b3461016457600036600319011261016457336000526020600a6020526040600020906040519081602084549182815201936000526020600020916000905b8282106115ea576101c5856102ae81890382611fe3565b8354865294850194600193840193909101906115d3565b346101645761160f366120c3565b91600052600960205260406000209060018060a01b03166000526020526040600020805482101561016457602091610dda916120ed565b34610164576040366003190112610164576004356024356001600160401b0381116101645761167990369060040161206d565b90806000526020916005835260406000203360005283526116a6600160ff604060002054161515146124e6565b6116c360ff60096116b68561211b565b50015460081c161561232a565b6116e1600160ff60096116d58661211b565b50015416151514612376565b6116f960086116ef8461211b565b50015442106123c2565b81600052600683526040600020336000528352604060002054601161171d8461211b565b5001541115611793578160005260078352604060002033600052835260406000208054600160401b811015610bd75761175b916001820181556120ed565b919091610bed5761176b91612558565b60005260068152604060002090336000525260406000208054906001820180921161104c5755005b60405162461bcd60e51b815260048101849052603260248201527f596f752068617665207265616368656420746865206d6178696d756d206e756d604482015271626572206f66206672657175656e6369657360701b6064820152608490fd5b34610164576020806003193601126101645760043580600052600582526040600020336000528252611831600160ff604060002054161515146124e6565b600052600881526040600020336000528152604060002054604051908152f35b346101645760403660031901126101645761186a611f9b565b600435600052600660205260406000209060018060a01b03166000526020526020604060002054604051908152f35b34610164576040366003190112610164576118b2611f9b565b600435600052602090600960205260406000209060018060a01b03166000526020526040600020906040519081602084549182815201936000526020600020916000905b82821061190d576101c5856102ae81890382611fe3565b8354865294850194600193840193909101906118f6565b3461016457602036600319011261016457600435611944610e078261211b565b61195e60ff60096119548461211b565b5001541615612482565b600c6119698261211b565b5001541561198b5761197c60099161211b565b5001805460ff19166001179055005b60405162461bcd60e51b815260206004820152601c60248201527f4e6f207061727469636970616e747320696e207468697320676f616c000000006044820152606490fd5b34610164576119de3661201b565b9060066119ea8261211b565b5001548210611c91576001546040516370a0823160e01b81523360048201526001600160a01b039360209290919083908290602490829089165afa8015610b35578290600090611c60575b611a4192501015612441565b600c611a4c8461211b565b500154600d611a5a8561211b565b5001541115611c2c57611a7360ff60096116b68661211b565b8260005260058252604060002033600052825260ff60406000205416611bdc57611aa360ff60096119548661211b565b8260005260048252604060002033600052825280604060002055600a611ac88461211b565b5001611ad5828254612434565b9055600c611ae28461211b565b50018054906001820180921161104c57558260005260038252604060002090815490600160401b821015610bd757600095611b278386956001611b98960181556120ed565b81549060031b908333831b921b19161790558587526005845260408720338852845260408720600160ff1982541617905560015416906040519687809481936323b872dd60e01b835230336004850160409194939294606082019560018060a01b0380921683521660208201520152565b03925af1908115610b3557610b2c93600b92611bbf575b50336000525260406000206123ff565b611bd590823d8411610b2e57610b248183611fe3565b5084611baf565b60405162461bcd60e51b815260048101839052602260248201527f596f75206861766520616c726561647920656e7465726564207468697320676f604482015261185b60f21b6064820152608490fd5b60405162461bcd60e51b815260048101839052600c60248201526b11dbd85b081a5cc8199d5b1b60a21b6044820152606490fd5b50508281813d8311611c8a575b611c778183611fe3565b810103126101645781611a419151611a35565b503d611c6d565b60405162461bcd60e51b8152602060048201526024808201527f426574206d7573742062652067726561746572207468616e206d696e696d756d6044820152630818995d60e21b6064820152608490fd5b3461016457608036600319011261016457600435611cfe611f9b565b90606435906001600160401b03821161016457366023830112156101645781600401356024611d2c82612004565b90611d3a6040519283611fe3565b828252602094858301602460059560051b83010191368311610164576024889101915b838310611f8b5750505050611d718461211b565b509160018060a01b038060098095015460181c1633148015611f7e575b611d97906122d2565b85600052600587526040600020971696876000528652600192600160ff60406000205416151503611f2357611dd260ff60096116b68961211b565b611de4600160ff60096116d58a61211b565b611df260086116ef8861211b565b856000526008875260406000208860005287526040600020546011611e168861211b565b5001541115611eb8576000845b611e52575b88888860005260088152604060002091600052526040600020611e4e6044358254612434565b9055005b8251811015611eb35786600052818852604060002089600052885260406000208351821015611e9e5781611e948796959493928b88948b1b87010151906123ff565b0190919293611e23565b84634e487b7160e01b60005260326004526000fd5b611e28565b60405162461bcd60e51b815260048101889052603e60248201527f54686973207061727469636970616e742068617320726561636865642074686560448201527f206d6178696d756d206e756d626572206f66206672657175656e6369657300006064820152608490fd5b60405162461bcd60e51b815260048101889052602d60248201527f5468652061646472657373206973206e6f742061207061727469636970616e7460448201526c081bd9881d1a1a5cc819dbd85b609a1b6064820152608490fd5b5060005481163314611d8e565b8235815291810191889101611d5d565b602435906001600160a01b038216820361016457565b600435906001600160a01b038216820361016457565b6102a081019081106001600160401b03821117610bd757604052565b90601f801991011681019081106001600160401b03821117610bd757604052565b6001600160401b038111610bd75760051b60200190565b6040906003190112610164576004359060243590565b602090602060408183019282815285518094520193019160005b828110612059575050505090565b83518552938101939281019260010161204b565b81601f82011215610164578035906001600160401b038211610bd757604051926120a1601f8401601f191660200185611fe3565b8284526020838301011161016457816000926020809301838601378301015290565b606090600319011261016457600435906024356001600160a01b0381168103610164579060443590565b80548210156121055760005260206000200190600090565b634e487b7160e01b600052603260045260246000fd5b600254811015612105576012906002600052027f405787fa12a823e0f2b7631cc41b3ba8828b3321ca811111fa75cd3aa3bb5ace0190600090565b90600182811c92168015612186575b602083101461217057565b634e487b7160e01b600052602260045260246000fd5b91607f1691612165565b906040519182600082546121a381612156565b9081845260209460019160018116908160001461221357506001146121d4575b5050506121d292500383611fe3565b565b600090815285812095935091905b8183106121fb5750506121d293508201013880806121c3565b855488840185015294850194879450918301916121e2565b925050506121d294925060ff191682840152151560051b8201013880806121c3565b919082519283825260005b848110612261575050826000602080949584010152601f8019910116010190565b602081830181015184830182015201612240565b90808251908181526020809101926020808460051b8301019501936000915b8483106122a45750505050505090565b90919293949584806122c2600193601f198682030187528a51612235565b9801930193019194939290612294565b156122d957565b60405162461bcd60e51b8152602060048201526024808201527f596f7520617265206e6f74207468652063726561746f72206f6620746869732060448201526319dbd85b60e21b6064820152608490fd5b1561233157565b60405162461bcd60e51b815260206004820152601f60248201527f476f616c2068617320616c7265616479206265656e20636f6d706c65746564006044820152606490fd5b1561237d57565b60405162461bcd60e51b815260206004820152601860248201527f476f616c20686173206e6f7420737461727465642079657400000000000000006044820152606490fd5b156123c957565b60405162461bcd60e51b815260206004820152600e60248201526d11dbd85b081a185cc8195b99195960921b6044820152606490fd5b8054600160401b811015610bd75761241c916001820181556120ed565b819291549060031b91821b91600019901b1916179055565b9190820180921161104c57565b1561244857565b60405162461bcd60e51b8152602060048201526012602482015271496e73756666696369656e742066756e647360701b6044820152606490fd5b1561248957565b60405162461bcd60e51b815260206004820152601860248201527f476f616c2068617320616c7265616479207374617274656400000000000000006044820152606490fd5b90816020910312610164575180151581036101645790565b156124ed57565b60405162461bcd60e51b815260206004820152602660248201527f596f7520617265206e6f742061207061727469636970616e74206f66207468696044820152651cc819dbd85b60d21b6064820152608490fd5b81811061254c575050565b60008155600101612541565b91909182516001600160401b038111610bd7576125758254612156565b601f8111612620575b50602080601f83116001146125bb5750819293946000926125b0575b50508160011b916000199060031b1c1916179055565b01519050388061259a565b90601f19831695846000526020600020926000905b888210612608575050836001959697106125ef575b505050811b019055565b015160001960f88460031b161c191690553880806125e5565b806001859682949686015181550195019301906125d0565b61264d90836000526020600020601f840160051c81019160208510612653575b601f0160051c0190612541565b3861257e565b9091508190612640565b8115612667570490565b634e487b7160e01b600052601260045260246000fd5b9190820391821161104c57565b90815461269681612004565b926126a46040519485611fe3565b818452600090815260208082208186015b8484106126c3575050505050565b60018381926126d185612190565b8152019201930192906126b556fea26469706673582212208aad94dba4bf5f58891f24b893c41dbb4a4e215931cd88579036b7c939bf633364736f6c63430008180033",
  "linkReferences": {},
  "deployedLinkReferences": {}
}