{
  "_format": "hh-sol-artifact-1",
  "contractName": "Goals",
  "sourceName": "contracts/Goals.sol",
  "abi": [
    {
      "inputs": [
        {
          "internalType": "address",
          "name": "_goalsTokenAddr",
          "type": "address"
        }
      ],
      "stateMutability": "nonpayable",
      "type": "constructor"
    },
    {
      "inputs": [
        {
          "internalType": "uint256",
          "name": "_goalId",
          "type": "uint256"
        },
        {
          "internalType": "address",
          "name": "_participant",
          "type": "address"
        },
        {
          "internalType": "uint256",
          "name": "_number",
          "type": "uint256"
        },
        {
          "internalType": "uint256[]",
          "name": "_uriIndex",
          "type": "uint256[]"
        }
      ],
      "name": "autenticateFrequency",
      "outputs": [],
      "stateMutability": "nonpayable",
      "type": "function"
    },
    {
      "inputs": [
        {
          "internalType": "uint256",
          "name": "",
          "type": "uint256"
        },
        {
          "internalType": "address",
          "name": "",
          "type": "address"
        }
      ],
      "name": "bets",
      "outputs": [
        {
          "internalType": "uint256",
          "name": "",
          "type": "uint256"
        }
      ],
      "stateMutability": "view",
      "type": "function"
    },
    {
      "inputs": [
        {
          "internalType": "address",
          "name": "_newOwner",
          "type": "address"
        }
      ],
      "name": "changeOwner",
      "outputs": [],
      "stateMutability": "nonpayable",
      "type": "function"
    },
    {
      "inputs": [
        {
          "internalType": "uint256",
          "name": "_goalId",
          "type": "uint256"
        }
      ],
      "name": "completeGoal",
      "outputs": [],
      "stateMutability": "nonpayable",
      "type": "function"
    },
    {
      "inputs": [
        {
          "internalType": "string",
          "name": "_name",
          "type": "string"
        },
        {
          "internalType": "string",
          "name": "_description",
          "type": "string"
        },
        {
          "internalType": "string",
          "name": "_category",
          "type": "string"
        },
        {
          "internalType": "string",
          "name": "_frequency",
          "type": "string"
        },
        {
          "internalType": "uint256",
          "name": "_target",
          "type": "uint256"
        },
        {
          "internalType": "uint256",
          "name": "_minimumBet",
          "type": "uint256"
        },
        {
          "internalType": "uint256",
          "name": "_startDate",
          "type": "uint256"
        },
        {
          "internalType": "uint256",
          "name": "_endDate",
          "type": "uint256"
        },
        {
          "internalType": "bool",
          "name": "_isPublic",
          "type": "bool"
        },
        {
          "internalType": "uint256",
          "name": "_preFund",
          "type": "uint256"
        },
        {
          "internalType": "uint256",
          "name": "_maxParticipants",
          "type": "uint256"
        },
        {
          "internalType": "string[]",
          "name": "_URI",
          "type": "string[]"
        },
        {
          "internalType": "string",
          "name": "_typeTragetFreq",
          "type": "string"
        },
        {
          "internalType": "uint256",
          "name": "_quantity",
          "type": "uint256"
        },
        {
          "internalType": "uint256",
          "name": "_numFreq",
          "type": "uint256"
        }
      ],
      "name": "createGoal",
      "outputs": [],
      "stateMutability": "nonpayable",
      "type": "function"
    },
    {
      "inputs": [
        {
          "internalType": "uint256",
          "name": "_goalId",
          "type": "uint256"
        },
        {
          "internalType": "uint256",
          "name": "_bet",
          "type": "uint256"
        }
      ],
      "name": "enterGoal",
      "outputs": [],
      "stateMutability": "nonpayable",
      "type": "function"
    },
    {
      "inputs": [
        {
          "internalType": "uint256",
          "name": "_goalId",
          "type": "uint256"
        },
        {
          "internalType": "address",
          "name": "_participant",
          "type": "address"
        }
      ],
      "name": "getAutenticatedUri",
      "outputs": [
        {
          "internalType": "uint256[]",
          "name": "",
          "type": "uint256[]"
        }
      ],
      "stateMutability": "view",
      "type": "function"
    },
    {
      "inputs": [],
      "name": "getGoal",
      "outputs": [
        {
          "components": [
            {
              "internalType": "uint256",
              "name": "id",
              "type": "uint256"
            },
            {
              "internalType": "string",
              "name": "name",
              "type": "string"
            },
            {
              "internalType": "string",
              "name": "description",
              "type": "string"
            },
            {
              "internalType": "string",
              "name": "category",
              "type": "string"
            },
            {
              "internalType": "string",
              "name": "frequency",
              "type": "string"
            },
            {
              "internalType": "uint256",
              "name": "targetFreq",
              "type": "uint256"
            },
            {
              "internalType": "uint256",
              "name": "minimumBet",
              "type": "uint256"
            },
            {
              "internalType": "uint256",
              "name": "startDate",
              "type": "uint256"
            },
            {
              "internalType": "uint256",
              "name": "endDate",
              "type": "uint256"
            },
            {
              "internalType": "bool",
              "name": "isStarted",
              "type": "bool"
            },
            {
              "internalType": "bool",
              "name": "isCompleted",
              "type": "bool"
            },
            {
              "internalType": "bool",
              "name": "isPublic",
              "type": "bool"
            },
            {
              "internalType": "address",
              "name": "creator",
              "type": "address"
            },
            {
              "internalType": "uint256",
              "name": "totalBet",
              "type": "uint256"
            },
            {
              "internalType": "uint256",
              "name": "preFund",
              "type": "uint256"
            },
            {
              "internalType": "uint256",
              "name": "totalParticipants",
              "type": "uint256"
            },
            {
              "internalType": "uint256",
              "name": "maxParticipants",
              "type": "uint256"
            },
            {
              "internalType": "string[]",
              "name": "URI",
              "type": "string[]"
            },
            {
              "internalType": "string",
              "name": "typeTragetFreq",
              "type": "string"
            },
            {
              "internalType": "uint256",
              "name": "quantity",
              "type": "uint256"
            },
            {
              "internalType": "uint256",
              "name": "numFreq",
              "type": "uint256"
            }
          ],
          "internalType": "struct Goals.Goal[]",
          "name": "",
          "type": "tuple[]"
        }
      ],
      "stateMutability": "view",
      "type": "function"
    },
    {
      "inputs": [
        {
          "internalType": "uint256",
          "name": "_goalId",
          "type": "uint256"
        }
      ],
      "name": "getMyBets",
      "outputs": [
        {
          "internalType": "uint256",
          "name": "",
          "type": "uint256"
        }
      ],
      "stateMutability": "view",
      "type": "function"
    },
    {
      "inputs": [],
      "name": "getMyEnteredGoals",
      "outputs": [
        {
          "internalType": "uint256[]",
          "name": "",
          "type": "uint256[]"
        }
      ],
      "stateMutability": "view",
      "type": "function"
    },
    {
      "inputs": [],
      "name": "getMyGoals",
      "outputs": [
        {
          "internalType": "uint256[]",
          "name": "",
          "type": "uint256[]"
        }
      ],
      "stateMutability": "view",
      "type": "function"
    },
    {
      "inputs": [
        {
          "internalType": "uint256",
          "name": "_goalId",
          "type": "uint256"
        }
      ],
      "name": "getMyProgress",
      "outputs": [
        {
          "internalType": "uint256",
          "name": "",
          "type": "uint256"
        }
      ],
      "stateMutability": "view",
      "type": "function"
    },
    {
      "inputs": [
        {
          "internalType": "uint256",
          "name": "_goalId",
          "type": "uint256"
        }
      ],
      "name": "getParticipants",
      "outputs": [
        {
          "internalType": "address[]",
          "name": "",
          "type": "address[]"
        }
      ],
      "stateMutability": "view",
      "type": "function"
    },
    {
      "inputs": [
        {
          "internalType": "uint256",
          "name": "_goalId",
          "type": "uint256"
        },
        {
          "internalType": "address",
          "name": "_participant",
          "type": "address"
        }
      ],
      "name": "getParticipantsUri",
      "outputs": [
        {
          "internalType": "string[]",
          "name": "",
          "type": "string[]"
        }
      ],
      "stateMutability": "view",
      "type": "function"
    },
    {
      "inputs": [
        {
          "internalType": "uint256",
          "name": "",
          "type": "uint256"
        }
      ],
      "name": "goals",
      "outputs": [
        {
          "internalType": "uint256",
          "name": "id",
          "type": "uint256"
        },
        {
          "internalType": "string",
          "name": "name",
          "type": "string"
        },
        {
          "internalType": "string",
          "name": "description",
          "type": "string"
        },
        {
          "internalType": "string",
          "name": "category",
          "type": "string"
        },
        {
          "internalType": "string",
          "name": "frequency",
          "type": "string"
        },
        {
          "internalType": "uint256",
          "name": "targetFreq",
          "type": "uint256"
        },
        {
          "internalType": "uint256",
          "name": "minimumBet",
          "type": "uint256"
        },
        {
          "internalType": "uint256",
          "name": "startDate",
          "type": "uint256"
        },
        {
          "internalType": "uint256",
          "name": "endDate",
          "type": "uint256"
        },
        {
          "internalType": "bool",
          "name": "isStarted",
          "type": "bool"
        },
        {
          "internalType": "bool",
          "name": "isCompleted",
          "type": "bool"
        },
        {
          "internalType": "bool",
          "name": "isPublic",
          "type": "bool"
        },
        {
          "internalType": "address",
          "name": "creator",
          "type": "address"
        },
        {
          "internalType": "uint256",
          "name": "totalBet",
          "type": "uint256"
        },
        {
          "internalType": "uint256",
          "name": "preFund",
          "type": "uint256"
        },
        {
          "internalType": "uint256",
          "name": "totalParticipants",
          "type": "uint256"
        },
        {
          "internalType": "uint256",
          "name": "maxParticipants",
          "type": "uint256"
        },
        {
          "internalType": "string",
          "name": "typeTragetFreq",
          "type": "string"
        },
        {
          "internalType": "uint256",
          "name": "quantity",
          "type": "uint256"
        },
        {
          "internalType": "uint256",
          "name": "numFreq",
          "type": "uint256"
        }
      ],
      "stateMutability": "view",
      "type": "function"
    },
    {
      "inputs": [
        {
          "internalType": "uint256",
          "name": "",
          "type": "uint256"
        },
        {
          "internalType": "address",
          "name": "",
          "type": "address"
        }
      ],
      "name": "isParticipant",
      "outputs": [
        {
          "internalType": "bool",
          "name": "",
          "type": "bool"
        }
      ],
      "stateMutability": "view",
      "type": "function"
    },
    {
      "inputs": [
        {
          "internalType": "address",
          "name": "",
          "type": "address"
        },
        {
          "internalType": "uint256",
          "name": "",
          "type": "uint256"
        }
      ],
      "name": "myEnteredGoals",
      "outputs": [
        {
          "internalType": "uint256",
          "name": "",
          "type": "uint256"
        }
      ],
      "stateMutability": "view",
      "type": "function"
    },
    {
      "inputs": [
        {
          "internalType": "address",
          "name": "",
          "type": "address"
        },
        {
          "internalType": "uint256",
          "name": "",
          "type": "uint256"
        }
      ],
      "name": "myGoals",
      "outputs": [
        {
          "internalType": "uint256",
          "name": "",
          "type": "uint256"
        }
      ],
      "stateMutability": "view",
      "type": "function"
    },
    {
      "inputs": [],
      "name": "owner",
      "outputs": [
        {
          "internalType": "address",
          "name": "",
          "type": "address"
        }
      ],
      "stateMutability": "view",
      "type": "function"
    },
    {
      "inputs": [
        {
          "internalType": "uint256",
          "name": "",
          "type": "uint256"
        },
        {
          "internalType": "uint256",
          "name": "",
          "type": "uint256"
        }
      ],
      "name": "participants",
      "outputs": [
        {
          "internalType": "address",
          "name": "",
          "type": "address"
        }
      ],
      "stateMutability": "view",
      "type": "function"
    },
    {
      "inputs": [
        {
          "internalType": "uint256",
          "name": "",
          "type": "uint256"
        },
        {
          "internalType": "address",
          "name": "",
          "type": "address"
        }
      ],
      "name": "participantsAutenticatedFreq",
      "outputs": [
        {
          "internalType": "uint256",
          "name": "",
          "type": "uint256"
        }
      ],
      "stateMutability": "view",
      "type": "function"
    },
    {
      "inputs": [
        {
          "internalType": "uint256",
          "name": "",
          "type": "uint256"
        },
        {
          "internalType": "address",
          "name": "",
          "type": "address"
        }
      ],
      "name": "participantsFreq",
      "outputs": [
        {
          "internalType": "uint256",
          "name": "",
          "type": "uint256"
        }
      ],
      "stateMutability": "view",
      "type": "function"
    },
    {
      "inputs": [
        {
          "internalType": "uint256",
          "name": "",
          "type": "uint256"
        },
        {
          "internalType": "address",
          "name": "",
          "type": "address"
        },
        {
          "internalType": "uint256",
          "name": "",
          "type": "uint256"
        }
      ],
      "name": "participantsURI",
      "outputs": [
        {
          "internalType": "string",
          "name": "",
          "type": "string"
        }
      ],
      "stateMutability": "view",
      "type": "function"
    },
    {
      "inputs": [
        {
          "internalType": "uint256",
          "name": "_goalId",
          "type": "uint256"
        }
      ],
      "name": "startGoal",
      "outputs": [],
      "stateMutability": "nonpayable",
      "type": "function"
    },
    {
      "inputs": [],
      "name": "token",
      "outputs": [
        {
          "internalType": "contract GoalsToken",
          "name": "",
          "type": "address"
        }
      ],
      "stateMutability": "view",
      "type": "function"
    },
    {
      "inputs": [
        {
          "internalType": "uint256",
          "name": "_goalId",
          "type": "uint256"
        },
        {
          "internalType": "string",
          "name": "_imgaeURI",
          "type": "string"
        }
      ],
      "name": "updateFrequency",
      "outputs": [],
      "stateMutability": "nonpayable",
      "type": "function"
    },
    {
      "inputs": [
        {
          "internalType": "uint256",
          "name": "",
          "type": "uint256"
        },
        {
          "internalType": "address",
          "name": "",
          "type": "address"
        },
        {
          "internalType": "uint256",
          "name": "",
          "type": "uint256"
        }
      ],
      "name": "validatedURI",
      "outputs": [
        {
          "internalType": "uint256",
          "name": "",
          "type": "uint256"
        }
      ],
      "stateMutability": "view",
      "type": "function"
    }
  ],
  "bytecode": "0x60803461007c57601f61283838819003918201601f19168301916001600160401b038311848410176100815780849260209460405283398101031261007c57516001600160a01b0381169081900361007c5760018060a01b031990816001541617600155339060005416176000556040516127a090816100988239f35b600080fd5b634e487b7160e01b600052604160045260246000fdfe610100604052600436101561001357600080fd5b60003560e01c80630409162014611d6d57806309c935c014611a5b57806327130b8d146119af57806347368cf11461192457806347c0f954146118dc5780634fe644361461187e57806357859a28146116d157806357a0225d1461168c5780635911fc341461162057806361449ca21461144e57806371e9abab14611404578063758d9b89146113b757806376e20e531461135957806381fb1fb41461130f57806386d6b40f146112a85780638da5cb5b1461127f5780638e03adf314610e735780638e9e380e14610e1b578063a6f9dae114610d9b578063b501f4c8146106bb578063b97a7d2414610394578063c1e3bd3e146102dc578063d7a755ea14610264578063e594642c1461021c578063f644b3bb146101d4578063f78d7454146101745763fc0c546a1461014657600080fd5b3461016f57600036600319011261016f576001546040516001600160a01b039091168152602090f35b600080fd5b3461016f57604036600319011261016f5761018d612026565b600435600052600760205260406000209060018060a01b03166000526020526101d06101bc6040600020612715565b604051918291602083526020830190612300565b0390f35b3461016f57604036600319011261016f576101ed612026565b600435600052600460205260406000209060018060a01b03166000526020526020604060002054604051908152f35b3461016f57604036600319011261016f57610235612026565b600435600052600860205260406000209060018060a01b03166000526020526020604060002054604051908152f35b3461016f57600036600319011261016f57336000526020600b6020526040600020906040519081602084549182815201936000526020600020916000905b8282106102c5576101d0856102b98189038261206e565b604051918291826120bc565b8354865294850194600193840193909101906102a2565b3461016f5760208060031936011261016f5760043560005260038152604060002060405190818382549182815201908192600052846000209060005b8682821061037757868661032e8288038361206e565b604051928392818401908285525180915260408401929160005b82811061035757505050500390f35b83516001600160a01b031685528695509381019392810192600101610348565b83546001600160a01b031685529093019260019283019201610318565b3461016f57600036600319011261016f57600280546103b28161208f565b916103c0604051938461206e565b818352602091828401809260026000527f405787fa12a823e0f2b7631cc41b3ba8828b3321ca811111fa75cd3aa3bb5ace906000925b84841061058157604080518881528951818a01819052600092600582901b83018101918a918c9085015b82871061042d5785850386f35b909192938280600192603f1989820301855287519061055b6105476104a561049261047f61046d6102a0885188528989015190808b8a01528801906122c0565b604088015187820360408901526122c0565b60608088015190878303908801526122c0565b60808087015190868303908701526122c0565b60a0808601519085015260c0808601519085015260e085015160e08501526101008086015190850152610120808601511515908501526101408086015115159085015261016080860151151590850152610180888060a01b038187015116908501526101a080860151908501526101c080860151908501526101e080860151908501526102008086015190850152610220808601519085830390860152612300565b6102408085015190848303908501526122c0565b916102608082015190830152610280809101519101529601920196019592919092610420565b60128760019260409a999a5161059681612052565b865481526105a585880161221b565b838201526105b486880161221b565b60408201526105c56003880161221b565b60608201526105d66004880161221b565b6080820152600587015460a0820152600687015460c0820152600787015460e08201526008808801546101008301526009880154809160ff92839182821615156101208701521c16151561014084015260109181831c161515610160840152868060a01b039060181c16610180830152600a8801546101a0830152600b8801546101c0830152600c8801546101e0830152600d88015461020083015261067e600e8901612715565b610220830152610690600f890161221b565b61024083015287015461026082015260118701546102808201528152019301930192919695966103f6565b3461016f576101e036600319011261016f576004356001600160401b03811161016f576106ec9036906004016120f8565b6024356001600160401b03811161016f5761070b9036906004016120f8565b6044356001600160401b03811161016f5761072a9036906004016120f8565b6064356001600160401b03811161016f576107499036906004016120f8565b61010435801515810361016f576001600160401b03610164351161016f573660236101643501121561016f57610785610164356004013561208f565b91610793604051938461206e565b6101643560040135835260208301366024610164356004013560051b6101643501011161016f5760246101643501905b6024610164356004013560051b6101643501018210610d69575050610184356001600160401b03811161016f576107fe9036906004016120f8565b9360e43560c4351015610d195760843515610cd4576101443515610c7f57835115610c42576001546040516370a0823160e01b815233600482015290602090829060249082906001600160a01b03165afa8015610b4057600090610c0e575b61086d91506101243511156124cc565b33600052600a60205261088760406000206002549061248a565b600254956040519761089889612052565b878952602089015260408801526060870152608086015260843560a086015260a43560c086015260c43560e086015260e43561010086015260006101208601526000610140860152151561016085015233610180850152610124356101a0850152610124356101c085015260006101e0850152610144356102008501526102208401526102408301526101a4356102608301526101c435610280830152600160401b811015610be25780600161095192016002556121a6565b919091610bf8578051825561096d6020820151600184016125e3565b61097e6040820151600284016125e3565b61098f6060820151600384016125e3565b6109a06080820151600484016125e3565b60a0810151600583015560c0810151600683015560e081015160078301556101008101516008830155600982016101208201511515815490610140840151151560081b61ff0061016086015115159362ff00006301000000600160b81b0361018089015160181b169560101b169360ff62010000600160b81b03199116169068ffffffffffffffffff60b81b1617911617171790556101a0810151600a8301556101c0810151600b8301556101e0810151600c830155610200810151600d830155610220810151805190600160401b8211610be257600e84015482600e860155808310610b69575b50602001600e840160005260206000206000915b838310610b4c5785601161028087610abc610240820151600f86016125e3565b610260810151601085015501519101556001546040516323b872dd60e01b815233600482015230602482015261012435604482015290602090829060649082906000906001600160a01b03165af18015610b4057610b1657005b610b379060203d602011610b39575b610b2f818361206e565b810190612559565b005b503d610b25565b6040513d6000823e3d90fd5b6001602082610b5d839451866125e3565b01920192019190610a9c565b600e85016000526020600020908382015b8183018110610b8a575050610a88565b80610b97600192546121e1565b80610ba4575b5001610b7a565b601f908181118414610bbd575050600081555b88610b9d565b610bd960009284845260208420920160051c82018583016125cc565b81835555610bb7565b634e487b7160e01b600052604160045260246000fd5b634e487b7160e01b600052600060045260246000fd5b506020813d602011610c3a575b81610c286020938361206e565b8101031261016f5761086d905161085d565b3d9150610c1b565b60405162461bcd60e51b8152602060048201526015602482015274555249206d757374206e6f7420626520656d70747960581b6044820152606490fd5b60405162461bcd60e51b815260206004820152602760248201527f4d6178207061727469636970616e7473206d75737420626520677265617465726044820152660207468616e20360cc1b6064820152608490fd5b60405162461bcd60e51b815260206004820152601d60248201527f546172676574206d7573742062652067726561746572207468616e20300000006044820152606490fd5b60405162461bcd60e51b815260206004820152602260248201527f53746172742064617465206d757374206265206265666f726520656e64206461604482015261746560f01b6064820152608490fd5b81356001600160401b03811161016f57602091610d908392602436916101643501016120f8565b8152019101906107c3565b3461016f57602036600319011261016f57610db461203c565b600054906001600160a01b03908183163303610dde576001600160a01b0319909216911617600055005b60405162461bcd60e51b81526020600482015260156024820152742cb7ba9030b932903737ba103a34329037bbb732b960591b6044820152606490fd5b3461016f57604036600319011261016f57610e3461203c565b6001600160a01b03166000908152600b602052604090208054602435919082101561016f57602091610e6591612178565b90546040519160031b1c8152f35b3461016f57602036600319011261016f57610ead610e926004356121a6565b50600901543360189190911c6001600160a01b03161461235d565b6009610eba6004356121a6565b500154610ecf60ff60089260081c16156123b5565b6009610edc6004356121a6565b5001805461ff0019166101001790556005610ef86004356121a6565b5001546055810290808204605514901517156110d757906005610f1c6004356121a6565b50015491600c610f2d6004356121a6565b500154916000916000906000926000915b86831061107457505050610f739291610f69610f6e92600a610f616004356121a6565b500154612708565b612708565b6126e8565b9160005b828110610f8057005b83906004356000526006602052604060002060039081602052610fa7836040600020612178565b60018060a01b03915490841b1c166000526020528360406000205414610fd3575b506001915001610f77565b61103a9260209160018060a01b036001541690600435600052808452610ffd856040600020612178565b905460405163a9059cbb60e01b81526001600160a01b039290931b1c16600482015260248101929092529093849190829060009082906044820190565b03925af1918215610b4057600192611055575b859250610fc8565b61106d9060203d602011610b3957610b2f818361206e565b508561104d565b9091946004356000528260205260406000206003602052611099876040600020612178565b60018060a01b0391549060031b1c166000526020526040600020548881146000146110ed5750600181018091116110d757600190955b019190610f3e565b634e487b7160e01b600052601160045260246000fd5b90958160648404111580611276575b156111eb576111b39150600435600052600460205260406000206003602052611129826040600020612178565b60018060a01b0391549060031b1c16600052602052602061115060406000205480976124bf565b9560018060a01b036001541660043560005260038352611174846040600020612178565b905460405163a9059cbb60e01b815260039290921b1c6001600160a01b0316600482015260248101929092529093849190829060009082906044820190565b03925af1918215610b40576001926111cc575b506110cf565b6111e49060203d602011610b3957610b2f818361206e565b50896111c6565b60043560005260046020526040600020600360205261120e826040600020612178565b60018060a01b0391549060031b1c166000526020526040600020548281029281840414901517156110d757602061125261124b8b6111b3956126e8565b80986124bf565b9660018060a01b036001541660043560005260038352611174846040600020612178565b508882106110fc565b3461016f57600036600319011261016f576000546040516001600160a01b039091168152602090f35b3461016f576112b63661214e565b91600052600760205260406000209060018060a01b0316600052602052604060002090815481101561016f576112eb91612178565b610bf8576112fb6101d09161221b565b6040519182916020835260208301906122c0565b3461016f5761131d366120a6565b9060005260036020526040600020805482101561016f5760209161134091612178565b905460405160039290921b1c6001600160a01b03168152f35b3461016f5760208060031936011261016f5760043580600052600582526040600020336000528252611397600160ff60406000205416151514612571565b600052600481526040600020336000528152604060002054604051908152f35b3461016f57604036600319011261016f576113d0612026565b600435600052600560205260406000209060018060a01b0316600052602052602060ff604060002054166040519015158152f35b3461016f57604036600319011261016f5761141d61203c565b6001600160a01b03166000908152600a602052604090208054602435919082101561016f57602091610e6591612178565b3461016f57602036600319011261016f5760043560025481101561016f57611475906121a6565b508054906114856001820161221b565b60a0526114946002820161221b565b60e0526114a36003820161221b565b6114af6004830161221b565b90600583015491600684015460078501546008860154600987015490600a88015492600b89015494600c8a015496600d8b015498600f8c016114f09061221b565b9b6010810154608052601101549c60405160c0526102809060c051528060c0516020015260c0510160a05190611525916122c0565b60c051810360c0516040015260e0519061153e916122c0565b60c051810360c05160600152611553916122c0565b60c051810360c05160800152611568916122c0565b9860c05160a0015260c05160c0015260c05160e0015260c051610100015260ff8116151560c05161012001528060081c60ff16151560c05161014001528060101c60ff16151560c0516101600152600160a01b600190039060181c1660c051610180015260c0516101a0015260c0516101c0015260c0516101e0015260c051610200015260c051810360c0516102200152611602916122c0565b9060805160c051610240015260c051610260015260c051900360c051f35b3461016f57600036600319011261016f57336000526020600a6020526040600020906040519081602084549182815201936000526020600020916000905b828210611675576101d0856102b98189038261206e565b83548652948501946001938401939091019061165e565b3461016f5761169a3661214e565b91600052600960205260406000209060018060a01b03166000526020526040600020805482101561016f57602091610e6591612178565b3461016f57604036600319011261016f576004356024356001600160401b03811161016f576117049036906004016120f8565b9080600052602091600583526040600020336000528352611731600160ff60406000205416151514612571565b61174e60ff6009611741856121a6565b50015460081c16156123b5565b61176c600160ff6009611760866121a6565b50015416151514612401565b611784600861177a846121a6565b500154421061244d565b8160005260068352604060002033600052835260406000205460116117a8846121a6565b500154111561181e578160005260078352604060002033600052835260406000208054600160401b811015610be2576117e691600182018155612178565b919091610bf8576117f6916125e3565b6000526006815260406000209033600052526040600020805490600182018092116110d75755005b60405162461bcd60e51b815260048101849052603260248201527f596f752068617665207265616368656420746865206d6178696d756d206e756d604482015271626572206f66206672657175656e6369657360701b6064820152608490fd5b3461016f5760208060031936011261016f57600435806000526005825260406000203360005282526118bc600160ff60406000205416151514612571565b600052600881526040600020336000528152604060002054604051908152f35b3461016f57604036600319011261016f576118f5612026565b600435600052600660205260406000209060018060a01b03166000526020526020604060002054604051908152f35b3461016f57604036600319011261016f5761193d612026565b600435600052602090600960205260406000209060018060a01b03166000526020526040600020906040519081602084549182815201936000526020600020916000905b828210611998576101d0856102b98189038261206e565b835486529485019460019384019390910190611981565b3461016f57602036600319011261016f576004356119cf610e92826121a6565b6119e960ff60096119df846121a6565b500154161561250d565b600c6119f4826121a6565b50015415611a1657611a076009916121a6565b5001805460ff19166001179055005b60405162461bcd60e51b815260206004820152601c60248201527f4e6f207061727469636970616e747320696e207468697320676f616c000000006044820152606490fd5b3461016f57611a69366120a6565b906006611a75826121a6565b5001548210611d1c576001546040516370a0823160e01b81523360048201526001600160a01b039360209290919083908290602490829089165afa8015610b40578290600090611ceb575b611acc925010156124cc565b600c611ad7846121a6565b500154600d611ae5856121a6565b5001541115611cb757611afe60ff6009611741866121a6565b8260005260058252604060002033600052825260ff60406000205416611c6757611b2e60ff60096119df866121a6565b8260005260048252604060002033600052825280604060002055600a611b53846121a6565b5001611b608282546124bf565b9055600c611b6d846121a6565b5001805490600182018092116110d757558260005260038252604060002090815490600160401b821015610be257600095611bb28386956001611c2396018155612178565b81549060031b908333831b921b19161790558587526005845260408720338852845260408720600160ff1982541617905560015416906040519687809481936323b872dd60e01b835230336004850160409194939294606082019560018060a01b0380921683521660208201520152565b03925af1908115610b4057610b3793600b92611c4a575b503360005252604060002061248a565b611c6090823d8411610b3957610b2f818361206e565b5084611c3a565b60405162461bcd60e51b815260048101839052602260248201527f596f75206861766520616c726561647920656e7465726564207468697320676f604482015261185b60f21b6064820152608490fd5b60405162461bcd60e51b815260048101839052600c60248201526b11dbd85b081a5cc8199d5b1b60a21b6044820152606490fd5b50508281813d8311611d15575b611d02818361206e565b8101031261016f5781611acc9151611ac0565b503d611cf8565b60405162461bcd60e51b8152602060048201526024808201527f426574206d7573742062652067726561746572207468616e206d696e696d756d6044820152630818995d60e21b6064820152608490fd5b3461016f57608036600319011261016f57600435611d89612026565b90606435906001600160401b03821161016f573660238301121561016f5781600401356024611db78261208f565b90611dc5604051928361206e565b828252602094858301602460059560051b8301019136831161016f576024889101915b8383106120165750505050611dfc846121a6565b509160018060a01b038060098095015460181c1633148015612009575b611e229061235d565b85600052600587526040600020971696876000528652600192600160ff60406000205416151503611fae57611e5d60ff6009611741896121a6565b611e6f600160ff60096117608a6121a6565b611e7d600861177a886121a6565b856000526008875260406000208860005287526040600020546011611ea1886121a6565b5001541115611f43576000845b611edd575b88888860005260088152604060002091600052526040600020611ed960443582546124bf565b9055005b8251811015611f3e5786600052818852604060002089600052885260406000208351821015611f295781611f1f8796959493928b88948b1b870101519061248a565b0190919293611eae565b84634e487b7160e01b60005260326004526000fd5b611eb3565b60405162461bcd60e51b815260048101889052603e60248201527f54686973207061727469636970616e742068617320726561636865642074686560448201527f206d6178696d756d206e756d626572206f66206672657175656e6369657300006064820152608490fd5b60405162461bcd60e51b815260048101889052602d60248201527f5468652061646472657373206973206e6f742061207061727469636970616e7460448201526c081bd9881d1a1a5cc819dbd85b609a1b6064820152608490fd5b5060005481163314611e19565b8235815291810191889101611de8565b602435906001600160a01b038216820361016f57565b600435906001600160a01b038216820361016f57565b6102a081019081106001600160401b03821117610be257604052565b90601f801991011681019081106001600160401b03821117610be257604052565b6001600160401b038111610be25760051b60200190565b604090600319011261016f576004359060243590565b602090602060408183019282815285518094520193019160005b8281106120e4575050505090565b8351855293810193928101926001016120d6565b81601f8201121561016f578035906001600160401b038211610be2576040519261212c601f8401601f19166020018561206e565b8284526020838301011161016f57816000926020809301838601378301015290565b606090600319011261016f57600435906024356001600160a01b038116810361016f579060443590565b80548210156121905760005260206000200190600090565b634e487b7160e01b600052603260045260246000fd5b600254811015612190576012906002600052027f405787fa12a823e0f2b7631cc41b3ba8828b3321ca811111fa75cd3aa3bb5ace0190600090565b90600182811c92168015612211575b60208310146121fb57565b634e487b7160e01b600052602260045260246000fd5b91607f16916121f0565b9060405191826000825461222e816121e1565b9081845260209460019160018116908160001461229e575060011461225f575b50505061225d9250038361206e565b565b600090815285812095935091905b81831061228657505061225d935082010138808061224e565b8554888401850152948501948794509183019161226d565b9250505061225d94925060ff191682840152151560051b82010138808061224e565b919082519283825260005b8481106122ec575050826000602080949584010152601f8019910116010190565b6020818301810151848301820152016122cb565b90808251908181526020809101926020808460051b8301019501936000915b84831061232f5750505050505090565b909192939495848061234d600193601f198682030187528a516122c0565b980193019301919493929061231f565b1561236457565b60405162461bcd60e51b8152602060048201526024808201527f596f7520617265206e6f74207468652063726561746f72206f6620746869732060448201526319dbd85b60e21b6064820152608490fd5b156123bc57565b60405162461bcd60e51b815260206004820152601f60248201527f476f616c2068617320616c7265616479206265656e20636f6d706c65746564006044820152606490fd5b1561240857565b60405162461bcd60e51b815260206004820152601860248201527f476f616c20686173206e6f7420737461727465642079657400000000000000006044820152606490fd5b1561245457565b60405162461bcd60e51b815260206004820152600e60248201526d11dbd85b081a185cc8195b99195960921b6044820152606490fd5b8054600160401b811015610be2576124a791600182018155612178565b819291549060031b91821b91600019901b1916179055565b919082018092116110d757565b156124d357565b60405162461bcd60e51b8152602060048201526012602482015271496e73756666696369656e742066756e647360701b6044820152606490fd5b1561251457565b60405162461bcd60e51b815260206004820152601860248201527f476f616c2068617320616c7265616479207374617274656400000000000000006044820152606490fd5b9081602091031261016f5751801515810361016f5790565b1561257857565b60405162461bcd60e51b815260206004820152602660248201527f596f7520617265206e6f742061207061727469636970616e74206f66207468696044820152651cc819dbd85b60d21b6064820152608490fd5b8181106125d7575050565b600081556001016125cc565b91909182516001600160401b038111610be25761260082546121e1565b601f81116126ab575b50602080601f831160011461264657508192939460009261263b575b50508160011b916000199060031b1c1916179055565b015190503880612625565b90601f19831695846000526020600020926000905b8882106126935750508360019596971061267a575b505050811b019055565b015160001960f88460031b161c19169055388080612670565b8060018596829496860151815501950193019061265b565b6126d890836000526020600020601f840160051c810191602085106126de575b601f0160051c01906125cc565b38612609565b90915081906126cb565b81156126f2570490565b634e487b7160e01b600052601260045260246000fd5b919082039182116110d757565b9081546127218161208f565b9261272f604051948561206e565b818452600090815260208082208186015b84841061274e575050505050565b600183819261275c8561221b565b81520192019301929061274056fea2646970667358221220ff2dd351c5d359737b2dc0238d11aadc542773c4894387743b6f19d79bcd6db264736f6c63430008180033",
  "linkReferences": {},
  "deployedLinkReferences": {}
}