{
  "contracts/Goals.sol": {
    "Goals": {
      "abi": [
        {
          "inputs": [
            {
              "internalType": "address",
              "name": "_goalsTokenAddr",
              "type": "address"
            }
          ],
          "stateMutability": "nonpayable",
          "type": "constructor"
        },
        {
          "inputs": [
            {
              "internalType": "uint256",
              "name": "_goalId",
              "type": "uint256"
            },
            {
              "internalType": "address",
              "name": "_participant",
              "type": "address"
            },
            {
              "internalType": "uint256",
              "name": "_number",
              "type": "uint256"
            },
            {
              "internalType": "uint256[]",
              "name": "_uriIndex",
              "type": "uint256[]"
            }
          ],
          "name": "autenticateFrequency",
          "outputs": [],
          "stateMutability": "nonpayable",
          "type": "function"
        },
        {
          "inputs": [
            {
              "internalType": "uint256",
              "name": "",
              "type": "uint256"
            },
            {
              "internalType": "address",
              "name": "",
              "type": "address"
            }
          ],
          "name": "bets",
          "outputs": [
            {
              "internalType": "uint256",
              "name": "",
              "type": "uint256"
            }
          ],
          "stateMutability": "view",
          "type": "function"
        },
        {
          "inputs": [
            {
              "internalType": "uint256",
              "name": "_goalId",
              "type": "uint256"
            }
          ],
          "name": "completeGoal",
          "outputs": [],
          "stateMutability": "nonpayable",
          "type": "function"
        },
        {
          "inputs": [
            {
              "internalType": "string",
              "name": "_name",
              "type": "string"
            },
            {
              "internalType": "string",
              "name": "_description",
              "type": "string"
            },
            {
              "internalType": "string",
              "name": "_category",
              "type": "string"
            },
            {
              "internalType": "string",
              "name": "_frequency",
              "type": "string"
            },
            {
              "internalType": "uint256",
              "name": "_target",
              "type": "uint256"
            },
            {
              "internalType": "uint256",
              "name": "_minimumBet",
              "type": "uint256"
            },
            {
              "internalType": "uint256",
              "name": "_startDate",
              "type": "uint256"
            },
            {
              "internalType": "uint256",
              "name": "_endDate",
              "type": "uint256"
            },
            {
              "internalType": "bool",
              "name": "_isPublic",
              "type": "bool"
            },
            {
              "internalType": "uint256",
              "name": "_preFund",
              "type": "uint256"
            },
            {
              "internalType": "uint256",
              "name": "_maxParticipants",
              "type": "uint256"
            },
            {
              "internalType": "string[]",
              "name": "_URI",
              "type": "string[]"
            },
            {
              "internalType": "string",
              "name": "_typeTragetFreq",
              "type": "string"
            },
            {
              "internalType": "uint256",
              "name": "_quantity",
              "type": "uint256"
            },
            {
              "internalType": "uint256",
              "name": "_numFreq",
              "type": "uint256"
            }
          ],
          "name": "createGoal",
          "outputs": [],
          "stateMutability": "nonpayable",
          "type": "function"
        },
        {
          "inputs": [
            {
              "internalType": "uint256",
              "name": "_goalId",
              "type": "uint256"
            },
            {
              "internalType": "uint256",
              "name": "_bet",
              "type": "uint256"
            }
          ],
          "name": "enterGoal",
          "outputs": [],
          "stateMutability": "nonpayable",
          "type": "function"
        },
        {
          "inputs": [
            {
              "internalType": "uint256",
              "name": "_goalId",
              "type": "uint256"
            },
            {
              "internalType": "address",
              "name": "_participant",
              "type": "address"
            }
          ],
          "name": "getAutenticatedUri",
          "outputs": [
            {
              "internalType": "uint256[]",
              "name": "",
              "type": "uint256[]"
            }
          ],
          "stateMutability": "view",
          "type": "function"
        },
        {
          "inputs": [],
          "name": "getGoal",
          "outputs": [
            {
              "components": [
                {
                  "internalType": "uint256",
                  "name": "id",
                  "type": "uint256"
                },
                {
                  "internalType": "string",
                  "name": "name",
                  "type": "string"
                },
                {
                  "internalType": "string",
                  "name": "description",
                  "type": "string"
                },
                {
                  "internalType": "string",
                  "name": "category",
                  "type": "string"
                },
                {
                  "internalType": "string",
                  "name": "frequency",
                  "type": "string"
                },
                {
                  "internalType": "uint256",
                  "name": "targetFreq",
                  "type": "uint256"
                },
                {
                  "internalType": "uint256",
                  "name": "minimumBet",
                  "type": "uint256"
                },
                {
                  "internalType": "uint256",
                  "name": "startDate",
                  "type": "uint256"
                },
                {
                  "internalType": "uint256",
                  "name": "endDate",
                  "type": "uint256"
                },
                {
                  "internalType": "bool",
                  "name": "isStarted",
                  "type": "bool"
                },
                {
                  "internalType": "bool",
                  "name": "isCompleted",
                  "type": "bool"
                },
                {
                  "internalType": "bool",
                  "name": "isPublic",
                  "type": "bool"
                },
                {
                  "internalType": "address",
                  "name": "creator",
                  "type": "address"
                },
                {
                  "internalType": "uint256",
                  "name": "totalBet",
                  "type": "uint256"
                },
                {
                  "internalType": "uint256",
                  "name": "preFund",
                  "type": "uint256"
                },
                {
                  "internalType": "uint256",
                  "name": "totalParticipants",
                  "type": "uint256"
                },
                {
                  "internalType": "uint256",
                  "name": "maxParticipants",
                  "type": "uint256"
                },
                {
                  "internalType": "string[]",
                  "name": "URI",
                  "type": "string[]"
                },
                {
                  "internalType": "string",
                  "name": "typeTragetFreq",
                  "type": "string"
                },
                {
                  "internalType": "uint256",
                  "name": "quantity",
                  "type": "uint256"
                },
                {
                  "internalType": "uint256",
                  "name": "numFreq",
                  "type": "uint256"
                }
              ],
              "internalType": "struct Goals.Goal[]",
              "name": "",
              "type": "tuple[]"
            }
          ],
          "stateMutability": "view",
          "type": "function"
        },
        {
          "inputs": [
            {
              "internalType": "uint256",
              "name": "_goalId",
              "type": "uint256"
            }
          ],
          "name": "getMyBets",
          "outputs": [
            {
              "internalType": "uint256",
              "name": "",
              "type": "uint256"
            }
          ],
          "stateMutability": "view",
          "type": "function"
        },
        {
          "inputs": [],
          "name": "getMyEnteredGoals",
          "outputs": [
            {
              "internalType": "uint256[]",
              "name": "",
              "type": "uint256[]"
            }
          ],
          "stateMutability": "view",
          "type": "function"
        },
        {
          "inputs": [],
          "name": "getMyGoals",
          "outputs": [
            {
              "internalType": "uint256[]",
              "name": "",
              "type": "uint256[]"
            }
          ],
          "stateMutability": "view",
          "type": "function"
        },
        {
          "inputs": [
            {
              "internalType": "uint256",
              "name": "_goalId",
              "type": "uint256"
            }
          ],
          "name": "getMyProgress",
          "outputs": [
            {
              "internalType": "uint256",
              "name": "",
              "type": "uint256"
            }
          ],
          "stateMutability": "view",
          "type": "function"
        },
        {
          "inputs": [
            {
              "internalType": "uint256",
              "name": "_goalId",
              "type": "uint256"
            }
          ],
          "name": "getParticipants",
          "outputs": [
            {
              "internalType": "address[]",
              "name": "",
              "type": "address[]"
            }
          ],
          "stateMutability": "view",
          "type": "function"
        },
        {
          "inputs": [
            {
              "internalType": "uint256",
              "name": "_goalId",
              "type": "uint256"
            },
            {
              "internalType": "address",
              "name": "_participant",
              "type": "address"
            }
          ],
          "name": "getParticipantsUri",
          "outputs": [
            {
              "internalType": "string[]",
              "name": "",
              "type": "string[]"
            }
          ],
          "stateMutability": "view",
          "type": "function"
        },
        {
          "inputs": [
            {
              "internalType": "uint256",
              "name": "",
              "type": "uint256"
            }
          ],
          "name": "goals",
          "outputs": [
            {
              "internalType": "uint256",
              "name": "id",
              "type": "uint256"
            },
            {
              "internalType": "string",
              "name": "name",
              "type": "string"
            },
            {
              "internalType": "string",
              "name": "description",
              "type": "string"
            },
            {
              "internalType": "string",
              "name": "category",
              "type": "string"
            },
            {
              "internalType": "string",
              "name": "frequency",
              "type": "string"
            },
            {
              "internalType": "uint256",
              "name": "targetFreq",
              "type": "uint256"
            },
            {
              "internalType": "uint256",
              "name": "minimumBet",
              "type": "uint256"
            },
            {
              "internalType": "uint256",
              "name": "startDate",
              "type": "uint256"
            },
            {
              "internalType": "uint256",
              "name": "endDate",
              "type": "uint256"
            },
            {
              "internalType": "bool",
              "name": "isStarted",
              "type": "bool"
            },
            {
              "internalType": "bool",
              "name": "isCompleted",
              "type": "bool"
            },
            {
              "internalType": "bool",
              "name": "isPublic",
              "type": "bool"
            },
            {
              "internalType": "address",
              "name": "creator",
              "type": "address"
            },
            {
              "internalType": "uint256",
              "name": "totalBet",
              "type": "uint256"
            },
            {
              "internalType": "uint256",
              "name": "preFund",
              "type": "uint256"
            },
            {
              "internalType": "uint256",
              "name": "totalParticipants",
              "type": "uint256"
            },
            {
              "internalType": "uint256",
              "name": "maxParticipants",
              "type": "uint256"
            },
            {
              "internalType": "string",
              "name": "typeTragetFreq",
              "type": "string"
            },
            {
              "internalType": "uint256",
              "name": "quantity",
              "type": "uint256"
            },
            {
              "internalType": "uint256",
              "name": "numFreq",
              "type": "uint256"
            }
          ],
          "stateMutability": "view",
          "type": "function"
        },
        {
          "inputs": [
            {
              "internalType": "uint256",
              "name": "",
              "type": "uint256"
            },
            {
              "internalType": "address",
              "name": "",
              "type": "address"
            }
          ],
          "name": "isParticipant",
          "outputs": [
            {
              "internalType": "bool",
              "name": "",
              "type": "bool"
            }
          ],
          "stateMutability": "view",
          "type": "function"
        },
        {
          "inputs": [
            {
              "internalType": "address",
              "name": "",
              "type": "address"
            },
            {
              "internalType": "uint256",
              "name": "",
              "type": "uint256"
            }
          ],
          "name": "myEnteredGoals",
          "outputs": [
            {
              "internalType": "uint256",
              "name": "",
              "type": "uint256"
            }
          ],
          "stateMutability": "view",
          "type": "function"
        },
        {
          "inputs": [
            {
              "internalType": "address",
              "name": "",
              "type": "address"
            },
            {
              "internalType": "uint256",
              "name": "",
              "type": "uint256"
            }
          ],
          "name": "myGoals",
          "outputs": [
            {
              "internalType": "uint256",
              "name": "",
              "type": "uint256"
            }
          ],
          "stateMutability": "view",
          "type": "function"
        },
        {
          "inputs": [],
          "name": "owner",
          "outputs": [
            {
              "internalType": "address",
              "name": "",
              "type": "address"
            }
          ],
          "stateMutability": "view",
          "type": "function"
        },
        {
          "inputs": [
            {
              "internalType": "uint256",
              "name": "",
              "type": "uint256"
            },
            {
              "internalType": "uint256",
              "name": "",
              "type": "uint256"
            }
          ],
          "name": "participants",
          "outputs": [
            {
              "internalType": "address",
              "name": "",
              "type": "address"
            }
          ],
          "stateMutability": "view",
          "type": "function"
        },
        {
          "inputs": [
            {
              "internalType": "uint256",
              "name": "",
              "type": "uint256"
            },
            {
              "internalType": "address",
              "name": "",
              "type": "address"
            }
          ],
          "name": "participantsAutenticatedFreq",
          "outputs": [
            {
              "internalType": "uint256",
              "name": "",
              "type": "uint256"
            }
          ],
          "stateMutability": "view",
          "type": "function"
        },
        {
          "inputs": [
            {
              "internalType": "uint256",
              "name": "",
              "type": "uint256"
            },
            {
              "internalType": "address",
              "name": "",
              "type": "address"
            }
          ],
          "name": "participantsFreq",
          "outputs": [
            {
              "internalType": "uint256",
              "name": "",
              "type": "uint256"
            }
          ],
          "stateMutability": "view",
          "type": "function"
        },
        {
          "inputs": [
            {
              "internalType": "uint256",
              "name": "",
              "type": "uint256"
            },
            {
              "internalType": "address",
              "name": "",
              "type": "address"
            },
            {
              "internalType": "uint256",
              "name": "",
              "type": "uint256"
            }
          ],
          "name": "participantsURI",
          "outputs": [
            {
              "internalType": "string",
              "name": "",
              "type": "string"
            }
          ],
          "stateMutability": "view",
          "type": "function"
        },
        {
          "inputs": [
            {
              "internalType": "uint256",
              "name": "_goalId",
              "type": "uint256"
            }
          ],
          "name": "startGoal",
          "outputs": [],
          "stateMutability": "nonpayable",
          "type": "function"
        },
        {
          "inputs": [],
          "name": "token",
          "outputs": [
            {
              "internalType": "contract GoalsToken",
              "name": "",
              "type": "address"
            }
          ],
          "stateMutability": "view",
          "type": "function"
        },
        {
          "inputs": [
            {
              "internalType": "uint256",
              "name": "_goalId",
              "type": "uint256"
            },
            {
              "internalType": "string",
              "name": "_imgaeURI",
              "type": "string"
            }
          ],
          "name": "updateFrequency",
          "outputs": [],
          "stateMutability": "nonpayable",
          "type": "function"
        },
        {
          "inputs": [
            {
              "internalType": "uint256",
              "name": "",
              "type": "uint256"
            },
            {
              "internalType": "address",
              "name": "",
              "type": "address"
            },
            {
              "internalType": "uint256",
              "name": "",
              "type": "uint256"
            }
          ],
          "name": "validatedURI",
          "outputs": [
            {
              "internalType": "uint256",
              "name": "",
              "type": "uint256"
            }
          ],
          "stateMutability": "view",
          "type": "function"
        }
      ],
      "evm": {
        "bytecode": {
          "linkReferences": {},
          "object": "60803461007c57601f6127ad38819003918201601f19168301916001600160401b038311848410176100815780849260209460405283398101031261007c57516001600160a01b0381169081900361007c5760018060a01b0319908160015416176001553390600054161760005560405161271590816100988239f35b600080fd5b634e487b7160e01b600052604160045260246000fdfe610100604052600436101561001357600080fd5b60003560e01c80630409162014611ce257806309c935c0146119d057806327130b8d1461192457806347368cf11461189957806347c0f954146118515780634fe64436146117f357806357859a281461164657806357a0225d146116015780635911fc341461159557806361449ca2146113c357806371e9abab14611379578063758d9b891461132c57806376e20e53146112ce57806381fb1fb41461128457806386d6b40f1461121d5780638da5cb5b146111f45780638e03adf314610de85780638e9e380e14610d90578063b501f4c8146106b0578063b97a7d2414610389578063c1e3bd3e146102d1578063d7a755ea14610259578063e594642c14610211578063f644b3bb146101c9578063f78d7454146101695763fc0c546a1461013b57600080fd5b34610164576000366003190112610164576001546040516001600160a01b039091168152602090f35b600080fd5b3461016457604036600319011261016457610182611f9b565b600435600052600760205260406000209060018060a01b03166000526020526101c56101b1604060002061268a565b604051918291602083526020830190612275565b0390f35b34610164576040366003190112610164576101e2611f9b565b600435600052600460205260406000209060018060a01b03166000526020526020604060002054604051908152f35b346101645760403660031901126101645761022a611f9b565b600435600052600860205260406000209060018060a01b03166000526020526020604060002054604051908152f35b3461016457600036600319011261016457336000526020600b6020526040600020906040519081602084549182815201936000526020600020916000905b8282106102ba576101c5856102ae81890382611fe3565b60405191829182612031565b835486529485019460019384019390910190610297565b34610164576020806003193601126101645760043560005260038152604060002060405190818382549182815201908192600052846000209060005b8682821061036c57868661032382880383611fe3565b604051928392818401908285525180915260408401929160005b82811061034c57505050500390f35b83516001600160a01b03168552869550938101939281019260010161033d565b83546001600160a01b03168552909301926001928301920161030d565b3461016457600036600319011261016457600280546103a781612004565b916103b56040519384611fe3565b818352602091828401809260026000527f405787fa12a823e0f2b7631cc41b3ba8828b3321ca811111fa75cd3aa3bb5ace906000925b84841061057657604080518881528951818a01819052600092600582901b83018101918a918c9085015b8287106104225785850386f35b909192938280600192603f1989820301855287519061055061053c61049a6104876104746104626102a0885188528989015190808b8a0152880190612235565b60408801518782036040890152612235565b6060808801519087830390880152612235565b6080808701519086830390870152612235565b60a0808601519085015260c0808601519085015260e085015160e08501526101008086015190850152610120808601511515908501526101408086015115159085015261016080860151151590850152610180888060a01b038187015116908501526101a080860151908501526101c080860151908501526101e080860151908501526102008086015190850152610220808601519085830390860152612275565b610240808501519084830390850152612235565b916102608082015190830152610280809101519101529601920196019592919092610415565b60128760019260409a999a5161058b81611fc7565b8654815261059a858801612190565b838201526105a9868801612190565b60408201526105ba60038801612190565b60608201526105cb60048801612190565b6080820152600587015460a0820152600687015460c0820152600787015460e08201526008808801546101008301526009880154809160ff92839182821615156101208701521c16151561014084015260109181831c161515610160840152868060a01b039060181c16610180830152600a8801546101a0830152600b8801546101c0830152600c8801546101e0830152600d880154610200830152610673600e890161268a565b610220830152610685600f8901612190565b61024083015287015461026082015260118701546102808201528152019301930192919695966103eb565b34610164576101e0366003190112610164576004356001600160401b038111610164576106e190369060040161206d565b6024356001600160401b0381116101645761070090369060040161206d565b6044356001600160401b0381116101645761071f90369060040161206d565b6064356001600160401b0381116101645761073e90369060040161206d565b610104358015158103610164576001600160401b03610164351161016457366023610164350112156101645761077a6101643560040135612004565b916107886040519384611fe3565b6101643560040135835260208301366024610164356004013560051b610164350101116101645760246101643501905b6024610164356004013560051b6101643501018210610d5e575050610184356001600160401b038111610164576107f390369060040161206d565b9360e43560c4351015610d0e5760843515610cc9576101443515610c7457835115610c37576001546040516370a0823160e01b815233600482015290602090829060249082906001600160a01b03165afa8015610b3557600090610c03575b6108629150610124351115612441565b33600052600a60205261087c6040600020600254906123ff565b600254956040519761088d89611fc7565b878952602089015260408801526060870152608086015260843560a086015260a43560c086015260c43560e086015260e43561010086015260006101208601526000610140860152151561016085015233610180850152610124356101a0850152610124356101c085015260006101e0850152610144356102008501526102208401526102408301526101a4356102608301526101c435610280830152600160401b811015610bd757806001610946920160025561211b565b919091610bed5780518255610962602082015160018401612558565b610973604082015160028401612558565b610984606082015160038401612558565b610995608082015160048401612558565b60a0810151600583015560c0810151600683015560e081015160078301556101008101516008830155600982016101208201511515815490610140840151151560081b61ff0061016086015115159362ff00006301000000600160b81b0361018089015160181b169560101b169360ff62010000600160b81b03199116169068ffffffffffffffffff60b81b1617911617171790556101a0810151600a8301556101c0810151600b8301556101e0810151600c830155610200810151600d830155610220810151805190600160401b8211610bd757600e84015482600e860155808310610b5e575b50602001600e840160005260206000206000915b838310610b415785601161028087610ab1610240820151600f8601612558565b610260810151601085015501519101556001546040516323b872dd60e01b815233600482015230602482015261012435604482015290602090829060649082906000906001600160a01b03165af18015610b3557610b0b57005b610b2c9060203d602011610b2e575b610b248183611fe3565b8101906124ce565b005b503d610b1a565b6040513d6000823e3d90fd5b6001602082610b5283945186612558565b01920192019190610a91565b600e85016000526020600020908382015b8183018110610b7f575050610a7d565b80610b8c60019254612156565b80610b99575b5001610b6f565b601f908181118414610bb2575050600081555b88610b92565b610bce60009284845260208420920160051c8201858301612541565b81835555610bac565b634e487b7160e01b600052604160045260246000fd5b634e487b7160e01b600052600060045260246000fd5b506020813d602011610c2f575b81610c1d60209383611fe3565b81010312610164576108629051610852565b3d9150610c10565b60405162461bcd60e51b8152602060048201526015602482015274555249206d757374206e6f7420626520656d70747960581b6044820152606490fd5b60405162461bcd60e51b815260206004820152602760248201527f4d6178207061727469636970616e7473206d75737420626520677265617465726044820152660207468616e20360cc1b6064820152608490fd5b60405162461bcd60e51b815260206004820152601d60248201527f546172676574206d7573742062652067726561746572207468616e20300000006044820152606490fd5b60405162461bcd60e51b815260206004820152602260248201527f53746172742064617465206d757374206265206265666f726520656e64206461604482015261746560f01b6064820152608490fd5b81356001600160401b03811161016457602091610d8583926024369161016435010161206d565b8152019101906107b8565b3461016457604036600319011261016457610da9611fb1565b6001600160a01b03166000908152600b602052604090208054602435919082101561016457602091610dda916120ed565b90546040519160031b1c8152f35b3461016457602036600319011261016457610e22610e0760043561211b565b50600901543360189190911c6001600160a01b0316146122d2565b6009610e2f60043561211b565b500154610e4460ff60089260081c161561232a565b6009610e5160043561211b565b5001805461ff0019166101001790556005610e6d60043561211b565b50015460558102908082046055149015171561104c57906005610e9160043561211b565b50015491600c610ea260043561211b565b500154916000916000906000926000915b868310610fe957505050610ee89291610ede610ee392600a610ed660043561211b565b50015461267d565b61267d565b61265d565b9160005b828110610ef557005b83906004356000526006602052604060002060039081602052610f1c8360406000206120ed565b60018060a01b03915490841b1c166000526020528360406000205414610f48575b506001915001610eec565b610faf9260209160018060a01b036001541690600435600052808452610f728560406000206120ed565b905460405163a9059cbb60e01b81526001600160a01b039290931b1c16600482015260248101929092529093849190829060009082906044820190565b03925af1918215610b3557600192610fca575b859250610f3d565b610fe29060203d602011610b2e57610b248183611fe3565b5085610fc2565b909194600435600052826020526040600020600360205261100e8760406000206120ed565b60018060a01b0391549060031b1c1660005260205260406000205488811460001461106257506001810180911161104c57600190955b019190610eb3565b634e487b7160e01b600052601160045260246000fd5b909581606484041115806111eb575b1561116057611128915060043560005260046020526040600020600360205261109e8260406000206120ed565b60018060a01b0391549060031b1c1660005260205260206110c56040600020548097612434565b9560018060a01b0360015416600435600052600383526110e98460406000206120ed565b905460405163a9059cbb60e01b815260039290921b1c6001600160a01b0316600482015260248101929092529093849190829060009082906044820190565b03925af1918215610b3557600192611141575b50611044565b6111599060203d602011610b2e57610b248183611fe3565b508961113b565b6004356000526004602052604060002060036020526111838260406000206120ed565b60018060a01b0391549060031b1c1660005260205260406000205482810292818404149015171561104c5760206111c76111c08b6111289561265d565b8098612434565b9660018060a01b0360015416600435600052600383526110e98460406000206120ed565b50888210611071565b34610164576000366003190112610164576000546040516001600160a01b039091168152602090f35b346101645761122b366120c3565b91600052600760205260406000209060018060a01b0316600052602052604060002090815481101561016457611260916120ed565b610bed576112706101c591612190565b604051918291602083526020830190612235565b34610164576112923661201b565b90600052600360205260406000208054821015610164576020916112b5916120ed565b905460405160039290921b1c6001600160a01b03168152f35b3461016457602080600319360112610164576004358060005260058252604060002033600052825261130c600160ff604060002054161515146124e6565b600052600481526040600020336000528152604060002054604051908152f35b3461016457604036600319011261016457611345611f9b565b600435600052600560205260406000209060018060a01b0316600052602052602060ff604060002054166040519015158152f35b3461016457604036600319011261016457611392611fb1565b6001600160a01b03166000908152600a602052604090208054602435919082101561016457602091610dda916120ed565b3461016457602036600319011261016457600435600254811015610164576113ea9061211b565b508054906113fa60018201612190565b60a05261140960028201612190565b60e05261141860038201612190565b61142460048301612190565b90600583015491600684015460078501546008860154600987015490600a88015492600b89015494600c8a015496600d8b015498600f8c0161146590612190565b9b6010810154608052601101549c60405160c0526102809060c051528060c0516020015260c0510160a0519061149a91612235565b60c051810360c0516040015260e051906114b391612235565b60c051810360c051606001526114c891612235565b60c051810360c051608001526114dd91612235565b9860c05160a0015260c05160c0015260c05160e0015260c051610100015260ff8116151560c05161012001528060081c60ff16151560c05161014001528060101c60ff16151560c0516101600152600160a01b600190039060181c1660c051610180015260c0516101a0015260c0516101c0015260c0516101e0015260c051610200015260c051810360c051610220015261157791612235565b9060805160c051610240015260c051610260015260c051900360c051f35b3461016457600036600319011261016457336000526020600a6020526040600020906040519081602084549182815201936000526020600020916000905b8282106115ea576101c5856102ae81890382611fe3565b8354865294850194600193840193909101906115d3565b346101645761160f366120c3565b91600052600960205260406000209060018060a01b03166000526020526040600020805482101561016457602091610dda916120ed565b34610164576040366003190112610164576004356024356001600160401b0381116101645761167990369060040161206d565b90806000526020916005835260406000203360005283526116a6600160ff604060002054161515146124e6565b6116c360ff60096116b68561211b565b50015460081c161561232a565b6116e1600160ff60096116d58661211b565b50015416151514612376565b6116f960086116ef8461211b565b50015442106123c2565b81600052600683526040600020336000528352604060002054601161171d8461211b565b5001541115611793578160005260078352604060002033600052835260406000208054600160401b811015610bd75761175b916001820181556120ed565b919091610bed5761176b91612558565b60005260068152604060002090336000525260406000208054906001820180921161104c5755005b60405162461bcd60e51b815260048101849052603260248201527f596f752068617665207265616368656420746865206d6178696d756d206e756d604482015271626572206f66206672657175656e6369657360701b6064820152608490fd5b34610164576020806003193601126101645760043580600052600582526040600020336000528252611831600160ff604060002054161515146124e6565b600052600881526040600020336000528152604060002054604051908152f35b346101645760403660031901126101645761186a611f9b565b600435600052600660205260406000209060018060a01b03166000526020526020604060002054604051908152f35b34610164576040366003190112610164576118b2611f9b565b600435600052602090600960205260406000209060018060a01b03166000526020526040600020906040519081602084549182815201936000526020600020916000905b82821061190d576101c5856102ae81890382611fe3565b8354865294850194600193840193909101906118f6565b3461016457602036600319011261016457600435611944610e078261211b565b61195e60ff60096119548461211b565b5001541615612482565b600c6119698261211b565b5001541561198b5761197c60099161211b565b5001805460ff19166001179055005b60405162461bcd60e51b815260206004820152601c60248201527f4e6f207061727469636970616e747320696e207468697320676f616c000000006044820152606490fd5b34610164576119de3661201b565b9060066119ea8261211b565b5001548210611c91576001546040516370a0823160e01b81523360048201526001600160a01b039360209290919083908290602490829089165afa8015610b35578290600090611c60575b611a4192501015612441565b600c611a4c8461211b565b500154600d611a5a8561211b565b5001541115611c2c57611a7360ff60096116b68661211b565b8260005260058252604060002033600052825260ff60406000205416611bdc57611aa360ff60096119548661211b565b8260005260048252604060002033600052825280604060002055600a611ac88461211b565b5001611ad5828254612434565b9055600c611ae28461211b565b50018054906001820180921161104c57558260005260038252604060002090815490600160401b821015610bd757600095611b278386956001611b98960181556120ed565b81549060031b908333831b921b19161790558587526005845260408720338852845260408720600160ff1982541617905560015416906040519687809481936323b872dd60e01b835230336004850160409194939294606082019560018060a01b0380921683521660208201520152565b03925af1908115610b3557610b2c93600b92611bbf575b50336000525260406000206123ff565b611bd590823d8411610b2e57610b248183611fe3565b5084611baf565b60405162461bcd60e51b815260048101839052602260248201527f596f75206861766520616c726561647920656e7465726564207468697320676f604482015261185b60f21b6064820152608490fd5b60405162461bcd60e51b815260048101839052600c60248201526b11dbd85b081a5cc8199d5b1b60a21b6044820152606490fd5b50508281813d8311611c8a575b611c778183611fe3565b810103126101645781611a419151611a35565b503d611c6d565b60405162461bcd60e51b8152602060048201526024808201527f426574206d7573742062652067726561746572207468616e206d696e696d756d6044820152630818995d60e21b6064820152608490fd5b3461016457608036600319011261016457600435611cfe611f9b565b90606435906001600160401b03821161016457366023830112156101645781600401356024611d2c82612004565b90611d3a6040519283611fe3565b828252602094858301602460059560051b83010191368311610164576024889101915b838310611f8b5750505050611d718461211b565b509160018060a01b038060098095015460181c1633148015611f7e575b611d97906122d2565b85600052600587526040600020971696876000528652600192600160ff60406000205416151503611f2357611dd260ff60096116b68961211b565b611de4600160ff60096116d58a61211b565b611df260086116ef8861211b565b856000526008875260406000208860005287526040600020546011611e168861211b565b5001541115611eb8576000845b611e52575b88888860005260088152604060002091600052526040600020611e4e6044358254612434565b9055005b8251811015611eb35786600052818852604060002089600052885260406000208351821015611e9e5781611e948796959493928b88948b1b87010151906123ff565b0190919293611e23565b84634e487b7160e01b60005260326004526000fd5b611e28565b60405162461bcd60e51b815260048101889052603e60248201527f54686973207061727469636970616e742068617320726561636865642074686560448201527f206d6178696d756d206e756d626572206f66206672657175656e6369657300006064820152608490fd5b60405162461bcd60e51b815260048101889052602d60248201527f5468652061646472657373206973206e6f742061207061727469636970616e7460448201526c081bd9881d1a1a5cc819dbd85b609a1b6064820152608490fd5b5060005481163314611d8e565b8235815291810191889101611d5d565b602435906001600160a01b038216820361016457565b600435906001600160a01b038216820361016457565b6102a081019081106001600160401b03821117610bd757604052565b90601f801991011681019081106001600160401b03821117610bd757604052565b6001600160401b038111610bd75760051b60200190565b6040906003190112610164576004359060243590565b602090602060408183019282815285518094520193019160005b828110612059575050505090565b83518552938101939281019260010161204b565b81601f82011215610164578035906001600160401b038211610bd757604051926120a1601f8401601f191660200185611fe3565b8284526020838301011161016457816000926020809301838601378301015290565b606090600319011261016457600435906024356001600160a01b0381168103610164579060443590565b80548210156121055760005260206000200190600090565b634e487b7160e01b600052603260045260246000fd5b600254811015612105576012906002600052027f405787fa12a823e0f2b7631cc41b3ba8828b3321ca811111fa75cd3aa3bb5ace0190600090565b90600182811c92168015612186575b602083101461217057565b634e487b7160e01b600052602260045260246000fd5b91607f1691612165565b906040519182600082546121a381612156565b9081845260209460019160018116908160001461221357506001146121d4575b5050506121d292500383611fe3565b565b600090815285812095935091905b8183106121fb5750506121d293508201013880806121c3565b855488840185015294850194879450918301916121e2565b925050506121d294925060ff191682840152151560051b8201013880806121c3565b919082519283825260005b848110612261575050826000602080949584010152601f8019910116010190565b602081830181015184830182015201612240565b90808251908181526020809101926020808460051b8301019501936000915b8483106122a45750505050505090565b90919293949584806122c2600193601f198682030187528a51612235565b9801930193019194939290612294565b156122d957565b60405162461bcd60e51b8152602060048201526024808201527f596f7520617265206e6f74207468652063726561746f72206f6620746869732060448201526319dbd85b60e21b6064820152608490fd5b1561233157565b60405162461bcd60e51b815260206004820152601f60248201527f476f616c2068617320616c7265616479206265656e20636f6d706c65746564006044820152606490fd5b1561237d57565b60405162461bcd60e51b815260206004820152601860248201527f476f616c20686173206e6f7420737461727465642079657400000000000000006044820152606490fd5b156123c957565b60405162461bcd60e51b815260206004820152600e60248201526d11dbd85b081a185cc8195b99195960921b6044820152606490fd5b8054600160401b811015610bd75761241c916001820181556120ed565b819291549060031b91821b91600019901b1916179055565b9190820180921161104c57565b1561244857565b60405162461bcd60e51b8152602060048201526012602482015271496e73756666696369656e742066756e647360701b6044820152606490fd5b1561248957565b60405162461bcd60e51b815260206004820152601860248201527f476f616c2068617320616c7265616479207374617274656400000000000000006044820152606490fd5b90816020910312610164575180151581036101645790565b156124ed57565b60405162461bcd60e51b815260206004820152602660248201527f596f7520617265206e6f742061207061727469636970616e74206f66207468696044820152651cc819dbd85b60d21b6064820152608490fd5b81811061254c575050565b60008155600101612541565b91909182516001600160401b038111610bd7576125758254612156565b601f8111612620575b50602080601f83116001146125bb5750819293946000926125b0575b50508160011b916000199060031b1c1916179055565b01519050388061259a565b90601f19831695846000526020600020926000905b888210612608575050836001959697106125ef575b505050811b019055565b015160001960f88460031b161c191690553880806125e5565b806001859682949686015181550195019301906125d0565b61264d90836000526020600020601f840160051c81019160208510612653575b601f0160051c0190612541565b3861257e565b9091508190612640565b8115612667570490565b634e487b7160e01b600052601260045260246000fd5b9190820391821161104c57565b90815461269681612004565b926126a46040519485611fe3565b818452600090815260208082208186015b8484106126c3575050505050565b60018381926126d185612190565b8152019201930192906126b556fea26469706673582212208aad94dba4bf5f58891f24b893c41dbb4a4e215931cd88579036b7c939bf633364736f6c63430008180033",
          "opcodes": "PUSH1 0x80 CALLVALUE PUSH2 0x7C JUMPI PUSH1 0x1F PUSH2 0x27AD CODESIZE DUP2 SWAP1 SUB SWAP2 DUP3 ADD PUSH1 0x1F NOT AND DUP4 ADD SWAP2 PUSH1 0x1 PUSH1 0x1 PUSH1 0x40 SHL SUB DUP4 GT DUP5 DUP5 LT OR PUSH2 0x81 JUMPI DUP1 DUP5 SWAP3 PUSH1 0x20 SWAP5 PUSH1 0x40 MSTORE DUP4 CODECOPY DUP2 ADD SUB SLT PUSH2 0x7C JUMPI MLOAD PUSH1 0x1 PUSH1 0x1 PUSH1 0xA0 SHL SUB DUP2 AND SWAP1 DUP2 SWAP1 SUB PUSH2 0x7C JUMPI PUSH1 0x1 DUP1 PUSH1 0xA0 SHL SUB NOT SWAP1 DUP2 PUSH1 0x1 SLOAD AND OR PUSH1 0x1 SSTORE CALLER SWAP1 PUSH1 0x0 SLOAD AND OR PUSH1 0x0 SSTORE PUSH1 0x40 MLOAD PUSH2 0x2715 SWAP1 DUP2 PUSH2 0x98 DUP3 CODECOPY RETURN JUMPDEST PUSH1 0x0 DUP1 REVERT JUMPDEST PUSH4 0x4E487B71 PUSH1 0xE0 SHL PUSH1 0x0 MSTORE PUSH1 0x41 PUSH1 0x4 MSTORE PUSH1 0x24 PUSH1 0x0 REVERT INVALID PUSH2 0x100 PUSH1 0x40 MSTORE PUSH1 0x4 CALLDATASIZE LT ISZERO PUSH2 0x13 JUMPI PUSH1 0x0 DUP1 REVERT JUMPDEST PUSH1 0x0 CALLDATALOAD PUSH1 0xE0 SHR DUP1 PUSH4 0x4091620 EQ PUSH2 0x1CE2 JUMPI DUP1 PUSH4 0x9C935C0 EQ PUSH2 0x19D0 JUMPI DUP1 PUSH4 0x27130B8D EQ PUSH2 0x1924 JUMPI DUP1 PUSH4 0x47368CF1 EQ PUSH2 0x1899 JUMPI DUP1 PUSH4 0x47C0F954 EQ PUSH2 0x1851 JUMPI DUP1 PUSH4 0x4FE64436 EQ PUSH2 0x17F3 JUMPI DUP1 PUSH4 0x57859A28 EQ PUSH2 0x1646 JUMPI DUP1 PUSH4 0x57A0225D EQ PUSH2 0x1601 JUMPI DUP1 PUSH4 0x5911FC34 EQ PUSH2 0x1595 JUMPI DUP1 PUSH4 0x61449CA2 EQ PUSH2 0x13C3 JUMPI DUP1 PUSH4 0x71E9ABAB EQ PUSH2 0x1379 JUMPI DUP1 PUSH4 0x758D9B89 EQ PUSH2 0x132C JUMPI DUP1 PUSH4 0x76E20E53 EQ PUSH2 0x12CE JUMPI DUP1 PUSH4 0x81FB1FB4 EQ PUSH2 0x1284 JUMPI DUP1 PUSH4 0x86D6B40F EQ PUSH2 0x121D JUMPI DUP1 PUSH4 0x8DA5CB5B EQ PUSH2 0x11F4 JUMPI DUP1 PUSH4 0x8E03ADF3 EQ PUSH2 0xDE8 JUMPI DUP1 PUSH4 0x8E9E380E EQ PUSH2 0xD90 JUMPI DUP1 PUSH4 0xB501F4C8 EQ PUSH2 0x6B0 JUMPI DUP1 PUSH4 0xB97A7D24 EQ PUSH2 0x389 JUMPI DUP1 PUSH4 0xC1E3BD3E EQ PUSH2 0x2D1 JUMPI DUP1 PUSH4 0xD7A755EA EQ PUSH2 0x259 JUMPI DUP1 PUSH4 0xE594642C EQ PUSH2 0x211 JUMPI DUP1 PUSH4 0xF644B3BB EQ PUSH2 0x1C9 JUMPI DUP1 PUSH4 0xF78D7454 EQ PUSH2 0x169 JUMPI PUSH4 0xFC0C546A EQ PUSH2 0x13B JUMPI PUSH1 0x0 DUP1 REVERT JUMPDEST CALLVALUE PUSH2 0x164 JUMPI PUSH1 0x0 CALLDATASIZE PUSH1 0x3 NOT ADD SLT PUSH2 0x164 JUMPI PUSH1 0x1 SLOAD PUSH1 0x40 MLOAD PUSH1 0x1 PUSH1 0x1 PUSH1 0xA0 SHL SUB SWAP1 SWAP2 AND DUP2 MSTORE PUSH1 0x20 SWAP1 RETURN JUMPDEST PUSH1 0x0 DUP1 REVERT JUMPDEST CALLVALUE PUSH2 0x164 JUMPI PUSH1 0x40 CALLDATASIZE PUSH1 0x3 NOT ADD SLT PUSH2 0x164 JUMPI PUSH2 0x182 PUSH2 0x1F9B JUMP JUMPDEST PUSH1 0x4 CALLDATALOAD PUSH1 0x0 MSTORE PUSH1 0x7 PUSH1 0x20 MSTORE PUSH1 0x40 PUSH1 0x0 KECCAK256 SWAP1 PUSH1 0x1 DUP1 PUSH1 0xA0 SHL SUB AND PUSH1 0x0 MSTORE PUSH1 0x20 MSTORE PUSH2 0x1C5 PUSH2 0x1B1 PUSH1 0x40 PUSH1 0x0 KECCAK256 PUSH2 0x268A JUMP JUMPDEST PUSH1 0x40 MLOAD SWAP2 DUP3 SWAP2 PUSH1 0x20 DUP4 MSTORE PUSH1 0x20 DUP4 ADD SWAP1 PUSH2 0x2275 JUMP JUMPDEST SUB SWAP1 RETURN JUMPDEST CALLVALUE PUSH2 0x164 JUMPI PUSH1 0x40 CALLDATASIZE PUSH1 0x3 NOT ADD SLT PUSH2 0x164 JUMPI PUSH2 0x1E2 PUSH2 0x1F9B JUMP JUMPDEST PUSH1 0x4 CALLDATALOAD PUSH1 0x0 MSTORE PUSH1 0x4 PUSH1 0x20 MSTORE PUSH1 0x40 PUSH1 0x0 KECCAK256 SWAP1 PUSH1 0x1 DUP1 PUSH1 0xA0 SHL SUB AND PUSH1 0x0 MSTORE PUSH1 0x20 MSTORE PUSH1 0x20 PUSH1 0x40 PUSH1 0x0 KECCAK256 SLOAD PUSH1 0x40 MLOAD SWAP1 DUP2 MSTORE RETURN JUMPDEST CALLVALUE PUSH2 0x164 JUMPI PUSH1 0x40 CALLDATASIZE PUSH1 0x3 NOT ADD SLT PUSH2 0x164 JUMPI PUSH2 0x22A PUSH2 0x1F9B JUMP JUMPDEST PUSH1 0x4 CALLDATALOAD PUSH1 0x0 MSTORE PUSH1 0x8 PUSH1 0x20 MSTORE PUSH1 0x40 PUSH1 0x0 KECCAK256 SWAP1 PUSH1 0x1 DUP1 PUSH1 0xA0 SHL SUB AND PUSH1 0x0 MSTORE PUSH1 0x20 MSTORE PUSH1 0x20 PUSH1 0x40 PUSH1 0x0 KECCAK256 SLOAD PUSH1 0x40 MLOAD SWAP1 DUP2 MSTORE RETURN JUMPDEST CALLVALUE PUSH2 0x164 JUMPI PUSH1 0x0 CALLDATASIZE PUSH1 0x3 NOT ADD SLT PUSH2 0x164 JUMPI CALLER PUSH1 0x0 MSTORE PUSH1 0x20 PUSH1 0xB PUSH1 0x20 MSTORE PUSH1 0x40 PUSH1 0x0 KECCAK256 SWAP1 PUSH1 0x40 MLOAD SWAP1 DUP2 PUSH1 0x20 DUP5 SLOAD SWAP2 DUP3 DUP2 MSTORE ADD SWAP4 PUSH1 0x0 MSTORE PUSH1 0x20 PUSH1 0x0 KECCAK256 SWAP2 PUSH1 0x0 SWAP1 JUMPDEST DUP3 DUP3 LT PUSH2 0x2BA JUMPI PUSH2 0x1C5 DUP6 PUSH2 0x2AE DUP2 DUP10 SUB DUP3 PUSH2 0x1FE3 JUMP JUMPDEST PUSH1 0x40 MLOAD SWAP2 DUP3 SWAP2 DUP3 PUSH2 0x2031 JUMP JUMPDEST DUP4 SLOAD DUP7 MSTORE SWAP5 DUP6 ADD SWAP5 PUSH1 0x1 SWAP4 DUP5 ADD SWAP4 SWAP1 SWAP2 ADD SWAP1 PUSH2 0x297 JUMP JUMPDEST CALLVALUE PUSH2 0x164 JUMPI PUSH1 0x20 DUP1 PUSH1 0x3 NOT CALLDATASIZE ADD SLT PUSH2 0x164 JUMPI PUSH1 0x4 CALLDATALOAD PUSH1 0x0 MSTORE PUSH1 0x3 DUP2 MSTORE PUSH1 0x40 PUSH1 0x0 KECCAK256 PUSH1 0x40 MLOAD SWAP1 DUP2 DUP4 DUP3 SLOAD SWAP2 DUP3 DUP2 MSTORE ADD SWAP1 DUP2 SWAP3 PUSH1 0x0 MSTORE DUP5 PUSH1 0x0 KECCAK256 SWAP1 PUSH1 0x0 JUMPDEST DUP7 DUP3 DUP3 LT PUSH2 0x36C JUMPI DUP7 DUP7 PUSH2 0x323 DUP3 DUP9 SUB DUP4 PUSH2 0x1FE3 JUMP JUMPDEST PUSH1 0x40 MLOAD SWAP3 DUP4 SWAP3 DUP2 DUP5 ADD SWAP1 DUP3 DUP6 MSTORE MLOAD DUP1 SWAP2 MSTORE PUSH1 0x40 DUP5 ADD SWAP3 SWAP2 PUSH1 0x0 JUMPDEST DUP3 DUP2 LT PUSH2 0x34C JUMPI POP POP POP POP SUB SWAP1 RETURN JUMPDEST DUP4 MLOAD PUSH1 0x1 PUSH1 0x1 PUSH1 0xA0 SHL SUB AND DUP6 MSTORE DUP7 SWAP6 POP SWAP4 DUP2 ADD SWAP4 SWAP3 DUP2 ADD SWAP3 PUSH1 0x1 ADD PUSH2 0x33D JUMP JUMPDEST DUP4 SLOAD PUSH1 0x1 PUSH1 0x1 PUSH1 0xA0 SHL SUB AND DUP6 MSTORE SWAP1 SWAP4 ADD SWAP3 PUSH1 0x1 SWAP3 DUP4 ADD SWAP3 ADD PUSH2 0x30D JUMP JUMPDEST CALLVALUE PUSH2 0x164 JUMPI PUSH1 0x0 CALLDATASIZE PUSH1 0x3 NOT ADD SLT PUSH2 0x164 JUMPI PUSH1 0x2 DUP1 SLOAD PUSH2 0x3A7 DUP2 PUSH2 0x2004 JUMP JUMPDEST SWAP2 PUSH2 0x3B5 PUSH1 0x40 MLOAD SWAP4 DUP5 PUSH2 0x1FE3 JUMP JUMPDEST DUP2 DUP4 MSTORE PUSH1 0x20 SWAP2 DUP3 DUP5 ADD DUP1 SWAP3 PUSH1 0x2 PUSH1 0x0 MSTORE PUSH32 0x405787FA12A823E0F2B7631CC41B3BA8828B3321CA811111FA75CD3AA3BB5ACE SWAP1 PUSH1 0x0 SWAP3 JUMPDEST DUP5 DUP5 LT PUSH2 0x576 JUMPI PUSH1 0x40 DUP1 MLOAD DUP9 DUP2 MSTORE DUP10 MLOAD DUP2 DUP11 ADD DUP2 SWAP1 MSTORE PUSH1 0x0 SWAP3 PUSH1 0x5 DUP3 SWAP1 SHL DUP4 ADD DUP2 ADD SWAP2 DUP11 SWAP2 DUP13 SWAP1 DUP6 ADD JUMPDEST DUP3 DUP8 LT PUSH2 0x422 JUMPI DUP6 DUP6 SUB DUP7 RETURN JUMPDEST SWAP1 SWAP2 SWAP3 SWAP4 DUP3 DUP1 PUSH1 0x1 SWAP3 PUSH1 0x3F NOT DUP10 DUP3 SUB ADD DUP6 MSTORE DUP8 MLOAD SWAP1 PUSH2 0x550 PUSH2 0x53C PUSH2 0x49A PUSH2 0x487 PUSH2 0x474 PUSH2 0x462 PUSH2 0x2A0 DUP9 MLOAD DUP9 MSTORE DUP10 DUP10 ADD MLOAD SWAP1 DUP1 DUP12 DUP11 ADD MSTORE DUP9 ADD SWAP1 PUSH2 0x2235 JUMP JUMPDEST PUSH1 0x40 DUP9 ADD MLOAD DUP8 DUP3 SUB PUSH1 0x40 DUP10 ADD MSTORE PUSH2 0x2235 JUMP JUMPDEST PUSH1 0x60 DUP1 DUP9 ADD MLOAD SWAP1 DUP8 DUP4 SUB SWAP1 DUP9 ADD MSTORE PUSH2 0x2235 JUMP JUMPDEST PUSH1 0x80 DUP1 DUP8 ADD MLOAD SWAP1 DUP7 DUP4 SUB SWAP1 DUP8 ADD MSTORE PUSH2 0x2235 JUMP JUMPDEST PUSH1 0xA0 DUP1 DUP7 ADD MLOAD SWAP1 DUP6 ADD MSTORE PUSH1 0xC0 DUP1 DUP7 ADD MLOAD SWAP1 DUP6 ADD MSTORE PUSH1 0xE0 DUP6 ADD MLOAD PUSH1 0xE0 DUP6 ADD MSTORE PUSH2 0x100 DUP1 DUP7 ADD MLOAD SWAP1 DUP6 ADD MSTORE PUSH2 0x120 DUP1 DUP7 ADD MLOAD ISZERO ISZERO SWAP1 DUP6 ADD MSTORE PUSH2 0x140 DUP1 DUP7 ADD MLOAD ISZERO ISZERO SWAP1 DUP6 ADD MSTORE PUSH2 0x160 DUP1 DUP7 ADD MLOAD ISZERO ISZERO SWAP1 DUP6 ADD MSTORE PUSH2 0x180 DUP9 DUP1 PUSH1 0xA0 SHL SUB DUP2 DUP8 ADD MLOAD AND SWAP1 DUP6 ADD MSTORE PUSH2 0x1A0 DUP1 DUP7 ADD MLOAD SWAP1 DUP6 ADD MSTORE PUSH2 0x1C0 DUP1 DUP7 ADD MLOAD SWAP1 DUP6 ADD MSTORE PUSH2 0x1E0 DUP1 DUP7 ADD MLOAD SWAP1 DUP6 ADD MSTORE PUSH2 0x200 DUP1 DUP7 ADD MLOAD SWAP1 DUP6 ADD MSTORE PUSH2 0x220 DUP1 DUP7 ADD MLOAD SWAP1 DUP6 DUP4 SUB SWAP1 DUP7 ADD MSTORE PUSH2 0x2275 JUMP JUMPDEST PUSH2 0x240 DUP1 DUP6 ADD MLOAD SWAP1 DUP5 DUP4 SUB SWAP1 DUP6 ADD MSTORE PUSH2 0x2235 JUMP JUMPDEST SWAP2 PUSH2 0x260 DUP1 DUP3 ADD MLOAD SWAP1 DUP4 ADD MSTORE PUSH2 0x280 DUP1 SWAP2 ADD MLOAD SWAP2 ADD MSTORE SWAP7 ADD SWAP3 ADD SWAP7 ADD SWAP6 SWAP3 SWAP2 SWAP1 SWAP3 PUSH2 0x415 JUMP JUMPDEST PUSH1 0x12 DUP8 PUSH1 0x1 SWAP3 PUSH1 0x40 SWAP11 SWAP10 SWAP11 MLOAD PUSH2 0x58B DUP2 PUSH2 0x1FC7 JUMP JUMPDEST DUP7 SLOAD DUP2 MSTORE PUSH2 0x59A DUP6 DUP9 ADD PUSH2 0x2190 JUMP JUMPDEST DUP4 DUP3 ADD MSTORE PUSH2 0x5A9 DUP7 DUP9 ADD PUSH2 0x2190 JUMP JUMPDEST PUSH1 0x40 DUP3 ADD MSTORE PUSH2 0x5BA PUSH1 0x3 DUP9 ADD PUSH2 0x2190 JUMP JUMPDEST PUSH1 0x60 DUP3 ADD MSTORE PUSH2 0x5CB PUSH1 0x4 DUP9 ADD PUSH2 0x2190 JUMP JUMPDEST PUSH1 0x80 DUP3 ADD MSTORE PUSH1 0x5 DUP8 ADD SLOAD PUSH1 0xA0 DUP3 ADD MSTORE PUSH1 0x6 DUP8 ADD SLOAD PUSH1 0xC0 DUP3 ADD MSTORE PUSH1 0x7 DUP8 ADD SLOAD PUSH1 0xE0 DUP3 ADD MSTORE PUSH1 0x8 DUP1 DUP9 ADD SLOAD PUSH2 0x100 DUP4 ADD MSTORE PUSH1 0x9 DUP9 ADD SLOAD DUP1 SWAP2 PUSH1 0xFF SWAP3 DUP4 SWAP2 DUP3 DUP3 AND ISZERO ISZERO PUSH2 0x120 DUP8 ADD MSTORE SHR AND ISZERO ISZERO PUSH2 0x140 DUP5 ADD MSTORE PUSH1 0x10 SWAP2 DUP2 DUP4 SHR AND ISZERO ISZERO PUSH2 0x160 DUP5 ADD MSTORE DUP7 DUP1 PUSH1 0xA0 SHL SUB SWAP1 PUSH1 0x18 SHR AND PUSH2 0x180 DUP4 ADD MSTORE PUSH1 0xA DUP9 ADD SLOAD PUSH2 0x1A0 DUP4 ADD MSTORE PUSH1 0xB DUP9 ADD SLOAD PUSH2 0x1C0 DUP4 ADD MSTORE PUSH1 0xC DUP9 ADD SLOAD PUSH2 0x1E0 DUP4 ADD MSTORE PUSH1 0xD DUP9 ADD SLOAD PUSH2 0x200 DUP4 ADD MSTORE PUSH2 0x673 PUSH1 0xE DUP10 ADD PUSH2 0x268A JUMP JUMPDEST PUSH2 0x220 DUP4 ADD MSTORE PUSH2 0x685 PUSH1 0xF DUP10 ADD PUSH2 0x2190 JUMP JUMPDEST PUSH2 0x240 DUP4 ADD MSTORE DUP8 ADD SLOAD PUSH2 0x260 DUP3 ADD MSTORE PUSH1 0x11 DUP8 ADD SLOAD PUSH2 0x280 DUP3 ADD MSTORE DUP2 MSTORE ADD SWAP4 ADD SWAP4 ADD SWAP3 SWAP2 SWAP7 SWAP6 SWAP7 PUSH2 0x3EB JUMP JUMPDEST CALLVALUE PUSH2 0x164 JUMPI PUSH2 0x1E0 CALLDATASIZE PUSH1 0x3 NOT ADD SLT PUSH2 0x164 JUMPI PUSH1 0x4 CALLDATALOAD PUSH1 0x1 PUSH1 0x1 PUSH1 0x40 SHL SUB DUP2 GT PUSH2 0x164 JUMPI PUSH2 0x6E1 SWAP1 CALLDATASIZE SWAP1 PUSH1 0x4 ADD PUSH2 0x206D JUMP JUMPDEST PUSH1 0x24 CALLDATALOAD PUSH1 0x1 PUSH1 0x1 PUSH1 0x40 SHL SUB DUP2 GT PUSH2 0x164 JUMPI PUSH2 0x700 SWAP1 CALLDATASIZE SWAP1 PUSH1 0x4 ADD PUSH2 0x206D JUMP JUMPDEST PUSH1 0x44 CALLDATALOAD PUSH1 0x1 PUSH1 0x1 PUSH1 0x40 SHL SUB DUP2 GT PUSH2 0x164 JUMPI PUSH2 0x71F SWAP1 CALLDATASIZE SWAP1 PUSH1 0x4 ADD PUSH2 0x206D JUMP JUMPDEST PUSH1 0x64 CALLDATALOAD PUSH1 0x1 PUSH1 0x1 PUSH1 0x40 SHL SUB DUP2 GT PUSH2 0x164 JUMPI PUSH2 0x73E SWAP1 CALLDATASIZE SWAP1 PUSH1 0x4 ADD PUSH2 0x206D JUMP JUMPDEST PUSH2 0x104 CALLDATALOAD DUP1 ISZERO ISZERO DUP2 SUB PUSH2 0x164 JUMPI PUSH1 0x1 PUSH1 0x1 PUSH1 0x40 SHL SUB PUSH2 0x164 CALLDATALOAD GT PUSH2 0x164 JUMPI CALLDATASIZE PUSH1 0x23 PUSH2 0x164 CALLDATALOAD ADD SLT ISZERO PUSH2 0x164 JUMPI PUSH2 0x77A PUSH2 0x164 CALLDATALOAD PUSH1 0x4 ADD CALLDATALOAD PUSH2 0x2004 JUMP JUMPDEST SWAP2 PUSH2 0x788 PUSH1 0x40 MLOAD SWAP4 DUP5 PUSH2 0x1FE3 JUMP JUMPDEST PUSH2 0x164 CALLDATALOAD PUSH1 0x4 ADD CALLDATALOAD DUP4 MSTORE PUSH1 0x20 DUP4 ADD CALLDATASIZE PUSH1 0x24 PUSH2 0x164 CALLDATALOAD PUSH1 0x4 ADD CALLDATALOAD PUSH1 0x5 SHL PUSH2 0x164 CALLDATALOAD ADD ADD GT PUSH2 0x164 JUMPI PUSH1 0x24 PUSH2 0x164 CALLDATALOAD ADD SWAP1 JUMPDEST PUSH1 0x24 PUSH2 0x164 CALLDATALOAD PUSH1 0x4 ADD CALLDATALOAD PUSH1 0x5 SHL PUSH2 0x164 CALLDATALOAD ADD ADD DUP3 LT PUSH2 0xD5E JUMPI POP POP PUSH2 0x184 CALLDATALOAD PUSH1 0x1 PUSH1 0x1 PUSH1 0x40 SHL SUB DUP2 GT PUSH2 0x164 JUMPI PUSH2 0x7F3 SWAP1 CALLDATASIZE SWAP1 PUSH1 0x4 ADD PUSH2 0x206D JUMP JUMPDEST SWAP4 PUSH1 0xE4 CALLDATALOAD PUSH1 0xC4 CALLDATALOAD LT ISZERO PUSH2 0xD0E JUMPI PUSH1 0x84 CALLDATALOAD ISZERO PUSH2 0xCC9 JUMPI PUSH2 0x144 CALLDATALOAD ISZERO PUSH2 0xC74 JUMPI DUP4 MLOAD ISZERO PUSH2 0xC37 JUMPI PUSH1 0x1 SLOAD PUSH1 0x40 MLOAD PUSH4 0x70A08231 PUSH1 0xE0 SHL DUP2 MSTORE CALLER PUSH1 0x4 DUP3 ADD MSTORE SWAP1 PUSH1 0x20 SWAP1 DUP3 SWAP1 PUSH1 0x24 SWAP1 DUP3 SWAP1 PUSH1 0x1 PUSH1 0x1 PUSH1 0xA0 SHL SUB AND GAS STATICCALL DUP1 ISZERO PUSH2 0xB35 JUMPI PUSH1 0x0 SWAP1 PUSH2 0xC03 JUMPI JUMPDEST PUSH2 0x862 SWAP2 POP PUSH2 0x124 CALLDATALOAD GT ISZERO PUSH2 0x2441 JUMP JUMPDEST CALLER PUSH1 0x0 MSTORE PUSH1 0xA PUSH1 0x20 MSTORE PUSH2 0x87C PUSH1 0x40 PUSH1 0x0 KECCAK256 PUSH1 0x2 SLOAD SWAP1 PUSH2 0x23FF JUMP JUMPDEST PUSH1 0x2 SLOAD SWAP6 PUSH1 0x40 MLOAD SWAP8 PUSH2 0x88D DUP10 PUSH2 0x1FC7 JUMP JUMPDEST DUP8 DUP10 MSTORE PUSH1 0x20 DUP10 ADD MSTORE PUSH1 0x40 DUP9 ADD MSTORE PUSH1 0x60 DUP8 ADD MSTORE PUSH1 0x80 DUP7 ADD MSTORE PUSH1 0x84 CALLDATALOAD PUSH1 0xA0 DUP7 ADD MSTORE PUSH1 0xA4 CALLDATALOAD PUSH1 0xC0 DUP7 ADD MSTORE PUSH1 0xC4 CALLDATALOAD PUSH1 0xE0 DUP7 ADD MSTORE PUSH1 0xE4 CALLDATALOAD PUSH2 0x100 DUP7 ADD MSTORE PUSH1 0x0 PUSH2 0x120 DUP7 ADD MSTORE PUSH1 0x0 PUSH2 0x140 DUP7 ADD MSTORE ISZERO ISZERO PUSH2 0x160 DUP6 ADD MSTORE CALLER PUSH2 0x180 DUP6 ADD MSTORE PUSH2 0x124 CALLDATALOAD PUSH2 0x1A0 DUP6 ADD MSTORE PUSH2 0x124 CALLDATALOAD PUSH2 0x1C0 DUP6 ADD MSTORE PUSH1 0x0 PUSH2 0x1E0 DUP6 ADD MSTORE PUSH2 0x144 CALLDATALOAD PUSH2 0x200 DUP6 ADD MSTORE PUSH2 0x220 DUP5 ADD MSTORE PUSH2 0x240 DUP4 ADD MSTORE PUSH2 0x1A4 CALLDATALOAD PUSH2 0x260 DUP4 ADD MSTORE PUSH2 0x1C4 CALLDATALOAD PUSH2 0x280 DUP4 ADD MSTORE PUSH1 0x1 PUSH1 0x40 SHL DUP2 LT ISZERO PUSH2 0xBD7 JUMPI DUP1 PUSH1 0x1 PUSH2 0x946 SWAP3 ADD PUSH1 0x2 SSTORE PUSH2 0x211B JUMP JUMPDEST SWAP2 SWAP1 SWAP2 PUSH2 0xBED JUMPI DUP1 MLOAD DUP3 SSTORE PUSH2 0x962 PUSH1 0x20 DUP3 ADD MLOAD PUSH1 0x1 DUP5 ADD PUSH2 0x2558 JUMP JUMPDEST PUSH2 0x973 PUSH1 0x40 DUP3 ADD MLOAD PUSH1 0x2 DUP5 ADD PUSH2 0x2558 JUMP JUMPDEST PUSH2 0x984 PUSH1 0x60 DUP3 ADD MLOAD PUSH1 0x3 DUP5 ADD PUSH2 0x2558 JUMP JUMPDEST PUSH2 0x995 PUSH1 0x80 DUP3 ADD MLOAD PUSH1 0x4 DUP5 ADD PUSH2 0x2558 JUMP JUMPDEST PUSH1 0xA0 DUP2 ADD MLOAD PUSH1 0x5 DUP4 ADD SSTORE PUSH1 0xC0 DUP2 ADD MLOAD PUSH1 0x6 DUP4 ADD SSTORE PUSH1 0xE0 DUP2 ADD MLOAD PUSH1 0x7 DUP4 ADD SSTORE PUSH2 0x100 DUP2 ADD MLOAD PUSH1 0x8 DUP4 ADD SSTORE PUSH1 0x9 DUP3 ADD PUSH2 0x120 DUP3 ADD MLOAD ISZERO ISZERO DUP2 SLOAD SWAP1 PUSH2 0x140 DUP5 ADD MLOAD ISZERO ISZERO PUSH1 0x8 SHL PUSH2 0xFF00 PUSH2 0x160 DUP7 ADD MLOAD ISZERO ISZERO SWAP4 PUSH3 0xFF0000 PUSH4 0x1000000 PUSH1 0x1 PUSH1 0xB8 SHL SUB PUSH2 0x180 DUP10 ADD MLOAD PUSH1 0x18 SHL AND SWAP6 PUSH1 0x10 SHL AND SWAP4 PUSH1 0xFF PUSH3 0x10000 PUSH1 0x1 PUSH1 0xB8 SHL SUB NOT SWAP2 AND AND SWAP1 PUSH9 0xFFFFFFFFFFFFFFFFFF PUSH1 0xB8 SHL AND OR SWAP2 AND OR OR OR SWAP1 SSTORE PUSH2 0x1A0 DUP2 ADD MLOAD PUSH1 0xA DUP4 ADD SSTORE PUSH2 0x1C0 DUP2 ADD MLOAD PUSH1 0xB DUP4 ADD SSTORE PUSH2 0x1E0 DUP2 ADD MLOAD PUSH1 0xC DUP4 ADD SSTORE PUSH2 0x200 DUP2 ADD MLOAD PUSH1 0xD DUP4 ADD SSTORE PUSH2 0x220 DUP2 ADD MLOAD DUP1 MLOAD SWAP1 PUSH1 0x1 PUSH1 0x40 SHL DUP3 GT PUSH2 0xBD7 JUMPI PUSH1 0xE DUP5 ADD SLOAD DUP3 PUSH1 0xE DUP7 ADD SSTORE DUP1 DUP4 LT PUSH2 0xB5E JUMPI JUMPDEST POP PUSH1 0x20 ADD PUSH1 0xE DUP5 ADD PUSH1 0x0 MSTORE PUSH1 0x20 PUSH1 0x0 KECCAK256 PUSH1 0x0 SWAP2 JUMPDEST DUP4 DUP4 LT PUSH2 0xB41 JUMPI DUP6 PUSH1 0x11 PUSH2 0x280 DUP8 PUSH2 0xAB1 PUSH2 0x240 DUP3 ADD MLOAD PUSH1 0xF DUP7 ADD PUSH2 0x2558 JUMP JUMPDEST PUSH2 0x260 DUP2 ADD MLOAD PUSH1 0x10 DUP6 ADD SSTORE ADD MLOAD SWAP2 ADD SSTORE PUSH1 0x1 SLOAD PUSH1 0x40 MLOAD PUSH4 0x23B872DD PUSH1 0xE0 SHL DUP2 MSTORE CALLER PUSH1 0x4 DUP3 ADD MSTORE ADDRESS PUSH1 0x24 DUP3 ADD MSTORE PUSH2 0x124 CALLDATALOAD PUSH1 0x44 DUP3 ADD MSTORE SWAP1 PUSH1 0x20 SWAP1 DUP3 SWAP1 PUSH1 0x64 SWAP1 DUP3 SWAP1 PUSH1 0x0 SWAP1 PUSH1 0x1 PUSH1 0x1 PUSH1 0xA0 SHL SUB AND GAS CALL DUP1 ISZERO PUSH2 0xB35 JUMPI PUSH2 0xB0B JUMPI STOP JUMPDEST PUSH2 0xB2C SWAP1 PUSH1 0x20 RETURNDATASIZE PUSH1 0x20 GT PUSH2 0xB2E JUMPI JUMPDEST PUSH2 0xB24 DUP2 DUP4 PUSH2 0x1FE3 JUMP JUMPDEST DUP2 ADD SWAP1 PUSH2 0x24CE JUMP JUMPDEST STOP JUMPDEST POP RETURNDATASIZE PUSH2 0xB1A JUMP JUMPDEST PUSH1 0x40 MLOAD RETURNDATASIZE PUSH1 0x0 DUP3 RETURNDATACOPY RETURNDATASIZE SWAP1 REVERT JUMPDEST PUSH1 0x1 PUSH1 0x20 DUP3 PUSH2 0xB52 DUP4 SWAP5 MLOAD DUP7 PUSH2 0x2558 JUMP JUMPDEST ADD SWAP3 ADD SWAP3 ADD SWAP2 SWAP1 PUSH2 0xA91 JUMP JUMPDEST PUSH1 0xE DUP6 ADD PUSH1 0x0 MSTORE PUSH1 0x20 PUSH1 0x0 KECCAK256 SWAP1 DUP4 DUP3 ADD JUMPDEST DUP2 DUP4 ADD DUP2 LT PUSH2 0xB7F JUMPI POP POP PUSH2 0xA7D JUMP JUMPDEST DUP1 PUSH2 0xB8C PUSH1 0x1 SWAP3 SLOAD PUSH2 0x2156 JUMP JUMPDEST DUP1 PUSH2 0xB99 JUMPI JUMPDEST POP ADD PUSH2 0xB6F JUMP JUMPDEST PUSH1 0x1F SWAP1 DUP2 DUP2 GT DUP5 EQ PUSH2 0xBB2 JUMPI POP POP PUSH1 0x0 DUP2 SSTORE JUMPDEST DUP9 PUSH2 0xB92 JUMP JUMPDEST PUSH2 0xBCE PUSH1 0x0 SWAP3 DUP5 DUP5 MSTORE PUSH1 0x20 DUP5 KECCAK256 SWAP3 ADD PUSH1 0x5 SHR DUP3 ADD DUP6 DUP4 ADD PUSH2 0x2541 JUMP JUMPDEST DUP2 DUP4 SSTORE SSTORE PUSH2 0xBAC JUMP JUMPDEST PUSH4 0x4E487B71 PUSH1 0xE0 SHL PUSH1 0x0 MSTORE PUSH1 0x41 PUSH1 0x4 MSTORE PUSH1 0x24 PUSH1 0x0 REVERT JUMPDEST PUSH4 0x4E487B71 PUSH1 0xE0 SHL PUSH1 0x0 MSTORE PUSH1 0x0 PUSH1 0x4 MSTORE PUSH1 0x24 PUSH1 0x0 REVERT JUMPDEST POP PUSH1 0x20 DUP2 RETURNDATASIZE PUSH1 0x20 GT PUSH2 0xC2F JUMPI JUMPDEST DUP2 PUSH2 0xC1D PUSH1 0x20 SWAP4 DUP4 PUSH2 0x1FE3 JUMP JUMPDEST DUP2 ADD SUB SLT PUSH2 0x164 JUMPI PUSH2 0x862 SWAP1 MLOAD PUSH2 0x852 JUMP JUMPDEST RETURNDATASIZE SWAP2 POP PUSH2 0xC10 JUMP JUMPDEST PUSH1 0x40 MLOAD PUSH3 0x461BCD PUSH1 0xE5 SHL DUP2 MSTORE PUSH1 0x20 PUSH1 0x4 DUP3 ADD MSTORE PUSH1 0x15 PUSH1 0x24 DUP3 ADD MSTORE PUSH21 0x555249206D757374206E6F7420626520656D707479 PUSH1 0x58 SHL PUSH1 0x44 DUP3 ADD MSTORE PUSH1 0x64 SWAP1 REVERT JUMPDEST PUSH1 0x40 MLOAD PUSH3 0x461BCD PUSH1 0xE5 SHL DUP2 MSTORE PUSH1 0x20 PUSH1 0x4 DUP3 ADD MSTORE PUSH1 0x27 PUSH1 0x24 DUP3 ADD MSTORE PUSH32 0x4D6178207061727469636970616E7473206D7573742062652067726561746572 PUSH1 0x44 DUP3 ADD MSTORE PUSH7 0x207468616E203 PUSH1 0xCC SHL PUSH1 0x64 DUP3 ADD MSTORE PUSH1 0x84 SWAP1 REVERT JUMPDEST PUSH1 0x40 MLOAD PUSH3 0x461BCD PUSH1 0xE5 SHL DUP2 MSTORE PUSH1 0x20 PUSH1 0x4 DUP3 ADD MSTORE PUSH1 0x1D PUSH1 0x24 DUP3 ADD MSTORE PUSH32 0x546172676574206D7573742062652067726561746572207468616E2030000000 PUSH1 0x44 DUP3 ADD MSTORE PUSH1 0x64 SWAP1 REVERT JUMPDEST PUSH1 0x40 MLOAD PUSH3 0x461BCD PUSH1 0xE5 SHL DUP2 MSTORE PUSH1 0x20 PUSH1 0x4 DUP3 ADD MSTORE PUSH1 0x22 PUSH1 0x24 DUP3 ADD MSTORE PUSH32 0x53746172742064617465206D757374206265206265666F726520656E64206461 PUSH1 0x44 DUP3 ADD MSTORE PUSH2 0x7465 PUSH1 0xF0 SHL PUSH1 0x64 DUP3 ADD MSTORE PUSH1 0x84 SWAP1 REVERT JUMPDEST DUP2 CALLDATALOAD PUSH1 0x1 PUSH1 0x1 PUSH1 0x40 SHL SUB DUP2 GT PUSH2 0x164 JUMPI PUSH1 0x20 SWAP2 PUSH2 0xD85 DUP4 SWAP3 PUSH1 0x24 CALLDATASIZE SWAP2 PUSH2 0x164 CALLDATALOAD ADD ADD PUSH2 0x206D JUMP JUMPDEST DUP2 MSTORE ADD SWAP2 ADD SWAP1 PUSH2 0x7B8 JUMP JUMPDEST CALLVALUE PUSH2 0x164 JUMPI PUSH1 0x40 CALLDATASIZE PUSH1 0x3 NOT ADD SLT PUSH2 0x164 JUMPI PUSH2 0xDA9 PUSH2 0x1FB1 JUMP JUMPDEST PUSH1 0x1 PUSH1 0x1 PUSH1 0xA0 SHL SUB AND PUSH1 0x0 SWAP1 DUP2 MSTORE PUSH1 0xB PUSH1 0x20 MSTORE PUSH1 0x40 SWAP1 KECCAK256 DUP1 SLOAD PUSH1 0x24 CALLDATALOAD SWAP2 SWAP1 DUP3 LT ISZERO PUSH2 0x164 JUMPI PUSH1 0x20 SWAP2 PUSH2 0xDDA SWAP2 PUSH2 0x20ED JUMP JUMPDEST SWAP1 SLOAD PUSH1 0x40 MLOAD SWAP2 PUSH1 0x3 SHL SHR DUP2 MSTORE RETURN JUMPDEST CALLVALUE PUSH2 0x164 JUMPI PUSH1 0x20 CALLDATASIZE PUSH1 0x3 NOT ADD SLT PUSH2 0x164 JUMPI PUSH2 0xE22 PUSH2 0xE07 PUSH1 0x4 CALLDATALOAD PUSH2 0x211B JUMP JUMPDEST POP PUSH1 0x9 ADD SLOAD CALLER PUSH1 0x18 SWAP2 SWAP1 SWAP2 SHR PUSH1 0x1 PUSH1 0x1 PUSH1 0xA0 SHL SUB AND EQ PUSH2 0x22D2 JUMP JUMPDEST PUSH1 0x9 PUSH2 0xE2F PUSH1 0x4 CALLDATALOAD PUSH2 0x211B JUMP JUMPDEST POP ADD SLOAD PUSH2 0xE44 PUSH1 0xFF PUSH1 0x8 SWAP3 PUSH1 0x8 SHR AND ISZERO PUSH2 0x232A JUMP JUMPDEST PUSH1 0x9 PUSH2 0xE51 PUSH1 0x4 CALLDATALOAD PUSH2 0x211B JUMP JUMPDEST POP ADD DUP1 SLOAD PUSH2 0xFF00 NOT AND PUSH2 0x100 OR SWAP1 SSTORE PUSH1 0x5 PUSH2 0xE6D PUSH1 0x4 CALLDATALOAD PUSH2 0x211B JUMP JUMPDEST POP ADD SLOAD PUSH1 0x55 DUP2 MUL SWAP1 DUP1 DUP3 DIV PUSH1 0x55 EQ SWAP1 ISZERO OR ISZERO PUSH2 0x104C JUMPI SWAP1 PUSH1 0x5 PUSH2 0xE91 PUSH1 0x4 CALLDATALOAD PUSH2 0x211B JUMP JUMPDEST POP ADD SLOAD SWAP2 PUSH1 0xC PUSH2 0xEA2 PUSH1 0x4 CALLDATALOAD PUSH2 0x211B JUMP JUMPDEST POP ADD SLOAD SWAP2 PUSH1 0x0 SWAP2 PUSH1 0x0 SWAP1 PUSH1 0x0 SWAP3 PUSH1 0x0 SWAP2 JUMPDEST DUP7 DUP4 LT PUSH2 0xFE9 JUMPI POP POP POP PUSH2 0xEE8 SWAP3 SWAP2 PUSH2 0xEDE PUSH2 0xEE3 SWAP3 PUSH1 0xA PUSH2 0xED6 PUSH1 0x4 CALLDATALOAD PUSH2 0x211B JUMP JUMPDEST POP ADD SLOAD PUSH2 0x267D JUMP JUMPDEST PUSH2 0x267D JUMP JUMPDEST PUSH2 0x265D JUMP JUMPDEST SWAP2 PUSH1 0x0 JUMPDEST DUP3 DUP2 LT PUSH2 0xEF5 JUMPI STOP JUMPDEST DUP4 SWAP1 PUSH1 0x4 CALLDATALOAD PUSH1 0x0 MSTORE PUSH1 0x6 PUSH1 0x20 MSTORE PUSH1 0x40 PUSH1 0x0 KECCAK256 PUSH1 0x3 SWAP1 DUP2 PUSH1 0x20 MSTORE PUSH2 0xF1C DUP4 PUSH1 0x40 PUSH1 0x0 KECCAK256 PUSH2 0x20ED JUMP JUMPDEST PUSH1 0x1 DUP1 PUSH1 0xA0 SHL SUB SWAP2 SLOAD SWAP1 DUP5 SHL SHR AND PUSH1 0x0 MSTORE PUSH1 0x20 MSTORE DUP4 PUSH1 0x40 PUSH1 0x0 KECCAK256 SLOAD EQ PUSH2 0xF48 JUMPI JUMPDEST POP PUSH1 0x1 SWAP2 POP ADD PUSH2 0xEEC JUMP JUMPDEST PUSH2 0xFAF SWAP3 PUSH1 0x20 SWAP2 PUSH1 0x1 DUP1 PUSH1 0xA0 SHL SUB PUSH1 0x1 SLOAD AND SWAP1 PUSH1 0x4 CALLDATALOAD PUSH1 0x0 MSTORE DUP1 DUP5 MSTORE PUSH2 0xF72 DUP6 PUSH1 0x40 PUSH1 0x0 KECCAK256 PUSH2 0x20ED JUMP JUMPDEST SWAP1 SLOAD PUSH1 0x40 MLOAD PUSH4 0xA9059CBB PUSH1 0xE0 SHL DUP2 MSTORE PUSH1 0x1 PUSH1 0x1 PUSH1 0xA0 SHL SUB SWAP3 SWAP1 SWAP4 SHL SHR AND PUSH1 0x4 DUP3 ADD MSTORE PUSH1 0x24 DUP2 ADD SWAP3 SWAP1 SWAP3 MSTORE SWAP1 SWAP4 DUP5 SWAP2 SWAP1 DUP3 SWAP1 PUSH1 0x0 SWAP1 DUP3 SWAP1 PUSH1 0x44 DUP3 ADD SWAP1 JUMP JUMPDEST SUB SWAP3 GAS CALL SWAP2 DUP3 ISZERO PUSH2 0xB35 JUMPI PUSH1 0x1 SWAP3 PUSH2 0xFCA JUMPI JUMPDEST DUP6 SWAP3 POP PUSH2 0xF3D JUMP JUMPDEST PUSH2 0xFE2 SWAP1 PUSH1 0x20 RETURNDATASIZE PUSH1 0x20 GT PUSH2 0xB2E JUMPI PUSH2 0xB24 DUP2 DUP4 PUSH2 0x1FE3 JUMP JUMPDEST POP DUP6 PUSH2 0xFC2 JUMP JUMPDEST SWAP1 SWAP2 SWAP5 PUSH1 0x4 CALLDATALOAD PUSH1 0x0 MSTORE DUP3 PUSH1 0x20 MSTORE PUSH1 0x40 PUSH1 0x0 KECCAK256 PUSH1 0x3 PUSH1 0x20 MSTORE PUSH2 0x100E DUP8 PUSH1 0x40 PUSH1 0x0 KECCAK256 PUSH2 0x20ED JUMP JUMPDEST PUSH1 0x1 DUP1 PUSH1 0xA0 SHL SUB SWAP2 SLOAD SWAP1 PUSH1 0x3 SHL SHR AND PUSH1 0x0 MSTORE PUSH1 0x20 MSTORE PUSH1 0x40 PUSH1 0x0 KECCAK256 SLOAD DUP9 DUP2 EQ PUSH1 0x0 EQ PUSH2 0x1062 JUMPI POP PUSH1 0x1 DUP2 ADD DUP1 SWAP2 GT PUSH2 0x104C JUMPI PUSH1 0x1 SWAP1 SWAP6 JUMPDEST ADD SWAP2 SWAP1 PUSH2 0xEB3 JUMP JUMPDEST PUSH4 0x4E487B71 PUSH1 0xE0 SHL PUSH1 0x0 MSTORE PUSH1 0x11 PUSH1 0x4 MSTORE PUSH1 0x24 PUSH1 0x0 REVERT JUMPDEST SWAP1 SWAP6 DUP2 PUSH1 0x64 DUP5 DIV GT ISZERO DUP1 PUSH2 0x11EB JUMPI JUMPDEST ISZERO PUSH2 0x1160 JUMPI PUSH2 0x1128 SWAP2 POP PUSH1 0x4 CALLDATALOAD PUSH1 0x0 MSTORE PUSH1 0x4 PUSH1 0x20 MSTORE PUSH1 0x40 PUSH1 0x0 KECCAK256 PUSH1 0x3 PUSH1 0x20 MSTORE PUSH2 0x109E DUP3 PUSH1 0x40 PUSH1 0x0 KECCAK256 PUSH2 0x20ED JUMP JUMPDEST PUSH1 0x1 DUP1 PUSH1 0xA0 SHL SUB SWAP2 SLOAD SWAP1 PUSH1 0x3 SHL SHR AND PUSH1 0x0 MSTORE PUSH1 0x20 MSTORE PUSH1 0x20 PUSH2 0x10C5 PUSH1 0x40 PUSH1 0x0 KECCAK256 SLOAD DUP1 SWAP8 PUSH2 0x2434 JUMP JUMPDEST SWAP6 PUSH1 0x1 DUP1 PUSH1 0xA0 SHL SUB PUSH1 0x1 SLOAD AND PUSH1 0x4 CALLDATALOAD PUSH1 0x0 MSTORE PUSH1 0x3 DUP4 MSTORE PUSH2 0x10E9 DUP5 PUSH1 0x40 PUSH1 0x0 KECCAK256 PUSH2 0x20ED JUMP JUMPDEST SWAP1 SLOAD PUSH1 0x40 MLOAD PUSH4 0xA9059CBB PUSH1 0xE0 SHL DUP2 MSTORE PUSH1 0x3 SWAP3 SWAP1 SWAP3 SHL SHR PUSH1 0x1 PUSH1 0x1 PUSH1 0xA0 SHL SUB AND PUSH1 0x4 DUP3 ADD MSTORE PUSH1 0x24 DUP2 ADD SWAP3 SWAP1 SWAP3 MSTORE SWAP1 SWAP4 DUP5 SWAP2 SWAP1 DUP3 SWAP1 PUSH1 0x0 SWAP1 DUP3 SWAP1 PUSH1 0x44 DUP3 ADD SWAP1 JUMP JUMPDEST SUB SWAP3 GAS CALL SWAP2 DUP3 ISZERO PUSH2 0xB35 JUMPI PUSH1 0x1 SWAP3 PUSH2 0x1141 JUMPI JUMPDEST POP PUSH2 0x1044 JUMP JUMPDEST PUSH2 0x1159 SWAP1 PUSH1 0x20 RETURNDATASIZE PUSH1 0x20 GT PUSH2 0xB2E JUMPI PUSH2 0xB24 DUP2 DUP4 PUSH2 0x1FE3 JUMP JUMPDEST POP DUP10 PUSH2 0x113B JUMP JUMPDEST PUSH1 0x4 CALLDATALOAD PUSH1 0x0 MSTORE PUSH1 0x4 PUSH1 0x20 MSTORE PUSH1 0x40 PUSH1 0x0 KECCAK256 PUSH1 0x3 PUSH1 0x20 MSTORE PUSH2 0x1183 DUP3 PUSH1 0x40 PUSH1 0x0 KECCAK256 PUSH2 0x20ED JUMP JUMPDEST PUSH1 0x1 DUP1 PUSH1 0xA0 SHL SUB SWAP2 SLOAD SWAP1 PUSH1 0x3 SHL SHR AND PUSH1 0x0 MSTORE PUSH1 0x20 MSTORE PUSH1 0x40 PUSH1 0x0 KECCAK256 SLOAD DUP3 DUP2 MUL SWAP3 DUP2 DUP5 DIV EQ SWAP1 ISZERO OR ISZERO PUSH2 0x104C JUMPI PUSH1 0x20 PUSH2 0x11C7 PUSH2 0x11C0 DUP12 PUSH2 0x1128 SWAP6 PUSH2 0x265D JUMP JUMPDEST DUP1 SWAP9 PUSH2 0x2434 JUMP JUMPDEST SWAP7 PUSH1 0x1 DUP1 PUSH1 0xA0 SHL SUB PUSH1 0x1 SLOAD AND PUSH1 0x4 CALLDATALOAD PUSH1 0x0 MSTORE PUSH1 0x3 DUP4 MSTORE PUSH2 0x10E9 DUP5 PUSH1 0x40 PUSH1 0x0 KECCAK256 PUSH2 0x20ED JUMP JUMPDEST POP DUP9 DUP3 LT PUSH2 0x1071 JUMP JUMPDEST CALLVALUE PUSH2 0x164 JUMPI PUSH1 0x0 CALLDATASIZE PUSH1 0x3 NOT ADD SLT PUSH2 0x164 JUMPI PUSH1 0x0 SLOAD PUSH1 0x40 MLOAD PUSH1 0x1 PUSH1 0x1 PUSH1 0xA0 SHL SUB SWAP1 SWAP2 AND DUP2 MSTORE PUSH1 0x20 SWAP1 RETURN JUMPDEST CALLVALUE PUSH2 0x164 JUMPI PUSH2 0x122B CALLDATASIZE PUSH2 0x20C3 JUMP JUMPDEST SWAP2 PUSH1 0x0 MSTORE PUSH1 0x7 PUSH1 0x20 MSTORE PUSH1 0x40 PUSH1 0x0 KECCAK256 SWAP1 PUSH1 0x1 DUP1 PUSH1 0xA0 SHL SUB AND PUSH1 0x0 MSTORE PUSH1 0x20 MSTORE PUSH1 0x40 PUSH1 0x0 KECCAK256 SWAP1 DUP2 SLOAD DUP2 LT ISZERO PUSH2 0x164 JUMPI PUSH2 0x1260 SWAP2 PUSH2 0x20ED JUMP JUMPDEST PUSH2 0xBED JUMPI PUSH2 0x1270 PUSH2 0x1C5 SWAP2 PUSH2 0x2190 JUMP JUMPDEST PUSH1 0x40 MLOAD SWAP2 DUP3 SWAP2 PUSH1 0x20 DUP4 MSTORE PUSH1 0x20 DUP4 ADD SWAP1 PUSH2 0x2235 JUMP JUMPDEST CALLVALUE PUSH2 0x164 JUMPI PUSH2 0x1292 CALLDATASIZE PUSH2 0x201B JUMP JUMPDEST SWAP1 PUSH1 0x0 MSTORE PUSH1 0x3 PUSH1 0x20 MSTORE PUSH1 0x40 PUSH1 0x0 KECCAK256 DUP1 SLOAD DUP3 LT ISZERO PUSH2 0x164 JUMPI PUSH1 0x20 SWAP2 PUSH2 0x12B5 SWAP2 PUSH2 0x20ED JUMP JUMPDEST SWAP1 SLOAD PUSH1 0x40 MLOAD PUSH1 0x3 SWAP3 SWAP1 SWAP3 SHL SHR PUSH1 0x1 PUSH1 0x1 PUSH1 0xA0 SHL SUB AND DUP2 MSTORE RETURN JUMPDEST CALLVALUE PUSH2 0x164 JUMPI PUSH1 0x20 DUP1 PUSH1 0x3 NOT CALLDATASIZE ADD SLT PUSH2 0x164 JUMPI PUSH1 0x4 CALLDATALOAD DUP1 PUSH1 0x0 MSTORE PUSH1 0x5 DUP3 MSTORE PUSH1 0x40 PUSH1 0x0 KECCAK256 CALLER PUSH1 0x0 MSTORE DUP3 MSTORE PUSH2 0x130C PUSH1 0x1 PUSH1 0xFF PUSH1 0x40 PUSH1 0x0 KECCAK256 SLOAD AND ISZERO ISZERO EQ PUSH2 0x24E6 JUMP JUMPDEST PUSH1 0x0 MSTORE PUSH1 0x4 DUP2 MSTORE PUSH1 0x40 PUSH1 0x0 KECCAK256 CALLER PUSH1 0x0 MSTORE DUP2 MSTORE PUSH1 0x40 PUSH1 0x0 KECCAK256 SLOAD PUSH1 0x40 MLOAD SWAP1 DUP2 MSTORE RETURN JUMPDEST CALLVALUE PUSH2 0x164 JUMPI PUSH1 0x40 CALLDATASIZE PUSH1 0x3 NOT ADD SLT PUSH2 0x164 JUMPI PUSH2 0x1345 PUSH2 0x1F9B JUMP JUMPDEST PUSH1 0x4 CALLDATALOAD PUSH1 0x0 MSTORE PUSH1 0x5 PUSH1 0x20 MSTORE PUSH1 0x40 PUSH1 0x0 KECCAK256 SWAP1 PUSH1 0x1 DUP1 PUSH1 0xA0 SHL SUB AND PUSH1 0x0 MSTORE PUSH1 0x20 MSTORE PUSH1 0x20 PUSH1 0xFF PUSH1 0x40 PUSH1 0x0 KECCAK256 SLOAD AND PUSH1 0x40 MLOAD SWAP1 ISZERO ISZERO DUP2 MSTORE RETURN JUMPDEST CALLVALUE PUSH2 0x164 JUMPI PUSH1 0x40 CALLDATASIZE PUSH1 0x3 NOT ADD SLT PUSH2 0x164 JUMPI PUSH2 0x1392 PUSH2 0x1FB1 JUMP JUMPDEST PUSH1 0x1 PUSH1 0x1 PUSH1 0xA0 SHL SUB AND PUSH1 0x0 SWAP1 DUP2 MSTORE PUSH1 0xA PUSH1 0x20 MSTORE PUSH1 0x40 SWAP1 KECCAK256 DUP1 SLOAD PUSH1 0x24 CALLDATALOAD SWAP2 SWAP1 DUP3 LT ISZERO PUSH2 0x164 JUMPI PUSH1 0x20 SWAP2 PUSH2 0xDDA SWAP2 PUSH2 0x20ED JUMP JUMPDEST CALLVALUE PUSH2 0x164 JUMPI PUSH1 0x20 CALLDATASIZE PUSH1 0x3 NOT ADD SLT PUSH2 0x164 JUMPI PUSH1 0x4 CALLDATALOAD PUSH1 0x2 SLOAD DUP2 LT ISZERO PUSH2 0x164 JUMPI PUSH2 0x13EA SWAP1 PUSH2 0x211B JUMP JUMPDEST POP DUP1 SLOAD SWAP1 PUSH2 0x13FA PUSH1 0x1 DUP3 ADD PUSH2 0x2190 JUMP JUMPDEST PUSH1 0xA0 MSTORE PUSH2 0x1409 PUSH1 0x2 DUP3 ADD PUSH2 0x2190 JUMP JUMPDEST PUSH1 0xE0 MSTORE PUSH2 0x1418 PUSH1 0x3 DUP3 ADD PUSH2 0x2190 JUMP JUMPDEST PUSH2 0x1424 PUSH1 0x4 DUP4 ADD PUSH2 0x2190 JUMP JUMPDEST SWAP1 PUSH1 0x5 DUP4 ADD SLOAD SWAP2 PUSH1 0x6 DUP5 ADD SLOAD PUSH1 0x7 DUP6 ADD SLOAD PUSH1 0x8 DUP7 ADD SLOAD PUSH1 0x9 DUP8 ADD SLOAD SWAP1 PUSH1 0xA DUP9 ADD SLOAD SWAP3 PUSH1 0xB DUP10 ADD SLOAD SWAP5 PUSH1 0xC DUP11 ADD SLOAD SWAP7 PUSH1 0xD DUP12 ADD SLOAD SWAP9 PUSH1 0xF DUP13 ADD PUSH2 0x1465 SWAP1 PUSH2 0x2190 JUMP JUMPDEST SWAP12 PUSH1 0x10 DUP2 ADD SLOAD PUSH1 0x80 MSTORE PUSH1 0x11 ADD SLOAD SWAP13 PUSH1 0x40 MLOAD PUSH1 0xC0 MSTORE PUSH2 0x280 SWAP1 PUSH1 0xC0 MLOAD MSTORE DUP1 PUSH1 0xC0 MLOAD PUSH1 0x20 ADD MSTORE PUSH1 0xC0 MLOAD ADD PUSH1 0xA0 MLOAD SWAP1 PUSH2 0x149A SWAP2 PUSH2 0x2235 JUMP JUMPDEST PUSH1 0xC0 MLOAD DUP2 SUB PUSH1 0xC0 MLOAD PUSH1 0x40 ADD MSTORE PUSH1 0xE0 MLOAD SWAP1 PUSH2 0x14B3 SWAP2 PUSH2 0x2235 JUMP JUMPDEST PUSH1 0xC0 MLOAD DUP2 SUB PUSH1 0xC0 MLOAD PUSH1 0x60 ADD MSTORE PUSH2 0x14C8 SWAP2 PUSH2 0x2235 JUMP JUMPDEST PUSH1 0xC0 MLOAD DUP2 SUB PUSH1 0xC0 MLOAD PUSH1 0x80 ADD MSTORE PUSH2 0x14DD SWAP2 PUSH2 0x2235 JUMP JUMPDEST SWAP9 PUSH1 0xC0 MLOAD PUSH1 0xA0 ADD MSTORE PUSH1 0xC0 MLOAD PUSH1 0xC0 ADD MSTORE PUSH1 0xC0 MLOAD PUSH1 0xE0 ADD MSTORE PUSH1 0xC0 MLOAD PUSH2 0x100 ADD MSTORE PUSH1 0xFF DUP2 AND ISZERO ISZERO PUSH1 0xC0 MLOAD PUSH2 0x120 ADD MSTORE DUP1 PUSH1 0x8 SHR PUSH1 0xFF AND ISZERO ISZERO PUSH1 0xC0 MLOAD PUSH2 0x140 ADD MSTORE DUP1 PUSH1 0x10 SHR PUSH1 0xFF AND ISZERO ISZERO PUSH1 0xC0 MLOAD PUSH2 0x160 ADD MSTORE PUSH1 0x1 PUSH1 0xA0 SHL PUSH1 0x1 SWAP1 SUB SWAP1 PUSH1 0x18 SHR AND PUSH1 0xC0 MLOAD PUSH2 0x180 ADD MSTORE PUSH1 0xC0 MLOAD PUSH2 0x1A0 ADD MSTORE PUSH1 0xC0 MLOAD PUSH2 0x1C0 ADD MSTORE PUSH1 0xC0 MLOAD PUSH2 0x1E0 ADD MSTORE PUSH1 0xC0 MLOAD PUSH2 0x200 ADD MSTORE PUSH1 0xC0 MLOAD DUP2 SUB PUSH1 0xC0 MLOAD PUSH2 0x220 ADD MSTORE PUSH2 0x1577 SWAP2 PUSH2 0x2235 JUMP JUMPDEST SWAP1 PUSH1 0x80 MLOAD PUSH1 0xC0 MLOAD PUSH2 0x240 ADD MSTORE PUSH1 0xC0 MLOAD PUSH2 0x260 ADD MSTORE PUSH1 0xC0 MLOAD SWAP1 SUB PUSH1 0xC0 MLOAD RETURN JUMPDEST CALLVALUE PUSH2 0x164 JUMPI PUSH1 0x0 CALLDATASIZE PUSH1 0x3 NOT ADD SLT PUSH2 0x164 JUMPI CALLER PUSH1 0x0 MSTORE PUSH1 0x20 PUSH1 0xA PUSH1 0x20 MSTORE PUSH1 0x40 PUSH1 0x0 KECCAK256 SWAP1 PUSH1 0x40 MLOAD SWAP1 DUP2 PUSH1 0x20 DUP5 SLOAD SWAP2 DUP3 DUP2 MSTORE ADD SWAP4 PUSH1 0x0 MSTORE PUSH1 0x20 PUSH1 0x0 KECCAK256 SWAP2 PUSH1 0x0 SWAP1 JUMPDEST DUP3 DUP3 LT PUSH2 0x15EA JUMPI PUSH2 0x1C5 DUP6 PUSH2 0x2AE DUP2 DUP10 SUB DUP3 PUSH2 0x1FE3 JUMP JUMPDEST DUP4 SLOAD DUP7 MSTORE SWAP5 DUP6 ADD SWAP5 PUSH1 0x1 SWAP4 DUP5 ADD SWAP4 SWAP1 SWAP2 ADD SWAP1 PUSH2 0x15D3 JUMP JUMPDEST CALLVALUE PUSH2 0x164 JUMPI PUSH2 0x160F CALLDATASIZE PUSH2 0x20C3 JUMP JUMPDEST SWAP2 PUSH1 0x0 MSTORE PUSH1 0x9 PUSH1 0x20 MSTORE PUSH1 0x40 PUSH1 0x0 KECCAK256 SWAP1 PUSH1 0x1 DUP1 PUSH1 0xA0 SHL SUB AND PUSH1 0x0 MSTORE PUSH1 0x20 MSTORE PUSH1 0x40 PUSH1 0x0 KECCAK256 DUP1 SLOAD DUP3 LT ISZERO PUSH2 0x164 JUMPI PUSH1 0x20 SWAP2 PUSH2 0xDDA SWAP2 PUSH2 0x20ED JUMP JUMPDEST CALLVALUE PUSH2 0x164 JUMPI PUSH1 0x40 CALLDATASIZE PUSH1 0x3 NOT ADD SLT PUSH2 0x164 JUMPI PUSH1 0x4 CALLDATALOAD PUSH1 0x24 CALLDATALOAD PUSH1 0x1 PUSH1 0x1 PUSH1 0x40 SHL SUB DUP2 GT PUSH2 0x164 JUMPI PUSH2 0x1679 SWAP1 CALLDATASIZE SWAP1 PUSH1 0x4 ADD PUSH2 0x206D JUMP JUMPDEST SWAP1 DUP1 PUSH1 0x0 MSTORE PUSH1 0x20 SWAP2 PUSH1 0x5 DUP4 MSTORE PUSH1 0x40 PUSH1 0x0 KECCAK256 CALLER PUSH1 0x0 MSTORE DUP4 MSTORE PUSH2 0x16A6 PUSH1 0x1 PUSH1 0xFF PUSH1 0x40 PUSH1 0x0 KECCAK256 SLOAD AND ISZERO ISZERO EQ PUSH2 0x24E6 JUMP JUMPDEST PUSH2 0x16C3 PUSH1 0xFF PUSH1 0x9 PUSH2 0x16B6 DUP6 PUSH2 0x211B JUMP JUMPDEST POP ADD SLOAD PUSH1 0x8 SHR AND ISZERO PUSH2 0x232A JUMP JUMPDEST PUSH2 0x16E1 PUSH1 0x1 PUSH1 0xFF PUSH1 0x9 PUSH2 0x16D5 DUP7 PUSH2 0x211B JUMP JUMPDEST POP ADD SLOAD AND ISZERO ISZERO EQ PUSH2 0x2376 JUMP JUMPDEST PUSH2 0x16F9 PUSH1 0x8 PUSH2 0x16EF DUP5 PUSH2 0x211B JUMP JUMPDEST POP ADD SLOAD TIMESTAMP LT PUSH2 0x23C2 JUMP JUMPDEST DUP2 PUSH1 0x0 MSTORE PUSH1 0x6 DUP4 MSTORE PUSH1 0x40 PUSH1 0x0 KECCAK256 CALLER PUSH1 0x0 MSTORE DUP4 MSTORE PUSH1 0x40 PUSH1 0x0 KECCAK256 SLOAD PUSH1 0x11 PUSH2 0x171D DUP5 PUSH2 0x211B JUMP JUMPDEST POP ADD SLOAD GT ISZERO PUSH2 0x1793 JUMPI DUP2 PUSH1 0x0 MSTORE PUSH1 0x7 DUP4 MSTORE PUSH1 0x40 PUSH1 0x0 KECCAK256 CALLER PUSH1 0x0 MSTORE DUP4 MSTORE PUSH1 0x40 PUSH1 0x0 KECCAK256 DUP1 SLOAD PUSH1 0x1 PUSH1 0x40 SHL DUP2 LT ISZERO PUSH2 0xBD7 JUMPI PUSH2 0x175B SWAP2 PUSH1 0x1 DUP3 ADD DUP2 SSTORE PUSH2 0x20ED JUMP JUMPDEST SWAP2 SWAP1 SWAP2 PUSH2 0xBED JUMPI PUSH2 0x176B SWAP2 PUSH2 0x2558 JUMP JUMPDEST PUSH1 0x0 MSTORE PUSH1 0x6 DUP2 MSTORE PUSH1 0x40 PUSH1 0x0 KECCAK256 SWAP1 CALLER PUSH1 0x0 MSTORE MSTORE PUSH1 0x40 PUSH1 0x0 KECCAK256 DUP1 SLOAD SWAP1 PUSH1 0x1 DUP3 ADD DUP1 SWAP3 GT PUSH2 0x104C JUMPI SSTORE STOP JUMPDEST PUSH1 0x40 MLOAD PUSH3 0x461BCD PUSH1 0xE5 SHL DUP2 MSTORE PUSH1 0x4 DUP2 ADD DUP5 SWAP1 MSTORE PUSH1 0x32 PUSH1 0x24 DUP3 ADD MSTORE PUSH32 0x596F752068617665207265616368656420746865206D6178696D756D206E756D PUSH1 0x44 DUP3 ADD MSTORE PUSH18 0x626572206F66206672657175656E63696573 PUSH1 0x70 SHL PUSH1 0x64 DUP3 ADD MSTORE PUSH1 0x84 SWAP1 REVERT JUMPDEST CALLVALUE PUSH2 0x164 JUMPI PUSH1 0x20 DUP1 PUSH1 0x3 NOT CALLDATASIZE ADD SLT PUSH2 0x164 JUMPI PUSH1 0x4 CALLDATALOAD DUP1 PUSH1 0x0 MSTORE PUSH1 0x5 DUP3 MSTORE PUSH1 0x40 PUSH1 0x0 KECCAK256 CALLER PUSH1 0x0 MSTORE DUP3 MSTORE PUSH2 0x1831 PUSH1 0x1 PUSH1 0xFF PUSH1 0x40 PUSH1 0x0 KECCAK256 SLOAD AND ISZERO ISZERO EQ PUSH2 0x24E6 JUMP JUMPDEST PUSH1 0x0 MSTORE PUSH1 0x8 DUP2 MSTORE PUSH1 0x40 PUSH1 0x0 KECCAK256 CALLER PUSH1 0x0 MSTORE DUP2 MSTORE PUSH1 0x40 PUSH1 0x0 KECCAK256 SLOAD PUSH1 0x40 MLOAD SWAP1 DUP2 MSTORE RETURN JUMPDEST CALLVALUE PUSH2 0x164 JUMPI PUSH1 0x40 CALLDATASIZE PUSH1 0x3 NOT ADD SLT PUSH2 0x164 JUMPI PUSH2 0x186A PUSH2 0x1F9B JUMP JUMPDEST PUSH1 0x4 CALLDATALOAD PUSH1 0x0 MSTORE PUSH1 0x6 PUSH1 0x20 MSTORE PUSH1 0x40 PUSH1 0x0 KECCAK256 SWAP1 PUSH1 0x1 DUP1 PUSH1 0xA0 SHL SUB AND PUSH1 0x0 MSTORE PUSH1 0x20 MSTORE PUSH1 0x20 PUSH1 0x40 PUSH1 0x0 KECCAK256 SLOAD PUSH1 0x40 MLOAD SWAP1 DUP2 MSTORE RETURN JUMPDEST CALLVALUE PUSH2 0x164 JUMPI PUSH1 0x40 CALLDATASIZE PUSH1 0x3 NOT ADD SLT PUSH2 0x164 JUMPI PUSH2 0x18B2 PUSH2 0x1F9B JUMP JUMPDEST PUSH1 0x4 CALLDATALOAD PUSH1 0x0 MSTORE PUSH1 0x20 SWAP1 PUSH1 0x9 PUSH1 0x20 MSTORE PUSH1 0x40 PUSH1 0x0 KECCAK256 SWAP1 PUSH1 0x1 DUP1 PUSH1 0xA0 SHL SUB AND PUSH1 0x0 MSTORE PUSH1 0x20 MSTORE PUSH1 0x40 PUSH1 0x0 KECCAK256 SWAP1 PUSH1 0x40 MLOAD SWAP1 DUP2 PUSH1 0x20 DUP5 SLOAD SWAP2 DUP3 DUP2 MSTORE ADD SWAP4 PUSH1 0x0 MSTORE PUSH1 0x20 PUSH1 0x0 KECCAK256 SWAP2 PUSH1 0x0 SWAP1 JUMPDEST DUP3 DUP3 LT PUSH2 0x190D JUMPI PUSH2 0x1C5 DUP6 PUSH2 0x2AE DUP2 DUP10 SUB DUP3 PUSH2 0x1FE3 JUMP JUMPDEST DUP4 SLOAD DUP7 MSTORE SWAP5 DUP6 ADD SWAP5 PUSH1 0x1 SWAP4 DUP5 ADD SWAP4 SWAP1 SWAP2 ADD SWAP1 PUSH2 0x18F6 JUMP JUMPDEST CALLVALUE PUSH2 0x164 JUMPI PUSH1 0x20 CALLDATASIZE PUSH1 0x3 NOT ADD SLT PUSH2 0x164 JUMPI PUSH1 0x4 CALLDATALOAD PUSH2 0x1944 PUSH2 0xE07 DUP3 PUSH2 0x211B JUMP JUMPDEST PUSH2 0x195E PUSH1 0xFF PUSH1 0x9 PUSH2 0x1954 DUP5 PUSH2 0x211B JUMP JUMPDEST POP ADD SLOAD AND ISZERO PUSH2 0x2482 JUMP JUMPDEST PUSH1 0xC PUSH2 0x1969 DUP3 PUSH2 0x211B JUMP JUMPDEST POP ADD SLOAD ISZERO PUSH2 0x198B JUMPI PUSH2 0x197C PUSH1 0x9 SWAP2 PUSH2 0x211B JUMP JUMPDEST POP ADD DUP1 SLOAD PUSH1 0xFF NOT AND PUSH1 0x1 OR SWAP1 SSTORE STOP JUMPDEST PUSH1 0x40 MLOAD PUSH3 0x461BCD PUSH1 0xE5 SHL DUP2 MSTORE PUSH1 0x20 PUSH1 0x4 DUP3 ADD MSTORE PUSH1 0x1C PUSH1 0x24 DUP3 ADD MSTORE PUSH32 0x4E6F207061727469636970616E747320696E207468697320676F616C00000000 PUSH1 0x44 DUP3 ADD MSTORE PUSH1 0x64 SWAP1 REVERT JUMPDEST CALLVALUE PUSH2 0x164 JUMPI PUSH2 0x19DE CALLDATASIZE PUSH2 0x201B JUMP JUMPDEST SWAP1 PUSH1 0x6 PUSH2 0x19EA DUP3 PUSH2 0x211B JUMP JUMPDEST POP ADD SLOAD DUP3 LT PUSH2 0x1C91 JUMPI PUSH1 0x1 SLOAD PUSH1 0x40 MLOAD PUSH4 0x70A08231 PUSH1 0xE0 SHL DUP2 MSTORE CALLER PUSH1 0x4 DUP3 ADD MSTORE PUSH1 0x1 PUSH1 0x1 PUSH1 0xA0 SHL SUB SWAP4 PUSH1 0x20 SWAP3 SWAP1 SWAP2 SWAP1 DUP4 SWAP1 DUP3 SWAP1 PUSH1 0x24 SWAP1 DUP3 SWAP1 DUP10 AND GAS STATICCALL DUP1 ISZERO PUSH2 0xB35 JUMPI DUP3 SWAP1 PUSH1 0x0 SWAP1 PUSH2 0x1C60 JUMPI JUMPDEST PUSH2 0x1A41 SWAP3 POP LT ISZERO PUSH2 0x2441 JUMP JUMPDEST PUSH1 0xC PUSH2 0x1A4C DUP5 PUSH2 0x211B JUMP JUMPDEST POP ADD SLOAD PUSH1 0xD PUSH2 0x1A5A DUP6 PUSH2 0x211B JUMP JUMPDEST POP ADD SLOAD GT ISZERO PUSH2 0x1C2C JUMPI PUSH2 0x1A73 PUSH1 0xFF PUSH1 0x9 PUSH2 0x16B6 DUP7 PUSH2 0x211B JUMP JUMPDEST DUP3 PUSH1 0x0 MSTORE PUSH1 0x5 DUP3 MSTORE PUSH1 0x40 PUSH1 0x0 KECCAK256 CALLER PUSH1 0x0 MSTORE DUP3 MSTORE PUSH1 0xFF PUSH1 0x40 PUSH1 0x0 KECCAK256 SLOAD AND PUSH2 0x1BDC JUMPI PUSH2 0x1AA3 PUSH1 0xFF PUSH1 0x9 PUSH2 0x1954 DUP7 PUSH2 0x211B JUMP JUMPDEST DUP3 PUSH1 0x0 MSTORE PUSH1 0x4 DUP3 MSTORE PUSH1 0x40 PUSH1 0x0 KECCAK256 CALLER PUSH1 0x0 MSTORE DUP3 MSTORE DUP1 PUSH1 0x40 PUSH1 0x0 KECCAK256 SSTORE PUSH1 0xA PUSH2 0x1AC8 DUP5 PUSH2 0x211B JUMP JUMPDEST POP ADD PUSH2 0x1AD5 DUP3 DUP3 SLOAD PUSH2 0x2434 JUMP JUMPDEST SWAP1 SSTORE PUSH1 0xC PUSH2 0x1AE2 DUP5 PUSH2 0x211B JUMP JUMPDEST POP ADD DUP1 SLOAD SWAP1 PUSH1 0x1 DUP3 ADD DUP1 SWAP3 GT PUSH2 0x104C JUMPI SSTORE DUP3 PUSH1 0x0 MSTORE PUSH1 0x3 DUP3 MSTORE PUSH1 0x40 PUSH1 0x0 KECCAK256 SWAP1 DUP2 SLOAD SWAP1 PUSH1 0x1 PUSH1 0x40 SHL DUP3 LT ISZERO PUSH2 0xBD7 JUMPI PUSH1 0x0 SWAP6 PUSH2 0x1B27 DUP4 DUP7 SWAP6 PUSH1 0x1 PUSH2 0x1B98 SWAP7 ADD DUP2 SSTORE PUSH2 0x20ED JUMP JUMPDEST DUP2 SLOAD SWAP1 PUSH1 0x3 SHL SWAP1 DUP4 CALLER DUP4 SHL SWAP3 SHL NOT AND OR SWAP1 SSTORE DUP6 DUP8 MSTORE PUSH1 0x5 DUP5 MSTORE PUSH1 0x40 DUP8 KECCAK256 CALLER DUP9 MSTORE DUP5 MSTORE PUSH1 0x40 DUP8 KECCAK256 PUSH1 0x1 PUSH1 0xFF NOT DUP3 SLOAD AND OR SWAP1 SSTORE PUSH1 0x1 SLOAD AND SWAP1 PUSH1 0x40 MLOAD SWAP7 DUP8 DUP1 SWAP5 DUP2 SWAP4 PUSH4 0x23B872DD PUSH1 0xE0 SHL DUP4 MSTORE ADDRESS CALLER PUSH1 0x4 DUP6 ADD PUSH1 0x40 SWAP2 SWAP5 SWAP4 SWAP3 SWAP5 PUSH1 0x60 DUP3 ADD SWAP6 PUSH1 0x1 DUP1 PUSH1 0xA0 SHL SUB DUP1 SWAP3 AND DUP4 MSTORE AND PUSH1 0x20 DUP3 ADD MSTORE ADD MSTORE JUMP JUMPDEST SUB SWAP3 GAS CALL SWAP1 DUP2 ISZERO PUSH2 0xB35 JUMPI PUSH2 0xB2C SWAP4 PUSH1 0xB SWAP3 PUSH2 0x1BBF JUMPI JUMPDEST POP CALLER PUSH1 0x0 MSTORE MSTORE PUSH1 0x40 PUSH1 0x0 KECCAK256 PUSH2 0x23FF JUMP JUMPDEST PUSH2 0x1BD5 SWAP1 DUP3 RETURNDATASIZE DUP5 GT PUSH2 0xB2E JUMPI PUSH2 0xB24 DUP2 DUP4 PUSH2 0x1FE3 JUMP JUMPDEST POP DUP5 PUSH2 0x1BAF JUMP JUMPDEST PUSH1 0x40 MLOAD PUSH3 0x461BCD PUSH1 0xE5 SHL DUP2 MSTORE PUSH1 0x4 DUP2 ADD DUP4 SWAP1 MSTORE PUSH1 0x22 PUSH1 0x24 DUP3 ADD MSTORE PUSH32 0x596F75206861766520616C726561647920656E7465726564207468697320676F PUSH1 0x44 DUP3 ADD MSTORE PUSH2 0x185B PUSH1 0xF2 SHL PUSH1 0x64 DUP3 ADD MSTORE PUSH1 0x84 SWAP1 REVERT JUMPDEST PUSH1 0x40 MLOAD PUSH3 0x461BCD PUSH1 0xE5 SHL DUP2 MSTORE PUSH1 0x4 DUP2 ADD DUP4 SWAP1 MSTORE PUSH1 0xC PUSH1 0x24 DUP3 ADD MSTORE PUSH12 0x11DBD85B081A5CC8199D5B1B PUSH1 0xA2 SHL PUSH1 0x44 DUP3 ADD MSTORE PUSH1 0x64 SWAP1 REVERT JUMPDEST POP POP DUP3 DUP2 DUP2 RETURNDATASIZE DUP4 GT PUSH2 0x1C8A JUMPI JUMPDEST PUSH2 0x1C77 DUP2 DUP4 PUSH2 0x1FE3 JUMP JUMPDEST DUP2 ADD SUB SLT PUSH2 0x164 JUMPI DUP2 PUSH2 0x1A41 SWAP2 MLOAD PUSH2 0x1A35 JUMP JUMPDEST POP RETURNDATASIZE PUSH2 0x1C6D JUMP JUMPDEST PUSH1 0x40 MLOAD PUSH3 0x461BCD PUSH1 0xE5 SHL DUP2 MSTORE PUSH1 0x20 PUSH1 0x4 DUP3 ADD MSTORE PUSH1 0x24 DUP1 DUP3 ADD MSTORE PUSH32 0x426574206D7573742062652067726561746572207468616E206D696E696D756D PUSH1 0x44 DUP3 ADD MSTORE PUSH4 0x818995D PUSH1 0xE2 SHL PUSH1 0x64 DUP3 ADD MSTORE PUSH1 0x84 SWAP1 REVERT JUMPDEST CALLVALUE PUSH2 0x164 JUMPI PUSH1 0x80 CALLDATASIZE PUSH1 0x3 NOT ADD SLT PUSH2 0x164 JUMPI PUSH1 0x4 CALLDATALOAD PUSH2 0x1CFE PUSH2 0x1F9B JUMP JUMPDEST SWAP1 PUSH1 0x64 CALLDATALOAD SWAP1 PUSH1 0x1 PUSH1 0x1 PUSH1 0x40 SHL SUB DUP3 GT PUSH2 0x164 JUMPI CALLDATASIZE PUSH1 0x23 DUP4 ADD SLT ISZERO PUSH2 0x164 JUMPI DUP2 PUSH1 0x4 ADD CALLDATALOAD PUSH1 0x24 PUSH2 0x1D2C DUP3 PUSH2 0x2004 JUMP JUMPDEST SWAP1 PUSH2 0x1D3A PUSH1 0x40 MLOAD SWAP3 DUP4 PUSH2 0x1FE3 JUMP JUMPDEST DUP3 DUP3 MSTORE PUSH1 0x20 SWAP5 DUP6 DUP4 ADD PUSH1 0x24 PUSH1 0x5 SWAP6 PUSH1 0x5 SHL DUP4 ADD ADD SWAP2 CALLDATASIZE DUP4 GT PUSH2 0x164 JUMPI PUSH1 0x24 DUP9 SWAP2 ADD SWAP2 JUMPDEST DUP4 DUP4 LT PUSH2 0x1F8B JUMPI POP POP POP POP PUSH2 0x1D71 DUP5 PUSH2 0x211B JUMP JUMPDEST POP SWAP2 PUSH1 0x1 DUP1 PUSH1 0xA0 SHL SUB DUP1 PUSH1 0x9 DUP1 SWAP6 ADD SLOAD PUSH1 0x18 SHR AND CALLER EQ DUP1 ISZERO PUSH2 0x1F7E JUMPI JUMPDEST PUSH2 0x1D97 SWAP1 PUSH2 0x22D2 JUMP JUMPDEST DUP6 PUSH1 0x0 MSTORE PUSH1 0x5 DUP8 MSTORE PUSH1 0x40 PUSH1 0x0 KECCAK256 SWAP8 AND SWAP7 DUP8 PUSH1 0x0 MSTORE DUP7 MSTORE PUSH1 0x1 SWAP3 PUSH1 0x1 PUSH1 0xFF PUSH1 0x40 PUSH1 0x0 KECCAK256 SLOAD AND ISZERO ISZERO SUB PUSH2 0x1F23 JUMPI PUSH2 0x1DD2 PUSH1 0xFF PUSH1 0x9 PUSH2 0x16B6 DUP10 PUSH2 0x211B JUMP JUMPDEST PUSH2 0x1DE4 PUSH1 0x1 PUSH1 0xFF PUSH1 0x9 PUSH2 0x16D5 DUP11 PUSH2 0x211B JUMP JUMPDEST PUSH2 0x1DF2 PUSH1 0x8 PUSH2 0x16EF DUP9 PUSH2 0x211B JUMP JUMPDEST DUP6 PUSH1 0x0 MSTORE PUSH1 0x8 DUP8 MSTORE PUSH1 0x40 PUSH1 0x0 KECCAK256 DUP9 PUSH1 0x0 MSTORE DUP8 MSTORE PUSH1 0x40 PUSH1 0x0 KECCAK256 SLOAD PUSH1 0x11 PUSH2 0x1E16 DUP9 PUSH2 0x211B JUMP JUMPDEST POP ADD SLOAD GT ISZERO PUSH2 0x1EB8 JUMPI PUSH1 0x0 DUP5 JUMPDEST PUSH2 0x1E52 JUMPI JUMPDEST DUP9 DUP9 DUP9 PUSH1 0x0 MSTORE PUSH1 0x8 DUP2 MSTORE PUSH1 0x40 PUSH1 0x0 KECCAK256 SWAP2 PUSH1 0x0 MSTORE MSTORE PUSH1 0x40 PUSH1 0x0 KECCAK256 PUSH2 0x1E4E PUSH1 0x44 CALLDATALOAD DUP3 SLOAD PUSH2 0x2434 JUMP JUMPDEST SWAP1 SSTORE STOP JUMPDEST DUP3 MLOAD DUP2 LT ISZERO PUSH2 0x1EB3 JUMPI DUP7 PUSH1 0x0 MSTORE DUP2 DUP9 MSTORE PUSH1 0x40 PUSH1 0x0 KECCAK256 DUP10 PUSH1 0x0 MSTORE DUP9 MSTORE PUSH1 0x40 PUSH1 0x0 KECCAK256 DUP4 MLOAD DUP3 LT ISZERO PUSH2 0x1E9E JUMPI DUP2 PUSH2 0x1E94 DUP8 SWAP7 SWAP6 SWAP5 SWAP4 SWAP3 DUP12 DUP9 SWAP5 DUP12 SHL DUP8 ADD ADD MLOAD SWAP1 PUSH2 0x23FF JUMP JUMPDEST ADD SWAP1 SWAP2 SWAP3 SWAP4 PUSH2 0x1E23 JUMP JUMPDEST DUP5 PUSH4 0x4E487B71 PUSH1 0xE0 SHL PUSH1 0x0 MSTORE PUSH1 0x32 PUSH1 0x4 MSTORE PUSH1 0x0 REVERT JUMPDEST PUSH2 0x1E28 JUMP JUMPDEST PUSH1 0x40 MLOAD PUSH3 0x461BCD PUSH1 0xE5 SHL DUP2 MSTORE PUSH1 0x4 DUP2 ADD DUP9 SWAP1 MSTORE PUSH1 0x3E PUSH1 0x24 DUP3 ADD MSTORE PUSH32 0x54686973207061727469636970616E7420686173207265616368656420746865 PUSH1 0x44 DUP3 ADD MSTORE PUSH32 0x206D6178696D756D206E756D626572206F66206672657175656E636965730000 PUSH1 0x64 DUP3 ADD MSTORE PUSH1 0x84 SWAP1 REVERT JUMPDEST PUSH1 0x40 MLOAD PUSH3 0x461BCD PUSH1 0xE5 SHL DUP2 MSTORE PUSH1 0x4 DUP2 ADD DUP9 SWAP1 MSTORE PUSH1 0x2D PUSH1 0x24 DUP3 ADD MSTORE PUSH32 0x5468652061646472657373206973206E6F742061207061727469636970616E74 PUSH1 0x44 DUP3 ADD MSTORE PUSH13 0x81BD9881D1A1A5CC819DBD85B PUSH1 0x9A SHL PUSH1 0x64 DUP3 ADD MSTORE PUSH1 0x84 SWAP1 REVERT JUMPDEST POP PUSH1 0x0 SLOAD DUP2 AND CALLER EQ PUSH2 0x1D8E JUMP JUMPDEST DUP3 CALLDATALOAD DUP2 MSTORE SWAP2 DUP2 ADD SWAP2 DUP9 SWAP2 ADD PUSH2 0x1D5D JUMP JUMPDEST PUSH1 0x24 CALLDATALOAD SWAP1 PUSH1 0x1 PUSH1 0x1 PUSH1 0xA0 SHL SUB DUP3 AND DUP3 SUB PUSH2 0x164 JUMPI JUMP JUMPDEST PUSH1 0x4 CALLDATALOAD SWAP1 PUSH1 0x1 PUSH1 0x1 PUSH1 0xA0 SHL SUB DUP3 AND DUP3 SUB PUSH2 0x164 JUMPI JUMP JUMPDEST PUSH2 0x2A0 DUP2 ADD SWAP1 DUP2 LT PUSH1 0x1 PUSH1 0x1 PUSH1 0x40 SHL SUB DUP3 GT OR PUSH2 0xBD7 JUMPI PUSH1 0x40 MSTORE JUMP JUMPDEST SWAP1 PUSH1 0x1F DUP1 NOT SWAP2 ADD AND DUP2 ADD SWAP1 DUP2 LT PUSH1 0x1 PUSH1 0x1 PUSH1 0x40 SHL SUB DUP3 GT OR PUSH2 0xBD7 JUMPI PUSH1 0x40 MSTORE JUMP JUMPDEST PUSH1 0x1 PUSH1 0x1 PUSH1 0x40 SHL SUB DUP2 GT PUSH2 0xBD7 JUMPI PUSH1 0x5 SHL PUSH1 0x20 ADD SWAP1 JUMP JUMPDEST PUSH1 0x40 SWAP1 PUSH1 0x3 NOT ADD SLT PUSH2 0x164 JUMPI PUSH1 0x4 CALLDATALOAD SWAP1 PUSH1 0x24 CALLDATALOAD SWAP1 JUMP JUMPDEST PUSH1 0x20 SWAP1 PUSH1 0x20 PUSH1 0x40 DUP2 DUP4 ADD SWAP3 DUP3 DUP2 MSTORE DUP6 MLOAD DUP1 SWAP5 MSTORE ADD SWAP4 ADD SWAP2 PUSH1 0x0 JUMPDEST DUP3 DUP2 LT PUSH2 0x2059 JUMPI POP POP POP POP SWAP1 JUMP JUMPDEST DUP4 MLOAD DUP6 MSTORE SWAP4 DUP2 ADD SWAP4 SWAP3 DUP2 ADD SWAP3 PUSH1 0x1 ADD PUSH2 0x204B JUMP JUMPDEST DUP2 PUSH1 0x1F DUP3 ADD SLT ISZERO PUSH2 0x164 JUMPI DUP1 CALLDATALOAD SWAP1 PUSH1 0x1 PUSH1 0x1 PUSH1 0x40 SHL SUB DUP3 GT PUSH2 0xBD7 JUMPI PUSH1 0x40 MLOAD SWAP3 PUSH2 0x20A1 PUSH1 0x1F DUP5 ADD PUSH1 0x1F NOT AND PUSH1 0x20 ADD DUP6 PUSH2 0x1FE3 JUMP JUMPDEST DUP3 DUP5 MSTORE PUSH1 0x20 DUP4 DUP4 ADD ADD GT PUSH2 0x164 JUMPI DUP2 PUSH1 0x0 SWAP3 PUSH1 0x20 DUP1 SWAP4 ADD DUP4 DUP7 ADD CALLDATACOPY DUP4 ADD ADD MSTORE SWAP1 JUMP JUMPDEST PUSH1 0x60 SWAP1 PUSH1 0x3 NOT ADD SLT PUSH2 0x164 JUMPI PUSH1 0x4 CALLDATALOAD SWAP1 PUSH1 0x24 CALLDATALOAD PUSH1 0x1 PUSH1 0x1 PUSH1 0xA0 SHL SUB DUP2 AND DUP2 SUB PUSH2 0x164 JUMPI SWAP1 PUSH1 0x44 CALLDATALOAD SWAP1 JUMP JUMPDEST DUP1 SLOAD DUP3 LT ISZERO PUSH2 0x2105 JUMPI PUSH1 0x0 MSTORE PUSH1 0x20 PUSH1 0x0 KECCAK256 ADD SWAP1 PUSH1 0x0 SWAP1 JUMP JUMPDEST PUSH4 0x4E487B71 PUSH1 0xE0 SHL PUSH1 0x0 MSTORE PUSH1 0x32 PUSH1 0x4 MSTORE PUSH1 0x24 PUSH1 0x0 REVERT JUMPDEST PUSH1 0x2 SLOAD DUP2 LT ISZERO PUSH2 0x2105 JUMPI PUSH1 0x12 SWAP1 PUSH1 0x2 PUSH1 0x0 MSTORE MUL PUSH32 0x405787FA12A823E0F2B7631CC41B3BA8828B3321CA811111FA75CD3AA3BB5ACE ADD SWAP1 PUSH1 0x0 SWAP1 JUMP JUMPDEST SWAP1 PUSH1 0x1 DUP3 DUP2 SHR SWAP3 AND DUP1 ISZERO PUSH2 0x2186 JUMPI JUMPDEST PUSH1 0x20 DUP4 LT EQ PUSH2 0x2170 JUMPI JUMP JUMPDEST PUSH4 0x4E487B71 PUSH1 0xE0 SHL PUSH1 0x0 MSTORE PUSH1 0x22 PUSH1 0x4 MSTORE PUSH1 0x24 PUSH1 0x0 REVERT JUMPDEST SWAP2 PUSH1 0x7F AND SWAP2 PUSH2 0x2165 JUMP JUMPDEST SWAP1 PUSH1 0x40 MLOAD SWAP2 DUP3 PUSH1 0x0 DUP3 SLOAD PUSH2 0x21A3 DUP2 PUSH2 0x2156 JUMP JUMPDEST SWAP1 DUP2 DUP5 MSTORE PUSH1 0x20 SWAP5 PUSH1 0x1 SWAP2 PUSH1 0x1 DUP2 AND SWAP1 DUP2 PUSH1 0x0 EQ PUSH2 0x2213 JUMPI POP PUSH1 0x1 EQ PUSH2 0x21D4 JUMPI JUMPDEST POP POP POP PUSH2 0x21D2 SWAP3 POP SUB DUP4 PUSH2 0x1FE3 JUMP JUMPDEST JUMP JUMPDEST PUSH1 0x0 SWAP1 DUP2 MSTORE DUP6 DUP2 KECCAK256 SWAP6 SWAP4 POP SWAP2 SWAP1 JUMPDEST DUP2 DUP4 LT PUSH2 0x21FB JUMPI POP POP PUSH2 0x21D2 SWAP4 POP DUP3 ADD ADD CODESIZE DUP1 DUP1 PUSH2 0x21C3 JUMP JUMPDEST DUP6 SLOAD DUP9 DUP5 ADD DUP6 ADD MSTORE SWAP5 DUP6 ADD SWAP5 DUP8 SWAP5 POP SWAP2 DUP4 ADD SWAP2 PUSH2 0x21E2 JUMP JUMPDEST SWAP3 POP POP POP PUSH2 0x21D2 SWAP5 SWAP3 POP PUSH1 0xFF NOT AND DUP3 DUP5 ADD MSTORE ISZERO ISZERO PUSH1 0x5 SHL DUP3 ADD ADD CODESIZE DUP1 DUP1 PUSH2 0x21C3 JUMP JUMPDEST SWAP2 SWAP1 DUP3 MLOAD SWAP3 DUP4 DUP3 MSTORE PUSH1 0x0 JUMPDEST DUP5 DUP2 LT PUSH2 0x2261 JUMPI POP POP DUP3 PUSH1 0x0 PUSH1 0x20 DUP1 SWAP5 SWAP6 DUP5 ADD ADD MSTORE PUSH1 0x1F DUP1 NOT SWAP2 ADD AND ADD ADD SWAP1 JUMP JUMPDEST PUSH1 0x20 DUP2 DUP4 ADD DUP2 ADD MLOAD DUP5 DUP4 ADD DUP3 ADD MSTORE ADD PUSH2 0x2240 JUMP JUMPDEST SWAP1 DUP1 DUP3 MLOAD SWAP1 DUP2 DUP2 MSTORE PUSH1 0x20 DUP1 SWAP2 ADD SWAP3 PUSH1 0x20 DUP1 DUP5 PUSH1 0x5 SHL DUP4 ADD ADD SWAP6 ADD SWAP4 PUSH1 0x0 SWAP2 JUMPDEST DUP5 DUP4 LT PUSH2 0x22A4 JUMPI POP POP POP POP POP POP SWAP1 JUMP JUMPDEST SWAP1 SWAP2 SWAP3 SWAP4 SWAP5 SWAP6 DUP5 DUP1 PUSH2 0x22C2 PUSH1 0x1 SWAP4 PUSH1 0x1F NOT DUP7 DUP3 SUB ADD DUP8 MSTORE DUP11 MLOAD PUSH2 0x2235 JUMP JUMPDEST SWAP9 ADD SWAP4 ADD SWAP4 ADD SWAP2 SWAP5 SWAP4 SWAP3 SWAP1 PUSH2 0x2294 JUMP JUMPDEST ISZERO PUSH2 0x22D9 JUMPI JUMP JUMPDEST PUSH1 0x40 MLOAD PUSH3 0x461BCD PUSH1 0xE5 SHL DUP2 MSTORE PUSH1 0x20 PUSH1 0x4 DUP3 ADD MSTORE PUSH1 0x24 DUP1 DUP3 ADD MSTORE PUSH32 0x596F7520617265206E6F74207468652063726561746F72206F66207468697320 PUSH1 0x44 DUP3 ADD MSTORE PUSH4 0x19DBD85B PUSH1 0xE2 SHL PUSH1 0x64 DUP3 ADD MSTORE PUSH1 0x84 SWAP1 REVERT JUMPDEST ISZERO PUSH2 0x2331 JUMPI JUMP JUMPDEST PUSH1 0x40 MLOAD PUSH3 0x461BCD PUSH1 0xE5 SHL DUP2 MSTORE PUSH1 0x20 PUSH1 0x4 DUP3 ADD MSTORE PUSH1 0x1F PUSH1 0x24 DUP3 ADD MSTORE PUSH32 0x476F616C2068617320616C7265616479206265656E20636F6D706C6574656400 PUSH1 0x44 DUP3 ADD MSTORE PUSH1 0x64 SWAP1 REVERT JUMPDEST ISZERO PUSH2 0x237D JUMPI JUMP JUMPDEST PUSH1 0x40 MLOAD PUSH3 0x461BCD PUSH1 0xE5 SHL DUP2 MSTORE PUSH1 0x20 PUSH1 0x4 DUP3 ADD MSTORE PUSH1 0x18 PUSH1 0x24 DUP3 ADD MSTORE PUSH32 0x476F616C20686173206E6F742073746172746564207965740000000000000000 PUSH1 0x44 DUP3 ADD MSTORE PUSH1 0x64 SWAP1 REVERT JUMPDEST ISZERO PUSH2 0x23C9 JUMPI JUMP JUMPDEST PUSH1 0x40 MLOAD PUSH3 0x461BCD PUSH1 0xE5 SHL DUP2 MSTORE PUSH1 0x20 PUSH1 0x4 DUP3 ADD MSTORE PUSH1 0xE PUSH1 0x24 DUP3 ADD MSTORE PUSH14 0x11DBD85B081A185CC8195B991959 PUSH1 0x92 SHL PUSH1 0x44 DUP3 ADD MSTORE PUSH1 0x64 SWAP1 REVERT JUMPDEST DUP1 SLOAD PUSH1 0x1 PUSH1 0x40 SHL DUP2 LT ISZERO PUSH2 0xBD7 JUMPI PUSH2 0x241C SWAP2 PUSH1 0x1 DUP3 ADD DUP2 SSTORE PUSH2 0x20ED JUMP JUMPDEST DUP2 SWAP3 SWAP2 SLOAD SWAP1 PUSH1 0x3 SHL SWAP2 DUP3 SHL SWAP2 PUSH1 0x0 NOT SWAP1 SHL NOT AND OR SWAP1 SSTORE JUMP JUMPDEST SWAP2 SWAP1 DUP3 ADD DUP1 SWAP3 GT PUSH2 0x104C JUMPI JUMP JUMPDEST ISZERO PUSH2 0x2448 JUMPI JUMP JUMPDEST PUSH1 0x40 MLOAD PUSH3 0x461BCD PUSH1 0xE5 SHL DUP2 MSTORE PUSH1 0x20 PUSH1 0x4 DUP3 ADD MSTORE PUSH1 0x12 PUSH1 0x24 DUP3 ADD MSTORE PUSH18 0x496E73756666696369656E742066756E6473 PUSH1 0x70 SHL PUSH1 0x44 DUP3 ADD MSTORE PUSH1 0x64 SWAP1 REVERT JUMPDEST ISZERO PUSH2 0x2489 JUMPI JUMP JUMPDEST PUSH1 0x40 MLOAD PUSH3 0x461BCD PUSH1 0xE5 SHL DUP2 MSTORE PUSH1 0x20 PUSH1 0x4 DUP3 ADD MSTORE PUSH1 0x18 PUSH1 0x24 DUP3 ADD MSTORE PUSH32 0x476F616C2068617320616C726561647920737461727465640000000000000000 PUSH1 0x44 DUP3 ADD MSTORE PUSH1 0x64 SWAP1 REVERT JUMPDEST SWAP1 DUP2 PUSH1 0x20 SWAP2 SUB SLT PUSH2 0x164 JUMPI MLOAD DUP1 ISZERO ISZERO DUP2 SUB PUSH2 0x164 JUMPI SWAP1 JUMP JUMPDEST ISZERO PUSH2 0x24ED JUMPI JUMP JUMPDEST PUSH1 0x40 MLOAD PUSH3 0x461BCD PUSH1 0xE5 SHL DUP2 MSTORE PUSH1 0x20 PUSH1 0x4 DUP3 ADD MSTORE PUSH1 0x26 PUSH1 0x24 DUP3 ADD MSTORE PUSH32 0x596F7520617265206E6F742061207061727469636970616E74206F6620746869 PUSH1 0x44 DUP3 ADD MSTORE PUSH6 0x1CC819DBD85B PUSH1 0xD2 SHL PUSH1 0x64 DUP3 ADD MSTORE PUSH1 0x84 SWAP1 REVERT JUMPDEST DUP2 DUP2 LT PUSH2 0x254C JUMPI POP POP JUMP JUMPDEST PUSH1 0x0 DUP2 SSTORE PUSH1 0x1 ADD PUSH2 0x2541 JUMP JUMPDEST SWAP2 SWAP1 SWAP2 DUP3 MLOAD PUSH1 0x1 PUSH1 0x1 PUSH1 0x40 SHL SUB DUP2 GT PUSH2 0xBD7 JUMPI PUSH2 0x2575 DUP3 SLOAD PUSH2 0x2156 JUMP JUMPDEST PUSH1 0x1F DUP2 GT PUSH2 0x2620 JUMPI JUMPDEST POP PUSH1 0x20 DUP1 PUSH1 0x1F DUP4 GT PUSH1 0x1 EQ PUSH2 0x25BB JUMPI POP DUP2 SWAP3 SWAP4 SWAP5 PUSH1 0x0 SWAP3 PUSH2 0x25B0 JUMPI JUMPDEST POP POP DUP2 PUSH1 0x1 SHL SWAP2 PUSH1 0x0 NOT SWAP1 PUSH1 0x3 SHL SHR NOT AND OR SWAP1 SSTORE JUMP JUMPDEST ADD MLOAD SWAP1 POP CODESIZE DUP1 PUSH2 0x259A JUMP JUMPDEST SWAP1 PUSH1 0x1F NOT DUP4 AND SWAP6 DUP5 PUSH1 0x0 MSTORE PUSH1 0x20 PUSH1 0x0 KECCAK256 SWAP3 PUSH1 0x0 SWAP1 JUMPDEST DUP9 DUP3 LT PUSH2 0x2608 JUMPI POP POP DUP4 PUSH1 0x1 SWAP6 SWAP7 SWAP8 LT PUSH2 0x25EF JUMPI JUMPDEST POP POP POP DUP2 SHL ADD SWAP1 SSTORE JUMP JUMPDEST ADD MLOAD PUSH1 0x0 NOT PUSH1 0xF8 DUP5 PUSH1 0x3 SHL AND SHR NOT AND SWAP1 SSTORE CODESIZE DUP1 DUP1 PUSH2 0x25E5 JUMP JUMPDEST DUP1 PUSH1 0x1 DUP6 SWAP7 DUP3 SWAP5 SWAP7 DUP7 ADD MLOAD DUP2 SSTORE ADD SWAP6 ADD SWAP4 ADD SWAP1 PUSH2 0x25D0 JUMP JUMPDEST PUSH2 0x264D SWAP1 DUP4 PUSH1 0x0 MSTORE PUSH1 0x20 PUSH1 0x0 KECCAK256 PUSH1 0x1F DUP5 ADD PUSH1 0x5 SHR DUP2 ADD SWAP2 PUSH1 0x20 DUP6 LT PUSH2 0x2653 JUMPI JUMPDEST PUSH1 0x1F ADD PUSH1 0x5 SHR ADD SWAP1 PUSH2 0x2541 JUMP JUMPDEST CODESIZE PUSH2 0x257E JUMP JUMPDEST SWAP1 SWAP2 POP DUP2 SWAP1 PUSH2 0x2640 JUMP JUMPDEST DUP2 ISZERO PUSH2 0x2667 JUMPI DIV SWAP1 JUMP JUMPDEST PUSH4 0x4E487B71 PUSH1 0xE0 SHL PUSH1 0x0 MSTORE PUSH1 0x12 PUSH1 0x4 MSTORE PUSH1 0x24 PUSH1 0x0 REVERT JUMPDEST SWAP2 SWAP1 DUP3 SUB SWAP2 DUP3 GT PUSH2 0x104C JUMPI JUMP JUMPDEST SWAP1 DUP2 SLOAD PUSH2 0x2696 DUP2 PUSH2 0x2004 JUMP JUMPDEST SWAP3 PUSH2 0x26A4 PUSH1 0x40 MLOAD SWAP5 DUP6 PUSH2 0x1FE3 JUMP JUMPDEST DUP2 DUP5 MSTORE PUSH1 0x0 SWAP1 DUP2 MSTORE PUSH1 0x20 DUP1 DUP3 KECCAK256 DUP2 DUP7 ADD JUMPDEST DUP5 DUP5 LT PUSH2 0x26C3 JUMPI POP POP POP POP POP JUMP JUMPDEST PUSH1 0x1 DUP4 DUP2 SWAP3 PUSH2 0x26D1 DUP6 PUSH2 0x2190 JUMP JUMPDEST DUP2 MSTORE ADD SWAP3 ADD SWAP4 ADD SWAP3 SWAP1 PUSH2 0x26B5 JUMP INVALID LOG2 PUSH5 0x6970667358 0x22 SLT KECCAK256 DUP11 0xAD SWAP5 0xDB LOG4 0xBF PUSH0 PC DUP10 0x1F 0x24 0xB8 SWAP4 0xC4 SAR 0xBB BLOBBASEFEE 0x4E 0x21 MSIZE BALANCE 0xCD DUP9 JUMPI SWAP1 CALLDATASIZE 0xB7 0xC9 CODECOPY 0xBF PUSH4 0x3364736F PUSH13 0x63430008180033000000000000 "
        },
        "methodIdentifiers": {
          "autenticateFrequency(uint256,address,uint256,uint256[])": "04091620",
          "bets(uint256,address)": "f644b3bb",
          "completeGoal(uint256)": "8e03adf3",
          "createGoal(string,string,string,string,uint256,uint256,uint256,uint256,bool,uint256,uint256,string[],string,uint256,uint256)": "b501f4c8",
          "enterGoal(uint256,uint256)": "09c935c0",
          "getAutenticatedUri(uint256,address)": "47368cf1",
          "getGoal()": "b97a7d24",
          "getMyBets(uint256)": "76e20e53",
          "getMyEnteredGoals()": "d7a755ea",
          "getMyGoals()": "5911fc34",
          "getMyProgress(uint256)": "4fe64436",
          "getParticipants(uint256)": "c1e3bd3e",
          "getParticipantsUri(uint256,address)": "f78d7454",
          "goals(uint256)": "61449ca2",
          "isParticipant(uint256,address)": "758d9b89",
          "myEnteredGoals(address,uint256)": "8e9e380e",
          "myGoals(address,uint256)": "71e9abab",
          "owner()": "8da5cb5b",
          "participants(uint256,uint256)": "81fb1fb4",
          "participantsAutenticatedFreq(uint256,address)": "e594642c",
          "participantsFreq(uint256,address)": "47c0f954",
          "participantsURI(uint256,address,uint256)": "86d6b40f",
          "startGoal(uint256)": "27130b8d",
          "token()": "fc0c546a",
          "updateFrequency(uint256,string)": "57859a28",
          "validatedURI(uint256,address,uint256)": "57a0225d"
        }
      }
    }
  }
}